{
  "contractName": "SeekerToken",
  "abi": [
    {
      "inputs": [
        {
          "internalType": "string",
          "name": "_name",
          "type": "string"
        },
        {
          "internalType": "string",
          "name": "_symbol",
          "type": "string"
        }
      ],
      "stateMutability": "nonpayable",
      "type": "constructor"
    },
    {
      "anonymous": false,
      "inputs": [
        {
          "indexed": true,
          "internalType": "address",
          "name": "owner",
          "type": "address"
        },
        {
          "indexed": true,
          "internalType": "address",
          "name": "approved",
          "type": "address"
        },
        {
          "indexed": true,
          "internalType": "uint256",
          "name": "tokenId",
          "type": "uint256"
        }
      ],
      "name": "Approval",
      "type": "event"
    },
    {
      "anonymous": false,
      "inputs": [
        {
          "indexed": true,
          "internalType": "address",
          "name": "owner",
          "type": "address"
        },
        {
          "indexed": true,
          "internalType": "address",
          "name": "operator",
          "type": "address"
        },
        {
          "indexed": false,
          "internalType": "bool",
          "name": "approved",
          "type": "bool"
        }
      ],
      "name": "ApprovalForAll",
      "type": "event"
    },
    {
      "anonymous": false,
      "inputs": [
        {
          "indexed": true,
          "internalType": "address",
          "name": "owner",
          "type": "address"
        },
        {
          "indexed": false,
          "internalType": "uint256",
          "name": "id",
          "type": "uint256"
        },
        {
          "indexed": false,
          "internalType": "uint256",
          "name": "dna",
          "type": "uint256"
        }
      ],
      "name": "NewSeeker",
      "type": "event"
    },
    {
      "anonymous": false,
      "inputs": [
        {
          "indexed": true,
          "internalType": "address",
          "name": "previousOwner",
          "type": "address"
        },
        {
          "indexed": true,
          "internalType": "address",
          "name": "newOwner",
          "type": "address"
        }
      ],
      "name": "OwnershipTransferred",
      "type": "event"
    },
    {
      "anonymous": false,
      "inputs": [
        {
          "indexed": true,
          "internalType": "address",
          "name": "from",
          "type": "address"
        },
        {
          "indexed": true,
          "internalType": "address",
          "name": "to",
          "type": "address"
        },
        {
          "indexed": true,
          "internalType": "uint256",
          "name": "tokenId",
          "type": "uint256"
        }
      ],
      "name": "Transfer",
      "type": "event"
    },
    {
      "inputs": [
        {
          "internalType": "address",
          "name": "to",
          "type": "address"
        },
        {
          "internalType": "uint256",
          "name": "tokenId",
          "type": "uint256"
        }
      ],
      "name": "approve",
      "outputs": [],
      "stateMutability": "nonpayable",
      "type": "function"
    },
    {
      "inputs": [
        {
          "internalType": "address",
          "name": "owner",
          "type": "address"
        }
      ],
      "name": "balanceOf",
      "outputs": [
        {
          "internalType": "uint256",
          "name": "",
          "type": "uint256"
        }
      ],
      "stateMutability": "view",
      "type": "function",
      "constant": true
    },
    {
      "inputs": [
        {
          "internalType": "uint256",
          "name": "tokenId",
          "type": "uint256"
        }
      ],
      "name": "getApproved",
      "outputs": [
        {
          "internalType": "address",
          "name": "",
          "type": "address"
        }
      ],
      "stateMutability": "view",
      "type": "function",
      "constant": true
    },
    {
      "inputs": [
        {
          "internalType": "address",
          "name": "owner",
          "type": "address"
        },
        {
          "internalType": "address",
          "name": "operator",
          "type": "address"
        }
      ],
      "name": "isApprovedForAll",
      "outputs": [
        {
          "internalType": "bool",
          "name": "",
          "type": "bool"
        }
      ],
      "stateMutability": "view",
      "type": "function",
      "constant": true
    },
    {
      "inputs": [],
      "name": "name",
      "outputs": [
        {
          "internalType": "string",
          "name": "",
          "type": "string"
        }
      ],
      "stateMutability": "view",
      "type": "function",
      "constant": true
    },
    {
      "inputs": [],
      "name": "owner",
      "outputs": [
        {
          "internalType": "address",
          "name": "",
          "type": "address"
        }
      ],
      "stateMutability": "view",
      "type": "function",
      "constant": true
    },
    {
      "inputs": [
        {
          "internalType": "uint256",
          "name": "tokenId",
          "type": "uint256"
        }
      ],
      "name": "ownerOf",
      "outputs": [
        {
          "internalType": "address",
          "name": "",
          "type": "address"
        }
      ],
      "stateMutability": "view",
      "type": "function",
      "constant": true
    },
    {
      "inputs": [
        {
          "internalType": "uint256",
          "name": "",
          "type": "uint256"
        }
      ],
      "name": "seekers",
      "outputs": [
        {
          "internalType": "string",
          "name": "name",
          "type": "string"
        },
        {
          "internalType": "uint256",
          "name": "id",
          "type": "uint256"
        },
        {
          "internalType": "uint256",
          "name": "dna",
          "type": "uint256"
        },
        {
          "internalType": "uint8",
          "name": "level",
          "type": "uint8"
        },
        {
          "internalType": "uint8",
          "name": "rarity",
          "type": "uint8"
        }
      ],
      "stateMutability": "view",
      "type": "function",
      "constant": true
    },
    {
      "inputs": [],
      "name": "renounceOwnership",
      "outputs": [],
      "stateMutability": "nonpayable",
      "type": "function"
    },
    {
      "inputs": [
        {
          "internalType": "address",
          "name": "from",
          "type": "address"
        },
        {
          "internalType": "address",
          "name": "to",
          "type": "address"
        },
        {
          "internalType": "uint256",
          "name": "tokenId",
          "type": "uint256"
        }
      ],
      "name": "safeTransferFrom",
      "outputs": [],
      "stateMutability": "nonpayable",
      "type": "function"
    },
    {
      "inputs": [
        {
          "internalType": "address",
          "name": "from",
          "type": "address"
        },
        {
          "internalType": "address",
          "name": "to",
          "type": "address"
        },
        {
          "internalType": "uint256",
          "name": "tokenId",
          "type": "uint256"
        },
        {
          "internalType": "bytes",
          "name": "_data",
          "type": "bytes"
        }
      ],
      "name": "safeTransferFrom",
      "outputs": [],
      "stateMutability": "nonpayable",
      "type": "function"
    },
    {
      "inputs": [
        {
          "internalType": "address",
          "name": "operator",
          "type": "address"
        },
        {
          "internalType": "bool",
          "name": "approved",
          "type": "bool"
        }
      ],
      "name": "setApprovalForAll",
      "outputs": [],
      "stateMutability": "nonpayable",
      "type": "function"
    },
    {
      "inputs": [
        {
          "internalType": "bytes4",
          "name": "interfaceId",
          "type": "bytes4"
        }
      ],
      "name": "supportsInterface",
      "outputs": [
        {
          "internalType": "bool",
          "name": "",
          "type": "bool"
        }
      ],
      "stateMutability": "view",
      "type": "function",
      "constant": true
    },
    {
      "inputs": [],
      "name": "symbol",
      "outputs": [
        {
          "internalType": "string",
          "name": "",
          "type": "string"
        }
      ],
      "stateMutability": "view",
      "type": "function",
      "constant": true
    },
    {
      "inputs": [
        {
          "internalType": "address",
          "name": "from",
          "type": "address"
        },
        {
          "internalType": "address",
          "name": "to",
          "type": "address"
        },
        {
          "internalType": "uint256",
          "name": "tokenId",
          "type": "uint256"
        }
      ],
      "name": "transferFrom",
      "outputs": [],
      "stateMutability": "nonpayable",
      "type": "function"
    },
    {
      "inputs": [
        {
          "internalType": "address",
          "name": "newOwner",
          "type": "address"
        }
      ],
      "name": "transferOwnership",
      "outputs": [],
      "stateMutability": "nonpayable",
      "type": "function"
    },
    {
      "inputs": [
        {
          "internalType": "uint256",
          "name": "_tokenId",
          "type": "uint256"
        }
      ],
      "name": "tokenURI",
      "outputs": [
        {
          "internalType": "string",
          "name": "",
          "type": "string"
        }
      ],
      "stateMutability": "view",
      "type": "function",
      "constant": true
    },
    {
      "inputs": [
        {
          "internalType": "uint256",
          "name": "newFee",
          "type": "uint256"
        }
      ],
      "name": "updateMintFee",
      "outputs": [],
      "stateMutability": "nonpayable",
      "type": "function"
    },
    {
      "inputs": [
        {
          "internalType": "uint256",
          "name": "newFee",
          "type": "uint256"
        }
      ],
      "name": "updateLevelUpFee",
      "outputs": [],
      "stateMutability": "nonpayable",
      "type": "function"
    },
    {
      "inputs": [
        {
          "internalType": "string",
          "name": "_name",
          "type": "string"
        },
        {
          "internalType": "string",
          "name": "_uri",
          "type": "string"
        }
      ],
      "name": "createRandomSeeker",
      "outputs": [],
      "stateMutability": "payable",
      "type": "function",
      "payable": true
    },
    {
      "inputs": [],
      "name": "getSeekers",
      "outputs": [
        {
          "components": [
            {
              "internalType": "string",
              "name": "name",
              "type": "string"
            },
            {
              "internalType": "uint256",
              "name": "id",
              "type": "uint256"
            },
            {
              "internalType": "uint256",
              "name": "dna",
              "type": "uint256"
            },
            {
              "internalType": "uint8",
              "name": "level",
              "type": "uint8"
            },
            {
              "internalType": "uint8",
              "name": "rarity",
              "type": "uint8"
            }
          ],
          "internalType": "struct SeekerToken.Seeker[]",
          "name": "",
          "type": "tuple[]"
        }
      ],
      "stateMutability": "view",
      "type": "function",
      "constant": true
    },
    {
      "inputs": [
        {
          "internalType": "address",
          "name": "_owner",
          "type": "address"
        }
      ],
      "name": "getOwnerSeekers",
      "outputs": [
        {
          "components": [
            {
              "internalType": "string",
              "name": "name",
              "type": "string"
            },
            {
              "internalType": "uint256",
              "name": "id",
              "type": "uint256"
            },
            {
              "internalType": "uint256",
              "name": "dna",
              "type": "uint256"
            },
            {
              "internalType": "uint8",
              "name": "level",
              "type": "uint8"
            },
            {
              "internalType": "uint8",
              "name": "rarity",
              "type": "uint8"
            }
          ],
          "internalType": "struct SeekerToken.Seeker[]",
          "name": "",
          "type": "tuple[]"
        }
      ],
      "stateMutability": "view",
      "type": "function",
      "constant": true
    },
    {
      "inputs": [],
      "name": "withdraw",
      "outputs": [],
      "stateMutability": "payable",
      "type": "function",
      "payable": true
    },
    {
      "inputs": [
        {
          "internalType": "uint256",
          "name": "_seekerId",
          "type": "uint256"
        }
      ],
      "name": "levelUp",
      "outputs": [],
      "stateMutability": "payable",
      "type": "function",
      "payable": true
    }
  ],
  "bytecode": "0x60806040526000600755662386f26fc1000060085566038d7ea4c680006009553480156200002c57600080fd5b506040516200265f3803806200265f8339810160408190526200004f916200026c565b81518290829062000068906000906020850190620000f9565b5080516200007e906001906020840190620000f9565b5050506200009b62000095620000a360201b60201c565b620000a7565b505062000313565b3390565b600680546001600160a01b038381166001600160a01b0319831681179093556040519116919082907f8be0079c531659141344cd1fd0a4f28419497f9722a3daafe3b4186f6b6457e090600090a35050565b8280546200010790620002d6565b90600052602060002090601f0160209004810192826200012b576000855562000176565b82601f106200014657805160ff191683800117855562000176565b8280016001018555821562000176579182015b828111156200017657825182559160200191906001019062000159565b506200018492915062000188565b5090565b5b8082111562000184576000815560010162000189565b634e487b7160e01b600052604160045260246000fd5b600082601f830112620001c757600080fd5b81516001600160401b0380821115620001e457620001e46200019f565b604051601f8301601f19908116603f011681019082821181831017156200020f576200020f6200019f565b816040528381526020925086838588010111156200022c57600080fd5b600091505b8382101562000250578582018301518183018401529082019062000231565b83821115620002625760008385830101525b9695505050505050565b600080604083850312156200028057600080fd5b82516001600160401b03808211156200029857600080fd5b620002a686838701620001b5565b93506020850151915080821115620002bd57600080fd5b50620002cc85828601620001b5565b9150509250929050565b600181811c90821680620002eb57607f821691505b602082108114156200030d57634e487b7160e01b600052602260045260246000fd5b50919050565b61233c80620003236000396000f3fe60806040526004361061018b5760003560e01c806384017e52116100d6578063a779bcf01161007f578063e985e9c511610059578063e985e9c514610443578063f2fde38b1461048c578063feeac619146104ac57600080fd5b8063a779bcf0146103f0578063b88d4fde14610403578063c87b56dd1461042357600080fd5b806395d89b41116100b057806395d89b411461038e5780639a41d3c9146103a3578063a22cb465146103d057600080fd5b806384017e521461031f5780638da5cb5b1461033f5780638da7f2321461035d57600080fd5b80633ccfd60b116101385780636b86bc74116101125780636b86bc74146102bc57806370a08231146102dc578063715018a61461030a57600080fd5b80633ccfd60b1461027457806342842e0e1461027c5780636352211e1461029c57600080fd5b8063095ea7b311610169578063095ea7b31461021f5780630ce90ec21461024157806323b872dd1461025457600080fd5b806301ffc9a71461019057806306fdde03146101c5578063081812fc146101e7575b600080fd5b34801561019c57600080fd5b506101b06101ab366004611db4565b6104c1565b60405190151581526020015b60405180910390f35b3480156101d157600080fd5b506101da61055e565b6040516101bc9190611e1e565b3480156101f357600080fd5b50610207610202366004611e31565b6105f0565b6040516001600160a01b0390911681526020016101bc565b34801561022b57600080fd5b5061023f61023a366004611e66565b61069b565b005b61023f61024f366004611e31565b6107cd565b34801561026057600080fd5b5061023f61026f366004611e90565b610896565b61023f61091d565b34801561028857600080fd5b5061023f610297366004611e90565b6109c7565b3480156102a857600080fd5b506102076102b7366004611e31565b6109e2565b3480156102c857600080fd5b5061023f6102d7366004611e31565b610a6d565b3480156102e857600080fd5b506102fc6102f7366004611ecc565b610acc565b6040519081526020016101bc565b34801561031657600080fd5b5061023f610b66565b34801561032b57600080fd5b5061023f61033a366004611e31565b610bcc565b34801561034b57600080fd5b506006546001600160a01b0316610207565b34801561036957600080fd5b5061037d610378366004611e31565b610c2b565b6040516101bc959493929190611ee7565b34801561039a57600080fd5b506101da610d01565b3480156103af57600080fd5b506103c36103be366004611ecc565b610d10565b6040516101bc9190611f21565b3480156103dc57600080fd5b5061023f6103eb366004611fbf565b610f08565b61023f6103fe3660046120a7565b610f13565b34801561040f57600080fd5b5061023f61041e36600461210b565b610f6f565b34801561042f57600080fd5b506101da61043e366004611e31565b610ffd565b34801561044f57600080fd5b506101b061045e366004612187565b6001600160a01b03918216600090815260056020908152604080832093909416825291909152205460ff1690565b34801561049857600080fd5b5061023f6104a7366004611ecc565b6110c0565b3480156104b857600080fd5b506103c36111a2565b60006001600160e01b031982167f80ac58cd00000000000000000000000000000000000000000000000000000000148061052457506001600160e01b031982167f5b5e139f00000000000000000000000000000000000000000000000000000000145b8061055857507f01ffc9a7000000000000000000000000000000000000000000000000000000006001600160e01b03198316145b92915050565b60606000805461056d906121ba565b80601f0160208091040260200160405190810160405280929190818152602001828054610599906121ba565b80156105e65780601f106105bb576101008083540402835291602001916105e6565b820191906000526020600020905b8154815290600101906020018083116105c957829003601f168201915b5050505050905090565b6000818152600260205260408120546001600160a01b031661067f5760405162461bcd60e51b815260206004820152602c60248201527f4552433732313a20617070726f76656420717565727920666f72206e6f6e657860448201527f697374656e7420746f6b656e000000000000000000000000000000000000000060648201526084015b60405180910390fd5b506000908152600460205260409020546001600160a01b031690565b60006106a6826109e2565b9050806001600160a01b0316836001600160a01b031614156107305760405162461bcd60e51b815260206004820152602160248201527f4552433732313a20617070726f76616c20746f2063757272656e74206f776e6560448201527f72000000000000000000000000000000000000000000000000000000000000006064820152608401610676565b336001600160a01b038216148061074c575061074c813361045e565b6107be5760405162461bcd60e51b815260206004820152603860248201527f4552433732313a20617070726f76652063616c6c6572206973206e6f74206f7760448201527f6e6572206e6f7220617070726f76656420666f7220616c6c00000000000000006064820152608401610676565b6107c883836112c8565b505050565b60095434101561081f5760405162461bcd60e51b815260206004820152601360248201527f496e73756666696369656e742066756e64732e000000000000000000000000006044820152606401610676565b33610829826109e2565b6001600160a01b03161461083c57600080fd5b6000600b8281548110610851576108516121f5565b6000918252602082206003600490920201908101805491935060ff9091169161087983612221565b91906101000a81548160ff021916908360ff160217905550505050565b6108a03382611343565b6109125760405162461bcd60e51b815260206004820152603160248201527f4552433732313a207472616e736665722063616c6c6572206973206e6f74206f60448201527f776e6572206e6f7220617070726f7665640000000000000000000000000000006064820152608401610676565b6107c883838361144b565b6006546001600160a01b031633146109775760405162461bcd60e51b815260206004820181905260248201527f4f776e61626c653a2063616c6c6572206973206e6f7420746865206f776e65726044820152606401610676565b600061098b6006546001600160a01b031690565b6040519091506001600160a01b038216904780156108fc02916000818181858888f193505050501580156109c3573d6000803e3d6000fd5b5050565b6107c883838360405180602001604052806000815250610f6f565b6000818152600260205260408120546001600160a01b0316806105585760405162461bcd60e51b815260206004820152602960248201527f4552433732313a206f776e657220717565727920666f72206e6f6e657869737460448201527f656e7420746f6b656e00000000000000000000000000000000000000000000006064820152608401610676565b6006546001600160a01b03163314610ac75760405162461bcd60e51b815260206004820181905260248201527f4f776e61626c653a2063616c6c6572206973206e6f7420746865206f776e65726044820152606401610676565b600955565b60006001600160a01b038216610b4a5760405162461bcd60e51b815260206004820152602a60248201527f4552433732313a2062616c616e636520717565727920666f7220746865207a6560448201527f726f2061646472657373000000000000000000000000000000000000000000006064820152608401610676565b506001600160a01b031660009081526003602052604090205490565b6006546001600160a01b03163314610bc05760405162461bcd60e51b815260206004820181905260248201527f4f776e61626c653a2063616c6c6572206973206e6f7420746865206f776e65726044820152606401610676565b610bca6000611625565b565b6006546001600160a01b03163314610c265760405162461bcd60e51b815260206004820181905260248201527f4f776e61626c653a2063616c6c6572206973206e6f7420746865206f776e65726044820152606401610676565b600855565b600b8181548110610c3b57600080fd5b9060005260206000209060040201600091509050806000018054610c5e906121ba565b80601f0160208091040260200160405190810160405280929190818152602001828054610c8a906121ba565b8015610cd75780601f10610cac57610100808354040283529160200191610cd7565b820191906000526020600020905b815481529060010190602001808311610cba57829003601f168201915b50505050600183015460028401546003909401549293909290915060ff8082169161010090041685565b60606001805461056d906121ba565b60606000610d1d83610acc565b67ffffffffffffffff811115610d3557610d35611ffb565b604051908082528060200260200182016040528015610d9e57816020015b610d8b6040518060a00160405280606081526020016000815260200160008152602001600060ff168152602001600060ff1681525090565b815260200190600190039081610d535790505b5090506000805b600b54811015610eff57846001600160a01b0316610dc2826109e2565b6001600160a01b03161415610eed57600b8181548110610de457610de46121f5565b90600052602060002090600402016040518060a0016040529081600082018054610e0d906121ba565b80601f0160208091040260200160405190810160405280929190818152602001828054610e39906121ba565b8015610e865780601f10610e5b57610100808354040283529160200191610e86565b820191906000526020600020905b815481529060010190602001808311610e6957829003601f168201915b5050509183525050600182015460208201526002820154604082015260039091015460ff8082166060840152610100909104166080909101528351849084908110610ed357610ed36121f5565b60200260200101819052508180610ee990612241565b9250505b80610ef781612241565b915050610da5565b50909392505050565b6109c3338383611684565b600854341015610f655760405162461bcd60e51b815260206004820152601360248201527f496e73756666696369656e742066756e64732e000000000000000000000000006044820152606401610676565b6109c38282611753565b610f793383611343565b610feb5760405162461bcd60e51b815260206004820152603160248201527f4552433732313a207472616e736665722063616c6c6572206973206e6f74206f60448201527f776e6572206e6f7220617070726f7665640000000000000000000000000000006064820152608401610676565b610ff7848484846118a8565b50505050565b6000818152600260205260409020546060906001600160a01b031661102157600080fd5b6000828152600a60205260408120805461103a906121ba565b80601f0160208091040260200160405190810160405280929190818152602001828054611066906121ba565b80156110b35780601f10611088576101008083540402835291602001916110b3565b820191906000526020600020905b81548152906001019060200180831161109657829003601f168201915b5093979650505050505050565b6006546001600160a01b0316331461111a5760405162461bcd60e51b815260206004820181905260248201527f4f776e61626c653a2063616c6c6572206973206e6f7420746865206f776e65726044820152606401610676565b6001600160a01b0381166111965760405162461bcd60e51b815260206004820152602660248201527f4f776e61626c653a206e6577206f776e657220697320746865207a65726f206160448201527f64647265737300000000000000000000000000000000000000000000000000006064820152608401610676565b61119f81611625565b50565b6060600b805480602002602001604051908101604052809291908181526020016000905b828210156112bf57838290600052602060002090600402016040518060a00160405290816000820180546111f9906121ba565b80601f0160208091040260200160405190810160405280929190818152602001828054611225906121ba565b80156112725780601f1061124757610100808354040283529160200191611272565b820191906000526020600020905b81548152906001019060200180831161125557829003601f168201915b50505091835250506001828101546020808401919091526002840154604084015260039093015460ff808216606085015261010090910416608090920191909152918352920191016111c6565b50505050905090565b6000818152600460205260409020805473ffffffffffffffffffffffffffffffffffffffff19166001600160a01b038416908117909155819061130a826109e2565b6001600160a01b03167f8c5be1e5ebec7d5bd14f71427d1e84f3dd0314c0f7b2291e5b200ac8c7c3b92560405160405180910390a45050565b6000818152600260205260408120546001600160a01b03166113cd5760405162461bcd60e51b815260206004820152602c60248201527f4552433732313a206f70657261746f7220717565727920666f72206e6f6e657860448201527f697374656e7420746f6b656e00000000000000000000000000000000000000006064820152608401610676565b60006113d8836109e2565b9050806001600160a01b0316846001600160a01b031614806114135750836001600160a01b0316611408846105f0565b6001600160a01b0316145b8061144357506001600160a01b0380821660009081526005602090815260408083209388168352929052205460ff165b949350505050565b826001600160a01b031661145e826109e2565b6001600160a01b0316146114da5760405162461bcd60e51b815260206004820152602960248201527f4552433732313a207472616e73666572206f6620746f6b656e2074686174206960448201527f73206e6f74206f776e00000000000000000000000000000000000000000000006064820152608401610676565b6001600160a01b0382166115555760405162461bcd60e51b8152602060048201526024808201527f4552433732313a207472616e7366657220746f20746865207a65726f2061646460448201527f72657373000000000000000000000000000000000000000000000000000000006064820152608401610676565b6115606000826112c8565b6001600160a01b038316600090815260036020526040812080546001929061158990849061225c565b90915550506001600160a01b03821660009081526003602052604081208054600192906115b7908490612273565b9091555050600081815260026020526040808220805473ffffffffffffffffffffffffffffffffffffffff19166001600160a01b0386811691821790925591518493918716917fddf252ad1be2c89b69c2b068fc378daa952ba7f163c4a11628f55a4df523b3ef91a4505050565b600680546001600160a01b0383811673ffffffffffffffffffffffffffffffffffffffff19831681179093556040519116919082907f8be0079c531659141344cd1fd0a4f28419497f9722a3daafe3b4186f6b6457e090600090a35050565b816001600160a01b0316836001600160a01b031614156116e65760405162461bcd60e51b815260206004820152601960248201527f4552433732313a20617070726f766520746f2063616c6c6572000000000000006044820152606401610676565b6001600160a01b03838116600081815260056020908152604080832094871680845294825291829020805460ff191686151590811790915591519182527f17307eab39ab6107e8899845ad3d59bd9653f200f220920489ca2b5937696c31910160405180910390a3505050565b600061175f6064611931565b90506000611773662386f26fc10000611931565b6040805160a08101825286815260075460208083019190915291810183905260016060820181905260ff86166080830152600b80549182018155600052815180519495509193849360049092027f0175b7a638427703f0dbe7bb9bbf987a2551717b34e79f33b5b1008d1fa01db901926117f1928492910190611d05565b50602082015160018201556040820151600282015560608201516003909101805460809093015160ff9081166101000261ffff199094169216919091179190911790556007546118429033906119a0565b61184e600754856119ba565b600754604080519182526020820184905233917f9a1def4172ad24b7eb7331292bdfc9823479b46378644baf3c2f8a77df6e81fe910160405180910390a26007805490600061189c83612241565b91905055505050505050565b6118b384848461144b565b6118bf848484846119d9565b610ff75760405162461bcd60e51b815260206004820152603260248201527f4552433732313a207472616e7366657220746f206e6f6e20455243373231526560448201527f63656976657220696d706c656d656e74657200000000000000000000000000006064820152608401610676565b600080423360405160200161197592919091825260601b7fffffffffffffffffffffffffffffffffffffffff00000000000000000000000016602082015260340190565b60408051601f1981840301815291905280516020909101209050611999838261228b565b9392505050565b6109c3828260405180602001604052806000815250611b2d565b6000828152600a6020908152604090912082516107c892840190611d05565b60006001600160a01b0384163b15611b2257604051630a85bd0160e11b81526001600160a01b0385169063150b7a0290611a1d9033908990889088906004016122ad565b6020604051808303816000875af1925050508015611a58575060408051601f3d908101601f19168201909252611a55918101906122e9565b60015b611b08573d808015611a86576040519150601f19603f3d011682016040523d82523d6000602084013e611a8b565b606091505b508051611b005760405162461bcd60e51b815260206004820152603260248201527f4552433732313a207472616e7366657220746f206e6f6e20455243373231526560448201527f63656976657220696d706c656d656e74657200000000000000000000000000006064820152608401610676565b805181602001fd5b6001600160e01b031916630a85bd0160e11b149050611443565b506001949350505050565b611b378383611bb6565b611b4460008484846119d9565b6107c85760405162461bcd60e51b815260206004820152603260248201527f4552433732313a207472616e7366657220746f206e6f6e20455243373231526560448201527f63656976657220696d706c656d656e74657200000000000000000000000000006064820152608401610676565b6001600160a01b038216611c0c5760405162461bcd60e51b815260206004820181905260248201527f4552433732313a206d696e7420746f20746865207a65726f20616464726573736044820152606401610676565b6000818152600260205260409020546001600160a01b031615611c715760405162461bcd60e51b815260206004820152601c60248201527f4552433732313a20746f6b656e20616c7265616479206d696e746564000000006044820152606401610676565b6001600160a01b0382166000908152600360205260408120805460019290611c9a908490612273565b9091555050600081815260026020526040808220805473ffffffffffffffffffffffffffffffffffffffff19166001600160a01b03861690811790915590518392907fddf252ad1be2c89b69c2b068fc378daa952ba7f163c4a11628f55a4df523b3ef908290a45050565b828054611d11906121ba565b90600052602060002090601f016020900481019282611d335760008555611d79565b82601f10611d4c57805160ff1916838001178555611d79565b82800160010185558215611d79579182015b82811115611d79578251825591602001919060010190611d5e565b50611d85929150611d89565b5090565b5b80821115611d855760008155600101611d8a565b6001600160e01b03198116811461119f57600080fd5b600060208284031215611dc657600080fd5b813561199981611d9e565b6000815180845260005b81811015611df757602081850181015186830182015201611ddb565b81811115611e09576000602083870101525b50601f01601f19169290920160200192915050565b6020815260006119996020830184611dd1565b600060208284031215611e4357600080fd5b5035919050565b80356001600160a01b0381168114611e6157600080fd5b919050565b60008060408385031215611e7957600080fd5b611e8283611e4a565b946020939093013593505050565b600080600060608486031215611ea557600080fd5b611eae84611e4a565b9250611ebc60208501611e4a565b9150604084013590509250925092565b600060208284031215611ede57600080fd5b61199982611e4a565b60a081526000611efa60a0830188611dd1565b602083019690965250604081019390935260ff918216606084015216608090910152919050565b60006020808301818452808551808352604092508286019150828160051b87010184880160005b83811015611fb157603f19898403018552815160a08151818652611f6e82870182611dd1565b838b0151878c0152898401518a88015260608085015160ff9081169189019190915260809485015116939096019290925250509386019390860190600101611f48565b509098975050505050505050565b60008060408385031215611fd257600080fd5b611fdb83611e4a565b915060208301358015158114611ff057600080fd5b809150509250929050565b634e487b7160e01b600052604160045260246000fd5b600067ffffffffffffffff8084111561202c5761202c611ffb565b604051601f8501601f19908116603f0116810190828211818310171561205457612054611ffb565b8160405280935085815286868601111561206d57600080fd5b858560208301376000602087830101525050509392505050565b600082601f83011261209857600080fd5b61199983833560208501612011565b600080604083850312156120ba57600080fd5b823567ffffffffffffffff808211156120d257600080fd5b6120de86838701612087565b935060208501359150808211156120f457600080fd5b5061210185828601612087565b9150509250929050565b6000806000806080858703121561212157600080fd5b61212a85611e4a565b935061213860208601611e4a565b925060408501359150606085013567ffffffffffffffff81111561215b57600080fd5b8501601f8101871361216c57600080fd5b61217b87823560208401612011565b91505092959194509250565b6000806040838503121561219a57600080fd5b6121a383611e4a565b91506121b160208401611e4a565b90509250929050565b600181811c908216806121ce57607f821691505b602082108114156121ef57634e487b7160e01b600052602260045260246000fd5b50919050565b634e487b7160e01b600052603260045260246000fd5b634e487b7160e01b600052601160045260246000fd5b600060ff821660ff8114156122385761223861220b565b60010192915050565b60006000198214156122555761225561220b565b5060010190565b60008282101561226e5761226e61220b565b500390565b600082198211156122865761228661220b565b500190565b6000826122a857634e487b7160e01b600052601260045260246000fd5b500690565b60006001600160a01b038087168352808616602084015250836040830152608060608301526122df6080830184611dd1565b9695505050505050565b6000602082840312156122fb57600080fd5b815161199981611d9e56fea26469706673582212208b25cb957dbd4797855e05f042d7a07f7a46440387fc2dcf211c2b994a37d41764736f6c634300080b0033",
  "immutableReferences": {},
  "source": "// SPDX-License-Identifier: MIT\r\n\r\npragma solidity ^0.8.0;\r\n\r\nimport \"@openzeppelin/contracts/token/ERC721/ERC721.sol\";\r\n\r\nimport \"@openzeppelin/contracts/access/Ownable.sol\";\r\n\r\ncontract SeekerToken is ERC721, Ownable {\r\n    uint256 COUNTER = 0;\r\n    uint256 mintFee = 0.01 ether;\r\n    uint256 levelUpFee = 0.001 ether;\r\n\r\n    struct Seeker {\r\n        string name;\r\n        uint256 id;\r\n        uint256 dna;\r\n        uint8 level;\r\n        uint8 rarity;\r\n    }\r\n\r\n    mapping(uint256 => string) tokenURIs;\r\n\r\n    function _setTokenURI(uint256 _tokenId, string memory _tokenURI) internal {\r\n        tokenURIs[_tokenId] = _tokenURI;\r\n    }\r\n\r\n    function tokenURI(uint256 _tokenId)\r\n        public\r\n        view\r\n        virtual\r\n        override\r\n        returns (string memory)\r\n    {\r\n        require(_exists(_tokenId));\r\n        string memory _tokenURI = tokenURIs[_tokenId];\r\n        return _tokenURI;\r\n    }\r\n\r\n    Seeker[] public seekers;\r\n    event NewSeeker(address indexed owner, uint256 id, uint256 dna);\r\n\r\n    constructor(string memory _name, string memory _symbol)\r\n        ERC721(_name, _symbol)\r\n    {}\r\n\r\n    // Helpers\r\n    function _createRandomNum(uint256 _mod) internal view returns (uint256) {\r\n        uint256 randomNum = uint256(\r\n            keccak256(abi.encodePacked(block.timestamp, msg.sender))\r\n        );\r\n        return randomNum % _mod;\r\n    }\r\n\r\n    function updateMintFee(uint256 newFee) external onlyOwner {\r\n        mintFee = newFee;\r\n    }\r\n\r\n    function updateLevelUpFee(uint256 newFee) external onlyOwner {\r\n        levelUpFee = newFee;\r\n    }\r\n\r\n    // Creation\r\n    function _createSeeker(string memory _name, string memory _uri) internal {\r\n        uint8 randRarity = uint8(_createRandomNum(100));\r\n        uint256 randDna = _createRandomNum(10**16);\r\n\r\n        Seeker memory newSeeker = Seeker(_name, COUNTER, randDna, 1, randRarity);\r\n        seekers.push(newSeeker);\r\n        _safeMint(msg.sender, COUNTER);\r\n        _setTokenURI(COUNTER, _uri);\r\n        emit NewSeeker(msg.sender, COUNTER, randDna);\r\n        COUNTER++;\r\n    }\r\n\r\n    function createRandomSeeker(string memory _name, string memory _uri)\r\n        public\r\n        payable\r\n    {\r\n        require(msg.value >= mintFee, \"Insufficient funds.\");\r\n        _createSeeker(_name, _uri);\r\n    }\r\n\r\n    // Getters\r\n    function getSeekers() public view returns (Seeker[] memory) {\r\n        return seekers;\r\n    }\r\n\r\n    function getOwnerSeekers(address _owner)\r\n        public\r\n        view\r\n        returns (Seeker[] memory)\r\n    {\r\n        Seeker[] memory result = new Seeker[](balanceOf(_owner));\r\n        uint256 counter = 0;\r\n        for (uint256 i = 0; i < seekers.length; i++) {\r\n            if (ownerOf(i) == _owner) {\r\n                result[counter] = seekers[i];\r\n                counter++;\r\n            }\r\n        }\r\n        return result;\r\n    }\r\n\r\n    function withdraw() external payable onlyOwner {\r\n        address _owner = owner();\r\n        payable(_owner).transfer(address(this).balance);\r\n    }\r\n\r\n    //actions\r\n    function levelUp(uint256 _seekerId) public payable {\r\n        require(msg.value >= levelUpFee, \"Insufficient funds.\");\r\n\r\n        require(ownerOf(_seekerId) == msg.sender);\r\n        Seeker storage seeker = seekers[_seekerId];\r\n        seeker.level++;\r\n    }\r\n}\r\n",
  "sourcePath": "C:\\Users\\dsita\\Desktop\\i-am-dapp\\contracts\\SeekerToken.sol",
  "compiler": {
    "name": "solc",
    "version": "0.8.11+commit.d7f03943.Emscripten.clang"
  },
  "schemaVersion": "3.4.4",
  "updatedAt": "2022-01-29T23:04:23.312Z",
  "networkType": "ethereum",
  "devdoc": {
    "kind": "dev",
    "methods": {
      "approve(address,uint256)": {
        "details": "See {IERC721-approve}."
      },
      "balanceOf(address)": {
        "details": "See {IERC721-balanceOf}."
      },
      "getApproved(uint256)": {
        "details": "See {IERC721-getApproved}."
      },
      "isApprovedForAll(address,address)": {
        "details": "See {IERC721-isApprovedForAll}."
      },
      "name()": {
        "details": "See {IERC721Metadata-name}."
      },
      "owner()": {
        "details": "Returns the address of the current owner."
      },
      "ownerOf(uint256)": {
        "details": "See {IERC721-ownerOf}."
      },
      "renounceOwnership()": {
        "details": "Leaves the contract without owner. It will not be possible to call `onlyOwner` functions anymore. Can only be called by the current owner. NOTE: Renouncing ownership will leave the contract without an owner, thereby removing any functionality that is only available to the owner."
      },
      "safeTransferFrom(address,address,uint256)": {
        "details": "See {IERC721-safeTransferFrom}."
      },
      "safeTransferFrom(address,address,uint256,bytes)": {
        "details": "See {IERC721-safeTransferFrom}."
      },
      "setApprovalForAll(address,bool)": {
        "details": "See {IERC721-setApprovalForAll}."
      },
      "supportsInterface(bytes4)": {
        "details": "See {IERC165-supportsInterface}."
      },
      "symbol()": {
        "details": "See {IERC721Metadata-symbol}."
      },
      "transferFrom(address,address,uint256)": {
        "details": "See {IERC721-transferFrom}."
      },
      "transferOwnership(address)": {
        "details": "Transfers ownership of the contract to a new account (`newOwner`). Can only be called by the current owner."
      }
    },
    "version": 1
  },
  "userdoc": {
    "kind": "user",
    "methods": {},
    "version": 1
  }
}