{
  "contractName": "PixelToken",
  "abi": [
    {
      "inputs": [
        {
          "internalType": "string",
          "name": "_name",
          "type": "string"
        },
        {
          "internalType": "string",
          "name": "_symbol",
          "type": "string"
        }
      ],
      "stateMutability": "nonpayable",
      "type": "constructor"
    },
    {
      "anonymous": false,
      "inputs": [
        {
          "indexed": true,
          "internalType": "address",
          "name": "owner",
          "type": "address"
        },
        {
          "indexed": true,
          "internalType": "address",
          "name": "approved",
          "type": "address"
        },
        {
          "indexed": true,
          "internalType": "uint256",
          "name": "tokenId",
          "type": "uint256"
        }
      ],
      "name": "Approval",
      "type": "event"
    },
    {
      "anonymous": false,
      "inputs": [
        {
          "indexed": true,
          "internalType": "address",
          "name": "owner",
          "type": "address"
        },
        {
          "indexed": true,
          "internalType": "address",
          "name": "operator",
          "type": "address"
        },
        {
          "indexed": false,
          "internalType": "bool",
          "name": "approved",
          "type": "bool"
        }
      ],
      "name": "ApprovalForAll",
      "type": "event"
    },
    {
      "anonymous": false,
      "inputs": [
        {
          "indexed": true,
          "internalType": "address",
          "name": "owner",
          "type": "address"
        },
        {
          "indexed": false,
          "internalType": "uint256",
          "name": "id",
          "type": "uint256"
        },
        {
          "indexed": false,
          "internalType": "uint256",
          "name": "dna",
          "type": "uint256"
        }
      ],
      "name": "NewPixel",
      "type": "event"
    },
    {
      "anonymous": false,
      "inputs": [
        {
          "indexed": true,
          "internalType": "address",
          "name": "previousOwner",
          "type": "address"
        },
        {
          "indexed": true,
          "internalType": "address",
          "name": "newOwner",
          "type": "address"
        }
      ],
      "name": "OwnershipTransferred",
      "type": "event"
    },
    {
      "anonymous": false,
      "inputs": [
        {
          "indexed": true,
          "internalType": "address",
          "name": "from",
          "type": "address"
        },
        {
          "indexed": true,
          "internalType": "address",
          "name": "to",
          "type": "address"
        },
        {
          "indexed": true,
          "internalType": "uint256",
          "name": "tokenId",
          "type": "uint256"
        }
      ],
      "name": "Transfer",
      "type": "event"
    },
    {
      "inputs": [
        {
          "internalType": "address",
          "name": "to",
          "type": "address"
        },
        {
          "internalType": "uint256",
          "name": "tokenId",
          "type": "uint256"
        }
      ],
      "name": "approve",
      "outputs": [],
      "stateMutability": "nonpayable",
      "type": "function"
    },
    {
      "inputs": [
        {
          "internalType": "address",
          "name": "owner",
          "type": "address"
        }
      ],
      "name": "balanceOf",
      "outputs": [
        {
          "internalType": "uint256",
          "name": "",
          "type": "uint256"
        }
      ],
      "stateMutability": "view",
      "type": "function",
      "constant": true
    },
    {
      "inputs": [
        {
          "internalType": "uint256",
          "name": "tokenId",
          "type": "uint256"
        }
      ],
      "name": "getApproved",
      "outputs": [
        {
          "internalType": "address",
          "name": "",
          "type": "address"
        }
      ],
      "stateMutability": "view",
      "type": "function",
      "constant": true
    },
    {
      "inputs": [
        {
          "internalType": "address",
          "name": "owner",
          "type": "address"
        },
        {
          "internalType": "address",
          "name": "operator",
          "type": "address"
        }
      ],
      "name": "isApprovedForAll",
      "outputs": [
        {
          "internalType": "bool",
          "name": "",
          "type": "bool"
        }
      ],
      "stateMutability": "view",
      "type": "function",
      "constant": true
    },
    {
      "inputs": [],
      "name": "name",
      "outputs": [
        {
          "internalType": "string",
          "name": "",
          "type": "string"
        }
      ],
      "stateMutability": "view",
      "type": "function",
      "constant": true
    },
    {
      "inputs": [],
      "name": "owner",
      "outputs": [
        {
          "internalType": "address",
          "name": "",
          "type": "address"
        }
      ],
      "stateMutability": "view",
      "type": "function",
      "constant": true
    },
    {
      "inputs": [
        {
          "internalType": "uint256",
          "name": "tokenId",
          "type": "uint256"
        }
      ],
      "name": "ownerOf",
      "outputs": [
        {
          "internalType": "address",
          "name": "",
          "type": "address"
        }
      ],
      "stateMutability": "view",
      "type": "function",
      "constant": true
    },
    {
      "inputs": [
        {
          "internalType": "uint256",
          "name": "",
          "type": "uint256"
        }
      ],
      "name": "pixels",
      "outputs": [
        {
          "internalType": "string",
          "name": "name",
          "type": "string"
        },
        {
          "internalType": "uint256",
          "name": "id",
          "type": "uint256"
        },
        {
          "internalType": "uint256",
          "name": "dna",
          "type": "uint256"
        },
        {
          "internalType": "uint8",
          "name": "level",
          "type": "uint8"
        },
        {
          "internalType": "uint8",
          "name": "rarity",
          "type": "uint8"
        },
        {
          "internalType": "address",
          "name": "owner",
          "type": "address"
        }
      ],
      "stateMutability": "view",
      "type": "function",
      "constant": true
    },
    {
      "inputs": [],
      "name": "renounceOwnership",
      "outputs": [],
      "stateMutability": "nonpayable",
      "type": "function"
    },
    {
      "inputs": [
        {
          "internalType": "address",
          "name": "from",
          "type": "address"
        },
        {
          "internalType": "address",
          "name": "to",
          "type": "address"
        },
        {
          "internalType": "uint256",
          "name": "tokenId",
          "type": "uint256"
        }
      ],
      "name": "safeTransferFrom",
      "outputs": [],
      "stateMutability": "nonpayable",
      "type": "function"
    },
    {
      "inputs": [
        {
          "internalType": "address",
          "name": "from",
          "type": "address"
        },
        {
          "internalType": "address",
          "name": "to",
          "type": "address"
        },
        {
          "internalType": "uint256",
          "name": "tokenId",
          "type": "uint256"
        },
        {
          "internalType": "bytes",
          "name": "_data",
          "type": "bytes"
        }
      ],
      "name": "safeTransferFrom",
      "outputs": [],
      "stateMutability": "nonpayable",
      "type": "function"
    },
    {
      "inputs": [
        {
          "internalType": "address",
          "name": "operator",
          "type": "address"
        },
        {
          "internalType": "bool",
          "name": "approved",
          "type": "bool"
        }
      ],
      "name": "setApprovalForAll",
      "outputs": [],
      "stateMutability": "nonpayable",
      "type": "function"
    },
    {
      "inputs": [
        {
          "internalType": "bytes4",
          "name": "interfaceId",
          "type": "bytes4"
        }
      ],
      "name": "supportsInterface",
      "outputs": [
        {
          "internalType": "bool",
          "name": "",
          "type": "bool"
        }
      ],
      "stateMutability": "view",
      "type": "function",
      "constant": true
    },
    {
      "inputs": [],
      "name": "symbol",
      "outputs": [
        {
          "internalType": "string",
          "name": "",
          "type": "string"
        }
      ],
      "stateMutability": "view",
      "type": "function",
      "constant": true
    },
    {
      "inputs": [
        {
          "internalType": "uint256",
          "name": "tokenId",
          "type": "uint256"
        }
      ],
      "name": "tokenURI",
      "outputs": [
        {
          "internalType": "string",
          "name": "",
          "type": "string"
        }
      ],
      "stateMutability": "view",
      "type": "function",
      "constant": true
    },
    {
      "inputs": [
        {
          "internalType": "address",
          "name": "from",
          "type": "address"
        },
        {
          "internalType": "address",
          "name": "to",
          "type": "address"
        },
        {
          "internalType": "uint256",
          "name": "tokenId",
          "type": "uint256"
        }
      ],
      "name": "transferFrom",
      "outputs": [],
      "stateMutability": "nonpayable",
      "type": "function"
    },
    {
      "inputs": [
        {
          "internalType": "address",
          "name": "newOwner",
          "type": "address"
        }
      ],
      "name": "transferOwnership",
      "outputs": [],
      "stateMutability": "nonpayable",
      "type": "function"
    },
    {
      "inputs": [
        {
          "internalType": "uint256",
          "name": "newFee",
          "type": "uint256"
        }
      ],
      "name": "updateFee",
      "outputs": [],
      "stateMutability": "nonpayable",
      "type": "function"
    },
    {
      "inputs": [
        {
          "internalType": "string",
          "name": "_name",
          "type": "string"
        }
      ],
      "name": "createRandomPixel",
      "outputs": [],
      "stateMutability": "payable",
      "type": "function",
      "payable": true
    },
    {
      "inputs": [],
      "name": "getPixels",
      "outputs": [
        {
          "components": [
            {
              "internalType": "string",
              "name": "name",
              "type": "string"
            },
            {
              "internalType": "uint256",
              "name": "id",
              "type": "uint256"
            },
            {
              "internalType": "uint256",
              "name": "dna",
              "type": "uint256"
            },
            {
              "internalType": "uint8",
              "name": "level",
              "type": "uint8"
            },
            {
              "internalType": "uint8",
              "name": "rarity",
              "type": "uint8"
            },
            {
              "internalType": "address",
              "name": "owner",
              "type": "address"
            }
          ],
          "internalType": "struct PixelToken.Pixel[]",
          "name": "",
          "type": "tuple[]"
        }
      ],
      "stateMutability": "view",
      "type": "function",
      "constant": true
    },
    {
      "inputs": [
        {
          "internalType": "address",
          "name": "_owner",
          "type": "address"
        }
      ],
      "name": "getOwnerPixels",
      "outputs": [
        {
          "components": [
            {
              "internalType": "string",
              "name": "name",
              "type": "string"
            },
            {
              "internalType": "uint256",
              "name": "id",
              "type": "uint256"
            },
            {
              "internalType": "uint256",
              "name": "dna",
              "type": "uint256"
            },
            {
              "internalType": "uint8",
              "name": "level",
              "type": "uint8"
            },
            {
              "internalType": "uint8",
              "name": "rarity",
              "type": "uint8"
            },
            {
              "internalType": "address",
              "name": "owner",
              "type": "address"
            }
          ],
          "internalType": "struct PixelToken.Pixel[]",
          "name": "",
          "type": "tuple[]"
        }
      ],
      "stateMutability": "view",
      "type": "function",
      "constant": true
    },
    {
      "inputs": [],
      "name": "withdraw",
      "outputs": [],
      "stateMutability": "payable",
      "type": "function",
      "payable": true
    },
    {
      "inputs": [
        {
          "internalType": "uint256",
          "name": "_pixelId",
          "type": "uint256"
        }
      ],
      "name": "levelUp",
      "outputs": [],
      "stateMutability": "nonpayable",
      "type": "function"
    }
  ],
  "bytecode": "0x60806040526000600755670de0b6b3a76400006008553480156200002257600080fd5b506040516200276238038062002762833981016040819052620000459162000262565b8151829082906200005e906000906020850190620000ef565b50805162000074906001906020840190620000ef565b505050620000916200008b6200009960201b60201c565b6200009d565b505062000309565b3390565b600680546001600160a01b038381166001600160a01b0319831681179093556040519116919082907f8be0079c531659141344cd1fd0a4f28419497f9722a3daafe3b4186f6b6457e090600090a35050565b828054620000fd90620002cc565b90600052602060002090601f0160209004810192826200012157600085556200016c565b82601f106200013c57805160ff19168380011785556200016c565b828001600101855582156200016c579182015b828111156200016c5782518255916020019190600101906200014f565b506200017a9291506200017e565b5090565b5b808211156200017a57600081556001016200017f565b634e487b7160e01b600052604160045260246000fd5b600082601f830112620001bd57600080fd5b81516001600160401b0380821115620001da57620001da62000195565b604051601f8301601f19908116603f0116810190828211818310171562000205576200020562000195565b816040528381526020925086838588010111156200022257600080fd5b600091505b8382101562000246578582018301518183018401529082019062000227565b83821115620002585760008385830101525b9695505050505050565b600080604083850312156200027657600080fd5b82516001600160401b03808211156200028e57600080fd5b6200029c86838701620001ab565b93506020850151915080821115620002b357600080fd5b50620002c285828601620001ab565b9150509250929050565b600181811c90821680620002e157607f821691505b602082108114156200030357634e487b7160e01b600052602260045260246000fd5b50919050565b61244980620003196000396000f3fe6080604052600436106101805760003560e01c80638da5cb5b116100d6578063b88d4fde1161007f578063e985e9c511610059578063e985e9c514610426578063f2fde38b1461046f578063feeac6191461048f57600080fd5b8063b88d4fde146103d3578063c68d5163146103f3578063c87b56dd1461040657600080fd5b806395d89b41116100b057806395d89b41146103715780639a41d3c914610386578063a22cb465146103b357600080fd5b80638da5cb5b146103015780638da7f2321461031f5780639012c4a81461035157600080fd5b806323b872dd116101385780636352211e116101125780636352211e1461029e57806370a08231146102be578063715018a6146102ec57600080fd5b806323b872dd146102565780633ccfd60b1461027657806342842e0e1461027e57600080fd5b8063081812fc11610169578063081812fc146101dc578063095ea7b3146102145780630ce90ec21461023657600080fd5b806301ffc9a71461018557806306fdde03146101ba575b600080fd5b34801561019157600080fd5b506101a56101a0366004611e82565b6104a4565b60405190151581526020015b60405180910390f35b3480156101c657600080fd5b506101cf610541565b6040516101b19190611ef7565b3480156101e857600080fd5b506101fc6101f7366004611f0a565b6105d3565b6040516001600160a01b0390911681526020016101b1565b34801561022057600080fd5b5061023461022f366004611f3f565b61067e565b005b34801561024257600080fd5b50610234610251366004611f0a565b6107b0565b34801561026257600080fd5b50610234610271366004611f69565b610827565b6102346108ae565b34801561028a57600080fd5b50610234610299366004611f69565b610958565b3480156102aa57600080fd5b506101fc6102b9366004611f0a565b610973565b3480156102ca57600080fd5b506102de6102d9366004611fa5565b6109fe565b6040519081526020016101b1565b3480156102f857600080fd5b50610234610a98565b34801561030d57600080fd5b506006546001600160a01b03166101fc565b34801561032b57600080fd5b5061033f61033a366004611f0a565b610afe565b6040516101b196959493929190611fc0565b34801561035d57600080fd5b5061023461036c366004611f0a565b610be5565b34801561037d57600080fd5b506101cf610c44565b34801561039257600080fd5b506103a66103a1366004611fa5565b610c53565b6040516101b19190612009565b3480156103bf57600080fd5b506102346103ce3660046120bc565b610e56565b3480156103df57600080fd5b506102346103ee366004612184565b610e61565b610234610401366004612200565b610eef565b34801561041257600080fd5b506101cf610421366004611f0a565b610f4d565b34801561043257600080fd5b506101a5610441366004612249565b6001600160a01b03918216600090815260056020908152604080832093909416825291909152205460ff1690565b34801561047b57600080fd5b5061023461048a366004611fa5565b611043565b34801561049b57600080fd5b506103a6611122565b60006001600160e01b031982167f80ac58cd00000000000000000000000000000000000000000000000000000000148061050757506001600160e01b031982167f5b5e139f00000000000000000000000000000000000000000000000000000000145b8061053b57507f01ffc9a7000000000000000000000000000000000000000000000000000000006001600160e01b03198316145b92915050565b6060600080546105509061227c565b80601f016020809104026020016040519081016040528092919081815260200182805461057c9061227c565b80156105c95780601f1061059e576101008083540402835291602001916105c9565b820191906000526020600020905b8154815290600101906020018083116105ac57829003601f168201915b5050505050905090565b6000818152600260205260408120546001600160a01b03166106625760405162461bcd60e51b815260206004820152602c60248201527f4552433732313a20617070726f76656420717565727920666f72206e6f6e657860448201527f697374656e7420746f6b656e000000000000000000000000000000000000000060648201526084015b60405180910390fd5b506000908152600460205260409020546001600160a01b031690565b600061068982610973565b9050806001600160a01b0316836001600160a01b031614156107135760405162461bcd60e51b815260206004820152602160248201527f4552433732313a20617070726f76616c20746f2063757272656e74206f776e6560448201527f72000000000000000000000000000000000000000000000000000000000000006064820152608401610659565b336001600160a01b038216148061072f575061072f8133610441565b6107a15760405162461bcd60e51b815260206004820152603860248201527f4552433732313a20617070726f76652063616c6c6572206973206e6f74206f7760448201527f6e6572206e6f7220617070726f76656420666f7220616c6c00000000000000006064820152608401610659565b6107ab838361125b565b505050565b336107ba82610973565b6001600160a01b0316146107cd57600080fd5b6000600982815481106107e2576107e26122b7565b6000918252602082206003600490920201908101805491935060ff9091169161080a836122e3565b91906101000a81548160ff021916908360ff160217905550505050565b61083133826112d6565b6108a35760405162461bcd60e51b815260206004820152603160248201527f4552433732313a207472616e736665722063616c6c6572206973206e6f74206f60448201527f776e6572206e6f7220617070726f7665640000000000000000000000000000006064820152608401610659565b6107ab8383836113de565b6006546001600160a01b031633146109085760405162461bcd60e51b815260206004820181905260248201527f4f776e61626c653a2063616c6c6572206973206e6f7420746865206f776e65726044820152606401610659565b600061091c6006546001600160a01b031690565b6040519091506001600160a01b038216904780156108fc02916000818181858888f19350505050158015610954573d6000803e3d6000fd5b5050565b6107ab83838360405180602001604052806000815250610e61565b6000818152600260205260408120546001600160a01b03168061053b5760405162461bcd60e51b815260206004820152602960248201527f4552433732313a206f776e657220717565727920666f72206e6f6e657869737460448201527f656e7420746f6b656e00000000000000000000000000000000000000000000006064820152608401610659565b60006001600160a01b038216610a7c5760405162461bcd60e51b815260206004820152602a60248201527f4552433732313a2062616c616e636520717565727920666f7220746865207a6560448201527f726f2061646472657373000000000000000000000000000000000000000000006064820152608401610659565b506001600160a01b031660009081526003602052604090205490565b6006546001600160a01b03163314610af25760405162461bcd60e51b815260206004820181905260248201527f4f776e61626c653a2063616c6c6572206973206e6f7420746865206f776e65726044820152606401610659565b610afc60006115b8565b565b60098181548110610b0e57600080fd5b9060005260206000209060040201600091509050806000018054610b319061227c565b80601f0160208091040260200160405190810160405280929190818152602001828054610b5d9061227c565b8015610baa5780601f10610b7f57610100808354040283529160200191610baa565b820191906000526020600020905b815481529060010190602001808311610b8d57829003601f168201915b505050600184015460028501546003909501549394909390925060ff8082169250610100820416906001600160a01b03620100009091041686565b6006546001600160a01b03163314610c3f5760405162461bcd60e51b815260206004820181905260248201527f4f776e61626c653a2063616c6c6572206973206e6f7420746865206f776e65726044820152606401610659565b600855565b6060600180546105509061227c565b60606000610c60836109fe565b67ffffffffffffffff811115610c7857610c786120f8565b604051908082528060200260200182016040528015610cd957816020015b6040805160c0810182526060808252600060208084018290529383018190529082018190526080820181905260a08201528252600019909201910181610c965790505b5090506000805b600954811015610e4d57846001600160a01b0316610cfd82610973565b6001600160a01b03161415610e3b5760098181548110610d1f57610d1f6122b7565b90600052602060002090600402016040518060c0016040529081600082018054610d489061227c565b80601f0160208091040260200160405190810160405280929190818152602001828054610d749061227c565b8015610dc15780601f10610d9657610100808354040283529160200191610dc1565b820191906000526020600020905b815481529060010190602001808311610da457829003601f168201915b5050509183525050600182015460208201526002820154604082015260039091015460ff808216606084015261010082041660808301526201000090046001600160a01b031660a0909101528351849084908110610e2157610e216122b7565b60200260200101819052508180610e3790612303565b9250505b80610e4581612303565b915050610ce0565b50909392505050565b610954338383611617565b610e6b33836112d6565b610edd5760405162461bcd60e51b815260206004820152603160248201527f4552433732313a207472616e736665722063616c6c6572206973206e6f74206f60448201527f776e6572206e6f7220617070726f7665640000000000000000000000000000006064820152608401610659565b610ee9848484846116e6565b50505050565b600854341015610f415760405162461bcd60e51b815260206004820152601360248201527f496e73756666696369656e742066756e64732e000000000000000000000000006044820152606401610659565b610f4a8161176f565b50565b6000818152600260205260409020546060906001600160a01b0316610fda5760405162461bcd60e51b815260206004820152602f60248201527f4552433732314d657461646174613a2055524920717565727920666f72206e6f60448201527f6e6578697374656e7420746f6b656e00000000000000000000000000000000006064820152608401610659565b6000610ff160408051602081019091526000815290565b90506000815111611011576040518060200160405280600081525061103c565b8061101b846118f8565b60405160200161102c92919061231e565b6040516020818303038152906040525b9392505050565b6006546001600160a01b0316331461109d5760405162461bcd60e51b815260206004820181905260248201527f4f776e61626c653a2063616c6c6572206973206e6f7420746865206f776e65726044820152606401610659565b6001600160a01b0381166111195760405162461bcd60e51b815260206004820152602660248201527f4f776e61626c653a206e6577206f776e657220697320746865207a65726f206160448201527f64647265737300000000000000000000000000000000000000000000000000006064820152608401610659565b610f4a816115b8565b60606009805480602002602001604051908101604052809291908181526020016000905b8282101561125257838290600052602060002090600402016040518060c00160405290816000820180546111799061227c565b80601f01602080910402602001604051908101604052809291908181526020018280546111a59061227c565b80156111f25780601f106111c7576101008083540402835291602001916111f2565b820191906000526020600020905b8154815290600101906020018083116111d557829003601f168201915b50505091835250506001828101546020808401919091526002840154604084015260039093015460ff808216606085015261010082041660808401526201000090046001600160a01b031660a09092019190915291835292019101611146565b50505050905090565b6000818152600460205260409020805473ffffffffffffffffffffffffffffffffffffffff19166001600160a01b038416908117909155819061129d82610973565b6001600160a01b03167f8c5be1e5ebec7d5bd14f71427d1e84f3dd0314c0f7b2291e5b200ac8c7c3b92560405160405180910390a45050565b6000818152600260205260408120546001600160a01b03166113605760405162461bcd60e51b815260206004820152602c60248201527f4552433732313a206f70657261746f7220717565727920666f72206e6f6e657860448201527f697374656e7420746f6b656e00000000000000000000000000000000000000006064820152608401610659565b600061136b83610973565b9050806001600160a01b0316846001600160a01b031614806113a65750836001600160a01b031661139b846105d3565b6001600160a01b0316145b806113d657506001600160a01b0380821660009081526005602090815260408083209388168352929052205460ff165b949350505050565b826001600160a01b03166113f182610973565b6001600160a01b03161461146d5760405162461bcd60e51b815260206004820152602960248201527f4552433732313a207472616e73666572206f6620746f6b656e2074686174206960448201527f73206e6f74206f776e00000000000000000000000000000000000000000000006064820152608401610659565b6001600160a01b0382166114e85760405162461bcd60e51b8152602060048201526024808201527f4552433732313a207472616e7366657220746f20746865207a65726f2061646460448201527f72657373000000000000000000000000000000000000000000000000000000006064820152608401610659565b6114f360008261125b565b6001600160a01b038316600090815260036020526040812080546001929061151c90849061234d565b90915550506001600160a01b038216600090815260036020526040812080546001929061154a908490612364565b9091555050600081815260026020526040808220805473ffffffffffffffffffffffffffffffffffffffff19166001600160a01b0386811691821790925591518493918716917fddf252ad1be2c89b69c2b068fc378daa952ba7f163c4a11628f55a4df523b3ef91a4505050565b600680546001600160a01b0383811673ffffffffffffffffffffffffffffffffffffffff19831681179093556040519116919082907f8be0079c531659141344cd1fd0a4f28419497f9722a3daafe3b4186f6b6457e090600090a35050565b816001600160a01b0316836001600160a01b031614156116795760405162461bcd60e51b815260206004820152601960248201527f4552433732313a20617070726f766520746f2063616c6c6572000000000000006044820152606401610659565b6001600160a01b03838116600081815260056020908152604080832094871680845294825291829020805460ff191686151590811790915591519182527f17307eab39ab6107e8899845ad3d59bd9653f200f220920489ca2b5937696c31910160405180910390a3505050565b6116f18484846113de565b6116fd84848484611a2a565b610ee95760405162461bcd60e51b815260206004820152603260248201527f4552433732313a207472616e7366657220746f206e6f6e20455243373231526560448201527f63656976657220696d706c656d656e74657200000000000000000000000000006064820152608401610659565b600061177b6064611b7e565b9050600061178f662386f26fc10000611b7e565b6040805160c08101825285815260075460208083019190915291810183905260016060820181905260ff861660808301523360a0830152600980549182018155600052815180519495509193849360049092027f6e1540171b6c0c960b71a7020d9f60077f6af931a8bbf590da0223dacf75c7af0192611813928492910190611dd3565b506020820151600182015560408201516002820155606082015160039091018054608084015160a0909401516001600160a01b031662010000027fffffffffffffffffffff0000000000000000000000000000000000000000ffff60ff9586166101000261ffff199093169590941694909417179190911691909117905560075461189f903390611be6565b600754604080519182526020820184905233917f9a1def4172ad24b7eb7331292bdfc9823479b46378644baf3c2f8a77df6e81fe910160405180910390a2600780549060006118ed83612303565b919050555050505050565b60608161193857505060408051808201909152600181527f3000000000000000000000000000000000000000000000000000000000000000602082015290565b8160005b8115611962578061194c81612303565b915061195b9050600a83612392565b915061193c565b60008167ffffffffffffffff81111561197d5761197d6120f8565b6040519080825280601f01601f1916602001820160405280156119a7576020820181803683370190505b5090505b84156113d6576119bc60018361234d565b91506119c9600a866123a6565b6119d4906030612364565b60f81b8183815181106119e9576119e96122b7565b60200101907effffffffffffffffffffffffffffffffffffffffffffffffffffffffffffff1916908160001a905350611a23600a86612392565b94506119ab565b60006001600160a01b0384163b15611b7357604051630a85bd0160e11b81526001600160a01b0385169063150b7a0290611a6e9033908990889088906004016123ba565b6020604051808303816000875af1925050508015611aa9575060408051601f3d908101601f19168201909252611aa6918101906123f6565b60015b611b59573d808015611ad7576040519150601f19603f3d011682016040523d82523d6000602084013e611adc565b606091505b508051611b515760405162461bcd60e51b815260206004820152603260248201527f4552433732313a207472616e7366657220746f206e6f6e20455243373231526560448201527f63656976657220696d706c656d656e74657200000000000000000000000000006064820152608401610659565b805181602001fd5b6001600160e01b031916630a85bd0160e11b1490506113d6565b506001949350505050565b6000804233604051602001611bc292919091825260601b7fffffffffffffffffffffffffffffffffffffffff00000000000000000000000016602082015260340190565b60408051601f198184030181529190528051602090910120905061103c83826123a6565b610954828260405180602001604052806000815250611c058383611c84565b611c126000848484611a2a565b6107ab5760405162461bcd60e51b815260206004820152603260248201527f4552433732313a207472616e7366657220746f206e6f6e20455243373231526560448201527f63656976657220696d706c656d656e74657200000000000000000000000000006064820152608401610659565b6001600160a01b038216611cda5760405162461bcd60e51b815260206004820181905260248201527f4552433732313a206d696e7420746f20746865207a65726f20616464726573736044820152606401610659565b6000818152600260205260409020546001600160a01b031615611d3f5760405162461bcd60e51b815260206004820152601c60248201527f4552433732313a20746f6b656e20616c7265616479206d696e746564000000006044820152606401610659565b6001600160a01b0382166000908152600360205260408120805460019290611d68908490612364565b9091555050600081815260026020526040808220805473ffffffffffffffffffffffffffffffffffffffff19166001600160a01b03861690811790915590518392907fddf252ad1be2c89b69c2b068fc378daa952ba7f163c4a11628f55a4df523b3ef908290a45050565b828054611ddf9061227c565b90600052602060002090601f016020900481019282611e015760008555611e47565b82601f10611e1a57805160ff1916838001178555611e47565b82800160010185558215611e47579182015b82811115611e47578251825591602001919060010190611e2c565b50611e53929150611e57565b5090565b5b80821115611e535760008155600101611e58565b6001600160e01b031981168114610f4a57600080fd5b600060208284031215611e9457600080fd5b813561103c81611e6c565b60005b83811015611eba578181015183820152602001611ea2565b83811115610ee95750506000910152565b60008151808452611ee3816020860160208601611e9f565b601f01601f19169290920160200192915050565b60208152600061103c6020830184611ecb565b600060208284031215611f1c57600080fd5b5035919050565b80356001600160a01b0381168114611f3a57600080fd5b919050565b60008060408385031215611f5257600080fd5b611f5b83611f23565b946020939093013593505050565b600080600060608486031215611f7e57600080fd5b611f8784611f23565b9250611f9560208501611f23565b9150604084013590509250925092565b600060208284031215611fb757600080fd5b61103c82611f23565b60c081526000611fd360c0830189611ecb565b602083019790975250604081019490945260ff9283166060850152911660808301526001600160a01b031660a090910152919050565b60006020808301818452808551808352604092508286019150828160051b87010184880160005b838110156120ae57603f19898403018552815160c0815181865261205682870182611ecb565b838b0151878c0152898401518a88015260608085015160ff908116918901919091526080808601519091169088015260a0938401516001600160a01b0316939096019290925250509386019390860190600101612030565b509098975050505050505050565b600080604083850312156120cf57600080fd5b6120d883611f23565b9150602083013580151581146120ed57600080fd5b809150509250929050565b634e487b7160e01b600052604160045260246000fd5b600067ffffffffffffffff80841115612129576121296120f8565b604051601f8501601f19908116603f01168101908282118183101715612151576121516120f8565b8160405280935085815286868601111561216a57600080fd5b858560208301376000602087830101525050509392505050565b6000806000806080858703121561219a57600080fd5b6121a385611f23565b93506121b160208601611f23565b925060408501359150606085013567ffffffffffffffff8111156121d457600080fd5b8501601f810187136121e557600080fd5b6121f48782356020840161210e565b91505092959194509250565b60006020828403121561221257600080fd5b813567ffffffffffffffff81111561222957600080fd5b8201601f8101841361223a57600080fd5b6113d68482356020840161210e565b6000806040838503121561225c57600080fd5b61226583611f23565b915061227360208401611f23565b90509250929050565b600181811c9082168061229057607f821691505b602082108114156122b157634e487b7160e01b600052602260045260246000fd5b50919050565b634e487b7160e01b600052603260045260246000fd5b634e487b7160e01b600052601160045260246000fd5b600060ff821660ff8114156122fa576122fa6122cd565b60010192915050565b6000600019821415612317576123176122cd565b5060010190565b60008351612330818460208801611e9f565b835190830190612344818360208801611e9f565b01949350505050565b60008282101561235f5761235f6122cd565b500390565b60008219821115612377576123776122cd565b500190565b634e487b7160e01b600052601260045260246000fd5b6000826123a1576123a161237c565b500490565b6000826123b5576123b561237c565b500690565b60006001600160a01b038087168352808616602084015250836040830152608060608301526123ec6080830184611ecb565b9695505050505050565b60006020828403121561240857600080fd5b815161103c81611e6c56fea2646970667358221220311c7e776ba414bee4c1d07d94a86073fec2752a27aa2d65041adee7da2239de64736f6c634300080b0033",
  "immutableReferences": {},
  "source": "// SPDX-License-Identifier: MIT\r\n\r\npragma solidity ^0.8.0;\r\n\r\nimport \"@openzeppelin/contracts/token/ERC721/ERC721.sol\";\r\n\r\nimport \"@openzeppelin/contracts/access/Ownable.sol\";\r\n\r\ncontract PixelToken is ERC721, Ownable {\r\n    uint256 COUNTER = 0;\r\n    uint256 fee = 1 ether;\r\n\r\n    struct Pixel {\r\n        string name;\r\n        uint256 id;\r\n        uint256 dna;\r\n        uint8 level;\r\n        uint8 rarity;\r\n        address owner;\r\n    }\r\n\r\n    Pixel[] public pixels;\r\n    event NewPixel(address indexed owner, uint256 id, uint256 dna);\r\n\r\n    constructor(string memory _name, string memory _symbol)\r\n        ERC721(_name, _symbol)\r\n    {}\r\n\r\n    // Helpers\r\n    function _createRandomNum(uint256 _mod) internal view returns (uint256) {\r\n        uint256 randomNum = uint256(\r\n            keccak256(abi.encodePacked(block.timestamp, msg.sender))\r\n        );\r\n        return randomNum % _mod;\r\n    }\r\n\r\n    function updateFee(uint256 newFee) external onlyOwner {\r\n        fee = newFee;\r\n    }\r\n\r\n    // Creation\r\n    function _createPixel(string memory _name) internal {\r\n        uint8 randRarity = uint8(_createRandomNum(100));\r\n        uint256 randDna = _createRandomNum(10**16);\r\n\r\n        Pixel memory newPixel = Pixel(\r\n            _name,\r\n            COUNTER,\r\n            randDna,\r\n            1,\r\n            randRarity,\r\n            msg.sender\r\n        );\r\n        pixels.push(newPixel);\r\n        _safeMint(msg.sender, COUNTER);\r\n        emit NewPixel(msg.sender, COUNTER, randDna);\r\n        COUNTER++;\r\n    }\r\n\r\n    function createRandomPixel(string memory _name) public payable {\r\n        require(msg.value >= fee, \"Insufficient funds.\");\r\n        _createPixel(_name);\r\n    }\r\n\r\n    // Getters\r\n    function getPixels() public view returns (Pixel[] memory) {\r\n        return pixels;\r\n    }\r\n\r\n    function getOwnerPixels(address _owner)\r\n        public\r\n        view\r\n        returns (Pixel[] memory)\r\n    {\r\n        Pixel[] memory result = new Pixel[](balanceOf(_owner));\r\n        uint256 counter = 0;\r\n        for (uint256 i = 0; i < pixels.length; i++) {\r\n            if (ownerOf(i) == _owner) {\r\n                result[counter] = pixels[i];\r\n                counter++;\r\n            }\r\n        }\r\n        return result;\r\n    }\r\n\r\n    function withdraw() external payable onlyOwner {\r\n        address _owner = owner();\r\n        payable(_owner).transfer(address(this).balance);\r\n    }\r\n\r\n    //actions\r\n    function levelUp(uint256 _pixelId) public {\r\n        require(ownerOf(_pixelId) == msg.sender);\r\n        Pixel storage pixel = pixels[_pixelId];\r\n        pixel.level++;\r\n    }\r\n}\r\n",
  "sourcePath": "C:\\Users\\dsita\\Desktop\\i-am-dapp\\contracts\\PixelToken.sol",
  "compiler": {
    "name": "solc",
    "version": "0.8.11+commit.d7f03943.Emscripten.clang"
  },
  "schemaVersion": "3.4.4",
  "updatedAt": "2022-01-27T19:02:53.448Z",
  "networkType": "ethereum",
  "devdoc": {
    "kind": "dev",
    "methods": {
      "approve(address,uint256)": {
        "details": "See {IERC721-approve}."
      },
      "balanceOf(address)": {
        "details": "See {IERC721-balanceOf}."
      },
      "getApproved(uint256)": {
        "details": "See {IERC721-getApproved}."
      },
      "isApprovedForAll(address,address)": {
        "details": "See {IERC721-isApprovedForAll}."
      },
      "name()": {
        "details": "See {IERC721Metadata-name}."
      },
      "owner()": {
        "details": "Returns the address of the current owner."
      },
      "ownerOf(uint256)": {
        "details": "See {IERC721-ownerOf}."
      },
      "renounceOwnership()": {
        "details": "Leaves the contract without owner. It will not be possible to call `onlyOwner` functions anymore. Can only be called by the current owner. NOTE: Renouncing ownership will leave the contract without an owner, thereby removing any functionality that is only available to the owner."
      },
      "safeTransferFrom(address,address,uint256)": {
        "details": "See {IERC721-safeTransferFrom}."
      },
      "safeTransferFrom(address,address,uint256,bytes)": {
        "details": "See {IERC721-safeTransferFrom}."
      },
      "setApprovalForAll(address,bool)": {
        "details": "See {IERC721-setApprovalForAll}."
      },
      "supportsInterface(bytes4)": {
        "details": "See {IERC165-supportsInterface}."
      },
      "symbol()": {
        "details": "See {IERC721Metadata-symbol}."
      },
      "tokenURI(uint256)": {
        "details": "See {IERC721Metadata-tokenURI}."
      },
      "transferFrom(address,address,uint256)": {
        "details": "See {IERC721-transferFrom}."
      },
      "transferOwnership(address)": {
        "details": "Transfers ownership of the contract to a new account (`newOwner`). Can only be called by the current owner."
      }
    },
    "version": 1
  },
  "userdoc": {
    "kind": "user",
    "methods": {},
    "version": 1
  }
}