{
  "contractName": "PixelToken",
  "abi": [
    {
      "inputs": [
        {
          "internalType": "string",
          "name": "_name",
          "type": "string"
        },
        {
          "internalType": "string",
          "name": "_symbol",
          "type": "string"
        }
      ],
      "stateMutability": "nonpayable",
      "type": "constructor"
    },
    {
      "anonymous": false,
      "inputs": [
        {
          "indexed": true,
          "internalType": "address",
          "name": "owner",
          "type": "address"
        },
        {
          "indexed": true,
          "internalType": "address",
          "name": "approved",
          "type": "address"
        },
        {
          "indexed": true,
          "internalType": "uint256",
          "name": "tokenId",
          "type": "uint256"
        }
      ],
      "name": "Approval",
      "type": "event"
    },
    {
      "anonymous": false,
      "inputs": [
        {
          "indexed": true,
          "internalType": "address",
          "name": "owner",
          "type": "address"
        },
        {
          "indexed": true,
          "internalType": "address",
          "name": "operator",
          "type": "address"
        },
        {
          "indexed": false,
          "internalType": "bool",
          "name": "approved",
          "type": "bool"
        }
      ],
      "name": "ApprovalForAll",
      "type": "event"
    },
    {
      "anonymous": false,
      "inputs": [
        {
          "indexed": true,
          "internalType": "address",
          "name": "owner",
          "type": "address"
        },
        {
          "indexed": false,
          "internalType": "uint256",
          "name": "id",
          "type": "uint256"
        },
        {
          "indexed": false,
          "internalType": "uint256",
          "name": "dna",
          "type": "uint256"
        }
      ],
      "name": "NewPixel",
      "type": "event"
    },
    {
      "anonymous": false,
      "inputs": [
        {
          "indexed": true,
          "internalType": "address",
          "name": "previousOwner",
          "type": "address"
        },
        {
          "indexed": true,
          "internalType": "address",
          "name": "newOwner",
          "type": "address"
        }
      ],
      "name": "OwnershipTransferred",
      "type": "event"
    },
    {
      "anonymous": false,
      "inputs": [
        {
          "indexed": true,
          "internalType": "address",
          "name": "from",
          "type": "address"
        },
        {
          "indexed": true,
          "internalType": "address",
          "name": "to",
          "type": "address"
        },
        {
          "indexed": true,
          "internalType": "uint256",
          "name": "tokenId",
          "type": "uint256"
        }
      ],
      "name": "Transfer",
      "type": "event"
    },
    {
      "inputs": [
        {
          "internalType": "address",
          "name": "to",
          "type": "address"
        },
        {
          "internalType": "uint256",
          "name": "tokenId",
          "type": "uint256"
        }
      ],
      "name": "approve",
      "outputs": [],
      "stateMutability": "nonpayable",
      "type": "function"
    },
    {
      "inputs": [
        {
          "internalType": "address",
          "name": "owner",
          "type": "address"
        }
      ],
      "name": "balanceOf",
      "outputs": [
        {
          "internalType": "uint256",
          "name": "",
          "type": "uint256"
        }
      ],
      "stateMutability": "view",
      "type": "function",
      "constant": true
    },
    {
      "inputs": [
        {
          "internalType": "uint256",
          "name": "tokenId",
          "type": "uint256"
        }
      ],
      "name": "getApproved",
      "outputs": [
        {
          "internalType": "address",
          "name": "",
          "type": "address"
        }
      ],
      "stateMutability": "view",
      "type": "function",
      "constant": true
    },
    {
      "inputs": [
        {
          "internalType": "address",
          "name": "owner",
          "type": "address"
        },
        {
          "internalType": "address",
          "name": "operator",
          "type": "address"
        }
      ],
      "name": "isApprovedForAll",
      "outputs": [
        {
          "internalType": "bool",
          "name": "",
          "type": "bool"
        }
      ],
      "stateMutability": "view",
      "type": "function",
      "constant": true
    },
    {
      "inputs": [],
      "name": "name",
      "outputs": [
        {
          "internalType": "string",
          "name": "",
          "type": "string"
        }
      ],
      "stateMutability": "view",
      "type": "function",
      "constant": true
    },
    {
      "inputs": [],
      "name": "owner",
      "outputs": [
        {
          "internalType": "address",
          "name": "",
          "type": "address"
        }
      ],
      "stateMutability": "view",
      "type": "function",
      "constant": true
    },
    {
      "inputs": [
        {
          "internalType": "uint256",
          "name": "tokenId",
          "type": "uint256"
        }
      ],
      "name": "ownerOf",
      "outputs": [
        {
          "internalType": "address",
          "name": "",
          "type": "address"
        }
      ],
      "stateMutability": "view",
      "type": "function",
      "constant": true
    },
    {
      "inputs": [
        {
          "internalType": "uint256",
          "name": "",
          "type": "uint256"
        }
      ],
      "name": "pixels",
      "outputs": [
        {
          "internalType": "string",
          "name": "name",
          "type": "string"
        },
        {
          "internalType": "uint256",
          "name": "id",
          "type": "uint256"
        },
        {
          "internalType": "uint256",
          "name": "dna",
          "type": "uint256"
        },
        {
          "internalType": "uint8",
          "name": "level",
          "type": "uint8"
        },
        {
          "internalType": "uint8",
          "name": "rarity",
          "type": "uint8"
        }
      ],
      "stateMutability": "view",
      "type": "function",
      "constant": true
    },
    {
      "inputs": [],
      "name": "renounceOwnership",
      "outputs": [],
      "stateMutability": "nonpayable",
      "type": "function"
    },
    {
      "inputs": [
        {
          "internalType": "address",
          "name": "from",
          "type": "address"
        },
        {
          "internalType": "address",
          "name": "to",
          "type": "address"
        },
        {
          "internalType": "uint256",
          "name": "tokenId",
          "type": "uint256"
        }
      ],
      "name": "safeTransferFrom",
      "outputs": [],
      "stateMutability": "nonpayable",
      "type": "function"
    },
    {
      "inputs": [
        {
          "internalType": "address",
          "name": "from",
          "type": "address"
        },
        {
          "internalType": "address",
          "name": "to",
          "type": "address"
        },
        {
          "internalType": "uint256",
          "name": "tokenId",
          "type": "uint256"
        },
        {
          "internalType": "bytes",
          "name": "_data",
          "type": "bytes"
        }
      ],
      "name": "safeTransferFrom",
      "outputs": [],
      "stateMutability": "nonpayable",
      "type": "function"
    },
    {
      "inputs": [
        {
          "internalType": "address",
          "name": "operator",
          "type": "address"
        },
        {
          "internalType": "bool",
          "name": "approved",
          "type": "bool"
        }
      ],
      "name": "setApprovalForAll",
      "outputs": [],
      "stateMutability": "nonpayable",
      "type": "function"
    },
    {
      "inputs": [
        {
          "internalType": "bytes4",
          "name": "interfaceId",
          "type": "bytes4"
        }
      ],
      "name": "supportsInterface",
      "outputs": [
        {
          "internalType": "bool",
          "name": "",
          "type": "bool"
        }
      ],
      "stateMutability": "view",
      "type": "function",
      "constant": true
    },
    {
      "inputs": [],
      "name": "symbol",
      "outputs": [
        {
          "internalType": "string",
          "name": "",
          "type": "string"
        }
      ],
      "stateMutability": "view",
      "type": "function",
      "constant": true
    },
    {
      "inputs": [
        {
          "internalType": "uint256",
          "name": "tokenId",
          "type": "uint256"
        }
      ],
      "name": "tokenURI",
      "outputs": [
        {
          "internalType": "string",
          "name": "",
          "type": "string"
        }
      ],
      "stateMutability": "view",
      "type": "function",
      "constant": true
    },
    {
      "inputs": [
        {
          "internalType": "address",
          "name": "from",
          "type": "address"
        },
        {
          "internalType": "address",
          "name": "to",
          "type": "address"
        },
        {
          "internalType": "uint256",
          "name": "tokenId",
          "type": "uint256"
        }
      ],
      "name": "transferFrom",
      "outputs": [],
      "stateMutability": "nonpayable",
      "type": "function"
    },
    {
      "inputs": [
        {
          "internalType": "address",
          "name": "newOwner",
          "type": "address"
        }
      ],
      "name": "transferOwnership",
      "outputs": [],
      "stateMutability": "nonpayable",
      "type": "function"
    },
    {
      "inputs": [
        {
          "internalType": "uint256",
          "name": "newFee",
          "type": "uint256"
        }
      ],
      "name": "updateFee",
      "outputs": [],
      "stateMutability": "nonpayable",
      "type": "function"
    },
    {
      "inputs": [
        {
          "internalType": "string",
          "name": "_name",
          "type": "string"
        }
      ],
      "name": "createRandomPixel",
      "outputs": [],
      "stateMutability": "payable",
      "type": "function",
      "payable": true
    },
    {
      "inputs": [],
      "name": "getPixels",
      "outputs": [
        {
          "components": [
            {
              "internalType": "string",
              "name": "name",
              "type": "string"
            },
            {
              "internalType": "uint256",
              "name": "id",
              "type": "uint256"
            },
            {
              "internalType": "uint256",
              "name": "dna",
              "type": "uint256"
            },
            {
              "internalType": "uint8",
              "name": "level",
              "type": "uint8"
            },
            {
              "internalType": "uint8",
              "name": "rarity",
              "type": "uint8"
            }
          ],
          "internalType": "struct PixelToken.Pixel[]",
          "name": "",
          "type": "tuple[]"
        }
      ],
      "stateMutability": "view",
      "type": "function",
      "constant": true
    },
    {
      "inputs": [
        {
          "internalType": "address",
          "name": "_owner",
          "type": "address"
        }
      ],
      "name": "getOwnerPixels",
      "outputs": [
        {
          "components": [
            {
              "internalType": "string",
              "name": "name",
              "type": "string"
            },
            {
              "internalType": "uint256",
              "name": "id",
              "type": "uint256"
            },
            {
              "internalType": "uint256",
              "name": "dna",
              "type": "uint256"
            },
            {
              "internalType": "uint8",
              "name": "level",
              "type": "uint8"
            },
            {
              "internalType": "uint8",
              "name": "rarity",
              "type": "uint8"
            }
          ],
          "internalType": "struct PixelToken.Pixel[]",
          "name": "",
          "type": "tuple[]"
        }
      ],
      "stateMutability": "view",
      "type": "function",
      "constant": true
    },
    {
      "inputs": [],
      "name": "withdraw",
      "outputs": [],
      "stateMutability": "payable",
      "type": "function",
      "payable": true
    }
  ],
  "bytecode": "0x60806040526000600755670de0b6b3a76400006008553480156200002257600080fd5b506040516200260b3803806200260b833981016040819052620000459162000262565b8151829082906200005e906000906020850190620000ef565b50805162000074906001906020840190620000ef565b505050620000916200008b6200009960201b60201c565b6200009d565b505062000309565b3390565b600680546001600160a01b038381166001600160a01b0319831681179093556040519116919082907f8be0079c531659141344cd1fd0a4f28419497f9722a3daafe3b4186f6b6457e090600090a35050565b828054620000fd90620002cc565b90600052602060002090601f0160209004810192826200012157600085556200016c565b82601f106200013c57805160ff19168380011785556200016c565b828001600101855582156200016c579182015b828111156200016c5782518255916020019190600101906200014f565b506200017a9291506200017e565b5090565b5b808211156200017a57600081556001016200017f565b634e487b7160e01b600052604160045260246000fd5b600082601f830112620001bd57600080fd5b81516001600160401b0380821115620001da57620001da62000195565b604051601f8301601f19908116603f0116810190828211818310171562000205576200020562000195565b816040528381526020925086838588010111156200022257600080fd5b600091505b8382101562000246578582018301518183018401529082019062000227565b83821115620002585760008385830101525b9695505050505050565b600080604083850312156200027657600080fd5b82516001600160401b03808211156200028e57600080fd5b6200029c86838701620001ab565b93506020850151915080821115620002b357600080fd5b50620002c285828601620001ab565b9150509250929050565b600181811c90821680620002e157607f821691505b602082108114156200030357634e487b7160e01b600052602260045260246000fd5b50919050565b6122f280620003196000396000f3fe6080604052600436106101755760003560e01c80638da7f232116100cb578063b88d4fde1161007f578063e985e9c511610059578063e985e9c5146103fa578063f2fde38b14610443578063feeac6191461046357600080fd5b8063b88d4fde146103a7578063c68d5163146103c7578063c87b56dd146103da57600080fd5b806395d89b41116100b057806395d89b41146103455780639a41d3c91461035a578063a22cb4651461038757600080fd5b80638da7f232146102f45780639012c4a81461032557600080fd5b80633ccfd60b1161012d57806370a082311161010757806370a0823114610293578063715018a6146102c15780638da5cb5b146102d657600080fd5b80633ccfd60b1461024b57806342842e0e146102535780636352211e1461027357600080fd5b8063081812fc1161015e578063081812fc146101d1578063095ea7b31461020957806323b872dd1461022b57600080fd5b806301ffc9a71461017a57806306fdde03146101af575b600080fd5b34801561018657600080fd5b5061019a610195366004611d6f565b610478565b60405190151581526020015b60405180910390f35b3480156101bb57600080fd5b506101c4610515565b6040516101a69190611de4565b3480156101dd57600080fd5b506101f16101ec366004611df7565b6105a7565b6040516001600160a01b0390911681526020016101a6565b34801561021557600080fd5b50610229610224366004611e2c565b610652565b005b34801561023757600080fd5b50610229610246366004611e56565b610784565b61022961080b565b34801561025f57600080fd5b5061022961026e366004611e56565b6108b5565b34801561027f57600080fd5b506101f161028e366004611df7565b6108d0565b34801561029f57600080fd5b506102b36102ae366004611e92565b61095b565b6040519081526020016101a6565b3480156102cd57600080fd5b506102296109f5565b3480156102e257600080fd5b506006546001600160a01b03166101f1565b34801561030057600080fd5b5061031461030f366004611df7565b610a5b565b6040516101a6959493929190611ead565b34801561033157600080fd5b50610229610340366004611df7565b610b31565b34801561035157600080fd5b506101c4610b90565b34801561036657600080fd5b5061037a610375366004611e92565b610b9f565b6040516101a69190611ee7565b34801561039357600080fd5b506102296103a2366004611f85565b610d97565b3480156103b357600080fd5b506102296103c236600461204d565b610da2565b6102296103d53660046120c9565b610e30565b3480156103e657600080fd5b506101c46103f5366004611df7565b610e8e565b34801561040657600080fd5b5061019a610415366004612112565b6001600160a01b03918216600090815260056020908152604080832093909416825291909152205460ff1690565b34801561044f57600080fd5b5061022961045e366004611e92565b610f84565b34801561046f57600080fd5b5061037a611063565b60006001600160e01b031982167f80ac58cd0000000000000000000000000000000000000000000000000000000014806104db57506001600160e01b031982167f5b5e139f00000000000000000000000000000000000000000000000000000000145b8061050f57507f01ffc9a7000000000000000000000000000000000000000000000000000000006001600160e01b03198316145b92915050565b60606000805461052490612145565b80601f016020809104026020016040519081016040528092919081815260200182805461055090612145565b801561059d5780601f106105725761010080835404028352916020019161059d565b820191906000526020600020905b81548152906001019060200180831161058057829003601f168201915b5050505050905090565b6000818152600260205260408120546001600160a01b03166106365760405162461bcd60e51b815260206004820152602c60248201527f4552433732313a20617070726f76656420717565727920666f72206e6f6e657860448201527f697374656e7420746f6b656e000000000000000000000000000000000000000060648201526084015b60405180910390fd5b506000908152600460205260409020546001600160a01b031690565b600061065d826108d0565b9050806001600160a01b0316836001600160a01b031614156106e75760405162461bcd60e51b815260206004820152602160248201527f4552433732313a20617070726f76616c20746f2063757272656e74206f776e6560448201527f7200000000000000000000000000000000000000000000000000000000000000606482015260840161062d565b336001600160a01b038216148061070357506107038133610415565b6107755760405162461bcd60e51b815260206004820152603860248201527f4552433732313a20617070726f76652063616c6c6572206973206e6f74206f7760448201527f6e6572206e6f7220617070726f76656420666f7220616c6c0000000000000000606482015260840161062d565b61077f8383611189565b505050565b61078e3382611204565b6108005760405162461bcd60e51b815260206004820152603160248201527f4552433732313a207472616e736665722063616c6c6572206973206e6f74206f60448201527f776e6572206e6f7220617070726f766564000000000000000000000000000000606482015260840161062d565b61077f83838361130c565b6006546001600160a01b031633146108655760405162461bcd60e51b815260206004820181905260248201527f4f776e61626c653a2063616c6c6572206973206e6f7420746865206f776e6572604482015260640161062d565b60006108796006546001600160a01b031690565b6040519091506001600160a01b038216904780156108fc02916000818181858888f193505050501580156108b1573d6000803e3d6000fd5b5050565b61077f83838360405180602001604052806000815250610da2565b6000818152600260205260408120546001600160a01b03168061050f5760405162461bcd60e51b815260206004820152602960248201527f4552433732313a206f776e657220717565727920666f72206e6f6e657869737460448201527f656e7420746f6b656e0000000000000000000000000000000000000000000000606482015260840161062d565b60006001600160a01b0382166109d95760405162461bcd60e51b815260206004820152602a60248201527f4552433732313a2062616c616e636520717565727920666f7220746865207a6560448201527f726f206164647265737300000000000000000000000000000000000000000000606482015260840161062d565b506001600160a01b031660009081526003602052604090205490565b6006546001600160a01b03163314610a4f5760405162461bcd60e51b815260206004820181905260248201527f4f776e61626c653a2063616c6c6572206973206e6f7420746865206f776e6572604482015260640161062d565b610a5960006114e6565b565b60098181548110610a6b57600080fd5b9060005260206000209060040201600091509050806000018054610a8e90612145565b80601f0160208091040260200160405190810160405280929190818152602001828054610aba90612145565b8015610b075780601f10610adc57610100808354040283529160200191610b07565b820191906000526020600020905b815481529060010190602001808311610aea57829003601f168201915b50505050600183015460028401546003909401549293909290915060ff8082169161010090041685565b6006546001600160a01b03163314610b8b5760405162461bcd60e51b815260206004820181905260248201527f4f776e61626c653a2063616c6c6572206973206e6f7420746865206f776e6572604482015260640161062d565b600855565b60606001805461052490612145565b60606000610bac8361095b565b67ffffffffffffffff811115610bc457610bc4611fc1565b604051908082528060200260200182016040528015610c2d57816020015b610c1a6040518060a00160405280606081526020016000815260200160008152602001600060ff168152602001600060ff1681525090565b815260200190600190039081610be25790505b5090506000805b600954811015610d8e57846001600160a01b0316610c51826108d0565b6001600160a01b03161415610d7c5760098181548110610c7357610c73612180565b90600052602060002090600402016040518060a0016040529081600082018054610c9c90612145565b80601f0160208091040260200160405190810160405280929190818152602001828054610cc890612145565b8015610d155780601f10610cea57610100808354040283529160200191610d15565b820191906000526020600020905b815481529060010190602001808311610cf857829003601f168201915b5050509183525050600182015460208201526002820154604082015260039091015460ff8082166060840152610100909104166080909101528351849084908110610d6257610d62612180565b60200260200101819052508180610d78906121ac565b9250505b80610d86816121ac565b915050610c34565b50909392505050565b6108b1338383611545565b610dac3383611204565b610e1e5760405162461bcd60e51b815260206004820152603160248201527f4552433732313a207472616e736665722063616c6c6572206973206e6f74206f60448201527f776e6572206e6f7220617070726f766564000000000000000000000000000000606482015260840161062d565b610e2a84848484611614565b50505050565b600854341015610e825760405162461bcd60e51b815260206004820152601360248201527f496e73756666696369656e742066756e64732e00000000000000000000000000604482015260640161062d565b610e8b8161169d565b50565b6000818152600260205260409020546060906001600160a01b0316610f1b5760405162461bcd60e51b815260206004820152602f60248201527f4552433732314d657461646174613a2055524920717565727920666f72206e6f60448201527f6e6578697374656e7420746f6b656e0000000000000000000000000000000000606482015260840161062d565b6000610f3260408051602081019091526000815290565b90506000815111610f525760405180602001604052806000815250610f7d565b80610f5c846117e5565b604051602001610f6d9291906121c7565b6040516020818303038152906040525b9392505050565b6006546001600160a01b03163314610fde5760405162461bcd60e51b815260206004820181905260248201527f4f776e61626c653a2063616c6c6572206973206e6f7420746865206f776e6572604482015260640161062d565b6001600160a01b03811661105a5760405162461bcd60e51b815260206004820152602660248201527f4f776e61626c653a206e6577206f776e657220697320746865207a65726f206160448201527f6464726573730000000000000000000000000000000000000000000000000000606482015260840161062d565b610e8b816114e6565b60606009805480602002602001604051908101604052809291908181526020016000905b8282101561118057838290600052602060002090600402016040518060a00160405290816000820180546110ba90612145565b80601f01602080910402602001604051908101604052809291908181526020018280546110e690612145565b80156111335780601f1061110857610100808354040283529160200191611133565b820191906000526020600020905b81548152906001019060200180831161111657829003601f168201915b50505091835250506001828101546020808401919091526002840154604084015260039093015460ff80821660608501526101009091041660809092019190915291835292019101611087565b50505050905090565b6000818152600460205260409020805473ffffffffffffffffffffffffffffffffffffffff19166001600160a01b03841690811790915581906111cb826108d0565b6001600160a01b03167f8c5be1e5ebec7d5bd14f71427d1e84f3dd0314c0f7b2291e5b200ac8c7c3b92560405160405180910390a45050565b6000818152600260205260408120546001600160a01b031661128e5760405162461bcd60e51b815260206004820152602c60248201527f4552433732313a206f70657261746f7220717565727920666f72206e6f6e657860448201527f697374656e7420746f6b656e0000000000000000000000000000000000000000606482015260840161062d565b6000611299836108d0565b9050806001600160a01b0316846001600160a01b031614806112d45750836001600160a01b03166112c9846105a7565b6001600160a01b0316145b8061130457506001600160a01b0380821660009081526005602090815260408083209388168352929052205460ff165b949350505050565b826001600160a01b031661131f826108d0565b6001600160a01b03161461139b5760405162461bcd60e51b815260206004820152602960248201527f4552433732313a207472616e73666572206f6620746f6b656e2074686174206960448201527f73206e6f74206f776e0000000000000000000000000000000000000000000000606482015260840161062d565b6001600160a01b0382166114165760405162461bcd60e51b8152602060048201526024808201527f4552433732313a207472616e7366657220746f20746865207a65726f2061646460448201527f7265737300000000000000000000000000000000000000000000000000000000606482015260840161062d565b611421600082611189565b6001600160a01b038316600090815260036020526040812080546001929061144a9084906121f6565b90915550506001600160a01b038216600090815260036020526040812080546001929061147890849061220d565b9091555050600081815260026020526040808220805473ffffffffffffffffffffffffffffffffffffffff19166001600160a01b0386811691821790925591518493918716917fddf252ad1be2c89b69c2b068fc378daa952ba7f163c4a11628f55a4df523b3ef91a4505050565b600680546001600160a01b0383811673ffffffffffffffffffffffffffffffffffffffff19831681179093556040519116919082907f8be0079c531659141344cd1fd0a4f28419497f9722a3daafe3b4186f6b6457e090600090a35050565b816001600160a01b0316836001600160a01b031614156115a75760405162461bcd60e51b815260206004820152601960248201527f4552433732313a20617070726f766520746f2063616c6c657200000000000000604482015260640161062d565b6001600160a01b03838116600081815260056020908152604080832094871680845294825291829020805460ff191686151590811790915591519182527f17307eab39ab6107e8899845ad3d59bd9653f200f220920489ca2b5937696c31910160405180910390a3505050565b61161f84848461130c565b61162b84848484611917565b610e2a5760405162461bcd60e51b815260206004820152603260248201527f4552433732313a207472616e7366657220746f206e6f6e20455243373231526560448201527f63656976657220696d706c656d656e7465720000000000000000000000000000606482015260840161062d565b60006116a96064611a6b565b905060006116bd662386f26fc10000611a6b565b6040805160a08101825285815260075460208083019190915291810183905260016060820181905260ff86166080830152600980549182018155600052815180519495509193849360049092027f6e1540171b6c0c960b71a7020d9f60077f6af931a8bbf590da0223dacf75c7af019261173b928492910190611cc0565b50602082015160018201556040820151600282015560608201516003909101805460809093015160ff9081166101000261ffff1990941692169190911791909117905560075461178c903390611ad3565b600754604080519182526020820184905233917f9a1def4172ad24b7eb7331292bdfc9823479b46378644baf3c2f8a77df6e81fe910160405180910390a2600780549060006117da836121ac565b919050555050505050565b60608161182557505060408051808201909152600181527f3000000000000000000000000000000000000000000000000000000000000000602082015290565b8160005b811561184f5780611839816121ac565b91506118489050600a8361223b565b9150611829565b60008167ffffffffffffffff81111561186a5761186a611fc1565b6040519080825280601f01601f191660200182016040528015611894576020820181803683370190505b5090505b8415611304576118a96001836121f6565b91506118b6600a8661224f565b6118c190603061220d565b60f81b8183815181106118d6576118d6612180565b60200101907effffffffffffffffffffffffffffffffffffffffffffffffffffffffffffff1916908160001a905350611910600a8661223b565b9450611898565b60006001600160a01b0384163b15611a6057604051630a85bd0160e11b81526001600160a01b0385169063150b7a029061195b903390899088908890600401612263565b6020604051808303816000875af1925050508015611996575060408051601f3d908101601f191682019092526119939181019061229f565b60015b611a46573d8080156119c4576040519150601f19603f3d011682016040523d82523d6000602084013e6119c9565b606091505b508051611a3e5760405162461bcd60e51b815260206004820152603260248201527f4552433732313a207472616e7366657220746f206e6f6e20455243373231526560448201527f63656976657220696d706c656d656e7465720000000000000000000000000000606482015260840161062d565b805181602001fd5b6001600160e01b031916630a85bd0160e11b149050611304565b506001949350505050565b6000804233604051602001611aaf92919091825260601b7fffffffffffffffffffffffffffffffffffffffff00000000000000000000000016602082015260340190565b60408051601f1981840301815291905280516020909101209050610f7d838261224f565b6108b1828260405180602001604052806000815250611af28383611b71565b611aff6000848484611917565b61077f5760405162461bcd60e51b815260206004820152603260248201527f4552433732313a207472616e7366657220746f206e6f6e20455243373231526560448201527f63656976657220696d706c656d656e7465720000000000000000000000000000606482015260840161062d565b6001600160a01b038216611bc75760405162461bcd60e51b815260206004820181905260248201527f4552433732313a206d696e7420746f20746865207a65726f2061646472657373604482015260640161062d565b6000818152600260205260409020546001600160a01b031615611c2c5760405162461bcd60e51b815260206004820152601c60248201527f4552433732313a20746f6b656e20616c7265616479206d696e74656400000000604482015260640161062d565b6001600160a01b0382166000908152600360205260408120805460019290611c5590849061220d565b9091555050600081815260026020526040808220805473ffffffffffffffffffffffffffffffffffffffff19166001600160a01b03861690811790915590518392907fddf252ad1be2c89b69c2b068fc378daa952ba7f163c4a11628f55a4df523b3ef908290a45050565b828054611ccc90612145565b90600052602060002090601f016020900481019282611cee5760008555611d34565b82601f10611d0757805160ff1916838001178555611d34565b82800160010185558215611d34579182015b82811115611d34578251825591602001919060010190611d19565b50611d40929150611d44565b5090565b5b80821115611d405760008155600101611d45565b6001600160e01b031981168114610e8b57600080fd5b600060208284031215611d8157600080fd5b8135610f7d81611d59565b60005b83811015611da7578181015183820152602001611d8f565b83811115610e2a5750506000910152565b60008151808452611dd0816020860160208601611d8c565b601f01601f19169290920160200192915050565b602081526000610f7d6020830184611db8565b600060208284031215611e0957600080fd5b5035919050565b80356001600160a01b0381168114611e2757600080fd5b919050565b60008060408385031215611e3f57600080fd5b611e4883611e10565b946020939093013593505050565b600080600060608486031215611e6b57600080fd5b611e7484611e10565b9250611e8260208501611e10565b9150604084013590509250925092565b600060208284031215611ea457600080fd5b610f7d82611e10565b60a081526000611ec060a0830188611db8565b602083019690965250604081019390935260ff918216606084015216608090910152919050565b60006020808301818452808551808352604092508286019150828160051b87010184880160005b83811015611f7757603f19898403018552815160a08151818652611f3482870182611db8565b838b0151878c0152898401518a88015260608085015160ff9081169189019190915260809485015116939096019290925250509386019390860190600101611f0e565b509098975050505050505050565b60008060408385031215611f9857600080fd5b611fa183611e10565b915060208301358015158114611fb657600080fd5b809150509250929050565b634e487b7160e01b600052604160045260246000fd5b600067ffffffffffffffff80841115611ff257611ff2611fc1565b604051601f8501601f19908116603f0116810190828211818310171561201a5761201a611fc1565b8160405280935085815286868601111561203357600080fd5b858560208301376000602087830101525050509392505050565b6000806000806080858703121561206357600080fd5b61206c85611e10565b935061207a60208601611e10565b925060408501359150606085013567ffffffffffffffff81111561209d57600080fd5b8501601f810187136120ae57600080fd5b6120bd87823560208401611fd7565b91505092959194509250565b6000602082840312156120db57600080fd5b813567ffffffffffffffff8111156120f257600080fd5b8201601f8101841361210357600080fd5b61130484823560208401611fd7565b6000806040838503121561212557600080fd5b61212e83611e10565b915061213c60208401611e10565b90509250929050565b600181811c9082168061215957607f821691505b6020821081141561217a57634e487b7160e01b600052602260045260246000fd5b50919050565b634e487b7160e01b600052603260045260246000fd5b634e487b7160e01b600052601160045260246000fd5b60006000198214156121c0576121c0612196565b5060010190565b600083516121d9818460208801611d8c565b8351908301906121ed818360208801611d8c565b01949350505050565b60008282101561220857612208612196565b500390565b6000821982111561222057612220612196565b500190565b634e487b7160e01b600052601260045260246000fd5b60008261224a5761224a612225565b500490565b60008261225e5761225e612225565b500690565b60006001600160a01b038087168352808616602084015250836040830152608060608301526122956080830184611db8565b9695505050505050565b6000602082840312156122b157600080fd5b8151610f7d81611d5956fea2646970667358221220cdf093bb559414ab6fb66340c1883708700bdd9625ede455fdac6604860cb65f64736f6c634300080b0033",
  "immutableReferences": {},
  "source": "// SPDX-License-Identifier: MIT\r\n\r\npragma solidity ^0.8.0;\r\n\r\nimport \"@openzeppelin/contracts/token/ERC721/ERC721.sol\";\r\n\r\nimport \"@openzeppelin/contracts/access/Ownable.sol\";\r\n\r\ncontract PixelToken is ERC721, Ownable {\r\n    uint256 COUNTER = 0;\r\n    uint256 fee = 1 ether;\r\n\r\n    struct Pixel {\r\n        string name;\r\n        uint256 id;\r\n        uint256 dna;\r\n        uint8 level;\r\n        uint8 rarity;\r\n    }\r\n\r\n    Pixel[] public pixels;\r\n    event NewPixel(address indexed owner, uint256 id, uint256 dna);\r\n\r\n    constructor(string memory _name, string memory _symbol)\r\n        ERC721(_name, _symbol)\r\n    {}\r\n\r\n    // Helpers\r\n    function _createRandomNum(uint256 _mod) internal view returns (uint256) {\r\n        uint256 randomNum = uint256(\r\n            keccak256(abi.encodePacked(block.timestamp, msg.sender))\r\n        );\r\n        return randomNum % _mod;\r\n    }\r\n\r\n    function updateFee(uint256 newFee) external onlyOwner {\r\n        fee = newFee;\r\n    }\r\n\r\n    // Creation\r\n    function _createPixel(string memory _name) internal {\r\n        uint8 randRarity = uint8(_createRandomNum(100));\r\n        uint256 randDna = _createRandomNum(10**16);\r\n\r\n        Pixel memory newPixel = Pixel(_name, COUNTER, randDna, 1, randRarity);\r\n        pixels.push(newPixel);\r\n        _safeMint(msg.sender, COUNTER);\r\n        emit NewPixel(msg.sender, COUNTER, randDna);\r\n        COUNTER++;\r\n    }\r\n\r\n    function createRandomPixel(string memory _name) public payable {\r\n        require(msg.value >= fee, \"Insufficient funds.\");\r\n        _createPixel(_name);\r\n    }\r\n\r\n    // Getters\r\n    function getPixels() public view returns (Pixel[] memory) {\r\n        return pixels;\r\n    }\r\n\r\n    function getOwnerPixels(address _owner)\r\n        public\r\n        view\r\n        returns (Pixel[] memory)\r\n    {\r\n        Pixel[] memory result = new Pixel[](balanceOf(_owner));\r\n        uint256 counter = 0;\r\n        for (uint256 i = 0; i < pixels.length; i++) {\r\n            if (ownerOf(i) == _owner) {\r\n                result[counter] = pixels[i];\r\n                counter++;\r\n            }\r\n        }\r\n        return result;\r\n    }\r\n\r\n    function withdraw() external payable onlyOwner {\r\n        address _owner = owner();\r\n        payable(_owner).transfer(address(this).balance);\r\n    }\r\n}\r\n",
  "sourcePath": "C:\\Users\\dsita\\Desktop\\i-am-dapp\\contracts\\PixelToken.sol",
  "compiler": {
    "name": "solc",
    "version": "0.8.11+commit.d7f03943.Emscripten.clang"
  },
  "schemaVersion": "3.4.4",
  "updatedAt": "2022-01-25T22:57:10.757Z",
  "networkType": "ethereum",
  "devdoc": {
    "kind": "dev",
    "methods": {
      "approve(address,uint256)": {
        "details": "See {IERC721-approve}."
      },
      "balanceOf(address)": {
        "details": "See {IERC721-balanceOf}."
      },
      "getApproved(uint256)": {
        "details": "See {IERC721-getApproved}."
      },
      "isApprovedForAll(address,address)": {
        "details": "See {IERC721-isApprovedForAll}."
      },
      "name()": {
        "details": "See {IERC721Metadata-name}."
      },
      "owner()": {
        "details": "Returns the address of the current owner."
      },
      "ownerOf(uint256)": {
        "details": "See {IERC721-ownerOf}."
      },
      "renounceOwnership()": {
        "details": "Leaves the contract without owner. It will not be possible to call `onlyOwner` functions anymore. Can only be called by the current owner. NOTE: Renouncing ownership will leave the contract without an owner, thereby removing any functionality that is only available to the owner."
      },
      "safeTransferFrom(address,address,uint256)": {
        "details": "See {IERC721-safeTransferFrom}."
      },
      "safeTransferFrom(address,address,uint256,bytes)": {
        "details": "See {IERC721-safeTransferFrom}."
      },
      "setApprovalForAll(address,bool)": {
        "details": "See {IERC721-setApprovalForAll}."
      },
      "supportsInterface(bytes4)": {
        "details": "See {IERC165-supportsInterface}."
      },
      "symbol()": {
        "details": "See {IERC721Metadata-symbol}."
      },
      "tokenURI(uint256)": {
        "details": "See {IERC721Metadata-tokenURI}."
      },
      "transferFrom(address,address,uint256)": {
        "details": "See {IERC721-transferFrom}."
      },
      "transferOwnership(address)": {
        "details": "Transfers ownership of the contract to a new account (`newOwner`). Can only be called by the current owner."
      }
    },
    "version": 1
  },
  "userdoc": {
    "kind": "user",
    "methods": {},
    "version": 1
  }
}