{
  "contractName": "PixelToken",
  "abi": [
    {
      "inputs": [
        {
          "internalType": "string",
          "name": "_name",
          "type": "string"
        },
        {
          "internalType": "string",
          "name": "_symbol",
          "type": "string"
        }
      ],
      "stateMutability": "nonpayable",
      "type": "constructor"
    },
    {
      "anonymous": false,
      "inputs": [
        {
          "indexed": true,
          "internalType": "address",
          "name": "owner",
          "type": "address"
        },
        {
          "indexed": true,
          "internalType": "address",
          "name": "approved",
          "type": "address"
        },
        {
          "indexed": true,
          "internalType": "uint256",
          "name": "tokenId",
          "type": "uint256"
        }
      ],
      "name": "Approval",
      "type": "event"
    },
    {
      "anonymous": false,
      "inputs": [
        {
          "indexed": true,
          "internalType": "address",
          "name": "owner",
          "type": "address"
        },
        {
          "indexed": true,
          "internalType": "address",
          "name": "operator",
          "type": "address"
        },
        {
          "indexed": false,
          "internalType": "bool",
          "name": "approved",
          "type": "bool"
        }
      ],
      "name": "ApprovalForAll",
      "type": "event"
    },
    {
      "anonymous": false,
      "inputs": [
        {
          "indexed": true,
          "internalType": "address",
          "name": "owner",
          "type": "address"
        },
        {
          "indexed": false,
          "internalType": "uint256",
          "name": "id",
          "type": "uint256"
        },
        {
          "indexed": false,
          "internalType": "uint256",
          "name": "dna",
          "type": "uint256"
        }
      ],
      "name": "NewPixel",
      "type": "event"
    },
    {
      "anonymous": false,
      "inputs": [
        {
          "indexed": true,
          "internalType": "address",
          "name": "previousOwner",
          "type": "address"
        },
        {
          "indexed": true,
          "internalType": "address",
          "name": "newOwner",
          "type": "address"
        }
      ],
      "name": "OwnershipTransferred",
      "type": "event"
    },
    {
      "anonymous": false,
      "inputs": [
        {
          "indexed": true,
          "internalType": "address",
          "name": "from",
          "type": "address"
        },
        {
          "indexed": true,
          "internalType": "address",
          "name": "to",
          "type": "address"
        },
        {
          "indexed": true,
          "internalType": "uint256",
          "name": "tokenId",
          "type": "uint256"
        }
      ],
      "name": "Transfer",
      "type": "event"
    },
    {
      "inputs": [
        {
          "internalType": "address",
          "name": "to",
          "type": "address"
        },
        {
          "internalType": "uint256",
          "name": "tokenId",
          "type": "uint256"
        }
      ],
      "name": "approve",
      "outputs": [],
      "stateMutability": "nonpayable",
      "type": "function"
    },
    {
      "inputs": [
        {
          "internalType": "address",
          "name": "owner",
          "type": "address"
        }
      ],
      "name": "balanceOf",
      "outputs": [
        {
          "internalType": "uint256",
          "name": "",
          "type": "uint256"
        }
      ],
      "stateMutability": "view",
      "type": "function",
      "constant": true
    },
    {
      "inputs": [
        {
          "internalType": "uint256",
          "name": "tokenId",
          "type": "uint256"
        }
      ],
      "name": "getApproved",
      "outputs": [
        {
          "internalType": "address",
          "name": "",
          "type": "address"
        }
      ],
      "stateMutability": "view",
      "type": "function",
      "constant": true
    },
    {
      "inputs": [
        {
          "internalType": "address",
          "name": "owner",
          "type": "address"
        },
        {
          "internalType": "address",
          "name": "operator",
          "type": "address"
        }
      ],
      "name": "isApprovedForAll",
      "outputs": [
        {
          "internalType": "bool",
          "name": "",
          "type": "bool"
        }
      ],
      "stateMutability": "view",
      "type": "function",
      "constant": true
    },
    {
      "inputs": [],
      "name": "name",
      "outputs": [
        {
          "internalType": "string",
          "name": "",
          "type": "string"
        }
      ],
      "stateMutability": "view",
      "type": "function",
      "constant": true
    },
    {
      "inputs": [],
      "name": "owner",
      "outputs": [
        {
          "internalType": "address",
          "name": "",
          "type": "address"
        }
      ],
      "stateMutability": "view",
      "type": "function",
      "constant": true
    },
    {
      "inputs": [
        {
          "internalType": "uint256",
          "name": "tokenId",
          "type": "uint256"
        }
      ],
      "name": "ownerOf",
      "outputs": [
        {
          "internalType": "address",
          "name": "",
          "type": "address"
        }
      ],
      "stateMutability": "view",
      "type": "function",
      "constant": true
    },
    {
      "inputs": [
        {
          "internalType": "uint256",
          "name": "",
          "type": "uint256"
        }
      ],
      "name": "pixels",
      "outputs": [
        {
          "internalType": "string",
          "name": "name",
          "type": "string"
        },
        {
          "internalType": "uint256",
          "name": "id",
          "type": "uint256"
        },
        {
          "internalType": "uint256",
          "name": "dna",
          "type": "uint256"
        },
        {
          "internalType": "uint8",
          "name": "level",
          "type": "uint8"
        },
        {
          "internalType": "uint8",
          "name": "rarity",
          "type": "uint8"
        }
      ],
      "stateMutability": "view",
      "type": "function",
      "constant": true
    },
    {
      "inputs": [],
      "name": "renounceOwnership",
      "outputs": [],
      "stateMutability": "nonpayable",
      "type": "function"
    },
    {
      "inputs": [
        {
          "internalType": "address",
          "name": "from",
          "type": "address"
        },
        {
          "internalType": "address",
          "name": "to",
          "type": "address"
        },
        {
          "internalType": "uint256",
          "name": "tokenId",
          "type": "uint256"
        }
      ],
      "name": "safeTransferFrom",
      "outputs": [],
      "stateMutability": "nonpayable",
      "type": "function"
    },
    {
      "inputs": [
        {
          "internalType": "address",
          "name": "from",
          "type": "address"
        },
        {
          "internalType": "address",
          "name": "to",
          "type": "address"
        },
        {
          "internalType": "uint256",
          "name": "tokenId",
          "type": "uint256"
        },
        {
          "internalType": "bytes",
          "name": "_data",
          "type": "bytes"
        }
      ],
      "name": "safeTransferFrom",
      "outputs": [],
      "stateMutability": "nonpayable",
      "type": "function"
    },
    {
      "inputs": [
        {
          "internalType": "address",
          "name": "operator",
          "type": "address"
        },
        {
          "internalType": "bool",
          "name": "approved",
          "type": "bool"
        }
      ],
      "name": "setApprovalForAll",
      "outputs": [],
      "stateMutability": "nonpayable",
      "type": "function"
    },
    {
      "inputs": [
        {
          "internalType": "bytes4",
          "name": "interfaceId",
          "type": "bytes4"
        }
      ],
      "name": "supportsInterface",
      "outputs": [
        {
          "internalType": "bool",
          "name": "",
          "type": "bool"
        }
      ],
      "stateMutability": "view",
      "type": "function",
      "constant": true
    },
    {
      "inputs": [],
      "name": "symbol",
      "outputs": [
        {
          "internalType": "string",
          "name": "",
          "type": "string"
        }
      ],
      "stateMutability": "view",
      "type": "function",
      "constant": true
    },
    {
      "inputs": [
        {
          "internalType": "uint256",
          "name": "tokenId",
          "type": "uint256"
        }
      ],
      "name": "tokenURI",
      "outputs": [
        {
          "internalType": "string",
          "name": "",
          "type": "string"
        }
      ],
      "stateMutability": "view",
      "type": "function",
      "constant": true
    },
    {
      "inputs": [
        {
          "internalType": "address",
          "name": "from",
          "type": "address"
        },
        {
          "internalType": "address",
          "name": "to",
          "type": "address"
        },
        {
          "internalType": "uint256",
          "name": "tokenId",
          "type": "uint256"
        }
      ],
      "name": "transferFrom",
      "outputs": [],
      "stateMutability": "nonpayable",
      "type": "function"
    },
    {
      "inputs": [
        {
          "internalType": "address",
          "name": "newOwner",
          "type": "address"
        }
      ],
      "name": "transferOwnership",
      "outputs": [],
      "stateMutability": "nonpayable",
      "type": "function"
    },
    {
      "inputs": [
        {
          "internalType": "uint256",
          "name": "newFee",
          "type": "uint256"
        }
      ],
      "name": "updateFee",
      "outputs": [],
      "stateMutability": "nonpayable",
      "type": "function"
    },
    {
      "inputs": [
        {
          "internalType": "string",
          "name": "_name",
          "type": "string"
        }
      ],
      "name": "createRandomPixel",
      "outputs": [],
      "stateMutability": "payable",
      "type": "function",
      "payable": true
    },
    {
      "inputs": [],
      "name": "getPixels",
      "outputs": [
        {
          "components": [
            {
              "internalType": "string",
              "name": "name",
              "type": "string"
            },
            {
              "internalType": "uint256",
              "name": "id",
              "type": "uint256"
            },
            {
              "internalType": "uint256",
              "name": "dna",
              "type": "uint256"
            },
            {
              "internalType": "uint8",
              "name": "level",
              "type": "uint8"
            },
            {
              "internalType": "uint8",
              "name": "rarity",
              "type": "uint8"
            }
          ],
          "internalType": "struct PixelToken.Pixel[]",
          "name": "",
          "type": "tuple[]"
        }
      ],
      "stateMutability": "view",
      "type": "function",
      "constant": true
    },
    {
      "inputs": [],
      "name": "withdraw",
      "outputs": [],
      "stateMutability": "payable",
      "type": "function",
      "payable": true
    }
  ],
  "bytecode": "0x60806040526000600755670de0b6b3a76400006008553480156200002257600080fd5b5060405162003ba838038062003ba88339818101604052810190620000489190620003c1565b818181600090805190602001906200006292919062000174565b5080600190805190602001906200007b92919062000174565b5050506200009e62000092620000a660201b60201c565b620000ae60201b60201c565b5050620004ab565b600033905090565b6000600660009054906101000a900473ffffffffffffffffffffffffffffffffffffffff16905081600660006101000a81548173ffffffffffffffffffffffffffffffffffffffff021916908373ffffffffffffffffffffffffffffffffffffffff1602179055508173ffffffffffffffffffffffffffffffffffffffff168173ffffffffffffffffffffffffffffffffffffffff167f8be0079c531659141344cd1fd0a4f28419497f9722a3daafe3b4186f6b6457e060405160405180910390a35050565b828054620001829062000475565b90600052602060002090601f016020900481019282620001a65760008555620001f2565b82601f10620001c157805160ff1916838001178555620001f2565b82800160010185558215620001f2579182015b82811115620001f1578251825591602001919060010190620001d4565b5b50905062000201919062000205565b5090565b5b808211156200022057600081600090555060010162000206565b5090565b6000604051905090565b600080fd5b600080fd5b600080fd5b600080fd5b6000601f19601f8301169050919050565b7f4e487b7100000000000000000000000000000000000000000000000000000000600052604160045260246000fd5b6200028d8262000242565b810181811067ffffffffffffffff82111715620002af57620002ae62000253565b5b80604052505050565b6000620002c462000224565b9050620002d2828262000282565b919050565b600067ffffffffffffffff821115620002f557620002f462000253565b5b620003008262000242565b9050602081019050919050565b60005b838110156200032d57808201518184015260208101905062000310565b838111156200033d576000848401525b50505050565b60006200035a6200035484620002d7565b620002b8565b9050828152602081018484840111156200037957620003786200023d565b5b620003868482856200030d565b509392505050565b600082601f830112620003a657620003a562000238565b5b8151620003b884826020860162000343565b91505092915050565b60008060408385031215620003db57620003da6200022e565b5b600083015167ffffffffffffffff811115620003fc57620003fb62000233565b5b6200040a858286016200038e565b925050602083015167ffffffffffffffff8111156200042e576200042d62000233565b5b6200043c858286016200038e565b9150509250929050565b7f4e487b7100000000000000000000000000000000000000000000000000000000600052602260045260246000fd5b600060028204905060018216806200048e57607f821691505b60208210811415620004a557620004a462000446565b5b50919050565b6136ed80620004bb6000396000f3fe60806040526004361061012a5760003560e01c80638da5cb5b116100ab578063b88d4fde1161006f578063b88d4fde146103d3578063c68d5163146103fc578063c87b56dd14610418578063e985e9c514610455578063f2fde38b14610492578063feeac619146104bb5761012a565b80638da5cb5b146102ea5780638da7f232146103155780639012c4a81461035657806395d89b411461037f578063a22cb465146103aa5761012a565b80633ccfd60b116100f25780633ccfd60b1461022657806342842e0e146102305780636352211e1461025957806370a0823114610296578063715018a6146102d35761012a565b806301ffc9a71461012f57806306fdde031461016c578063081812fc14610197578063095ea7b3146101d457806323b872dd146101fd575b600080fd5b34801561013b57600080fd5b5061015660048036038101906101519190612126565b6104e6565b604051610163919061216e565b60405180910390f35b34801561017857600080fd5b506101816105c8565b60405161018e9190612222565b60405180910390f35b3480156101a357600080fd5b506101be60048036038101906101b9919061227a565b61065a565b6040516101cb91906122e8565b60405180910390f35b3480156101e057600080fd5b506101fb60048036038101906101f6919061232f565b6106df565b005b34801561020957600080fd5b50610224600480360381019061021f919061236f565b6107f7565b005b61022e610857565b005b34801561023c57600080fd5b506102576004803603810190610252919061236f565b610929565b005b34801561026557600080fd5b50610280600480360381019061027b919061227a565b610949565b60405161028d91906122e8565b60405180910390f35b3480156102a257600080fd5b506102bd60048036038101906102b891906123c2565b6109fb565b6040516102ca91906123fe565b60405180910390f35b3480156102df57600080fd5b506102e8610ab3565b005b3480156102f657600080fd5b506102ff610b3b565b60405161030c91906122e8565b60405180910390f35b34801561032157600080fd5b5061033c6004803603810190610337919061227a565b610b65565b60405161034d959493929190612435565b60405180910390f35b34801561036257600080fd5b5061037d6004803603810190610378919061227a565b610c4d565b005b34801561038b57600080fd5b50610394610cd3565b6040516103a19190612222565b60405180910390f35b3480156103b657600080fd5b506103d160048036038101906103cc91906124bb565b610d65565b005b3480156103df57600080fd5b506103fa60048036038101906103f59190612630565b610d7b565b005b61041660048036038101906104119190612754565b610ddd565b005b34801561042457600080fd5b5061043f600480360381019061043a919061227a565b610e2e565b60405161044c9190612222565b60405180910390f35b34801561046157600080fd5b5061047c6004803603810190610477919061279d565b610ed5565b604051610489919061216e565b60405180910390f35b34801561049e57600080fd5b506104b960048036038101906104b491906123c2565b610f69565b005b3480156104c757600080fd5b506104d0611061565b6040516104dd919061297d565b60405180910390f35b60007f80ac58cd000000000000000000000000000000000000000000000000000000007bffffffffffffffffffffffffffffffffffffffffffffffffffffffff1916827bffffffffffffffffffffffffffffffffffffffffffffffffffffffff191614806105b157507f5b5e139f000000000000000000000000000000000000000000000000000000007bffffffffffffffffffffffffffffffffffffffffffffffffffffffff1916827bffffffffffffffffffffffffffffffffffffffffffffffffffffffff1916145b806105c157506105c0826111a0565b5b9050919050565b6060600080546105d7906129ce565b80601f0160208091040260200160405190810160405280929190818152602001828054610603906129ce565b80156106505780601f1061062557610100808354040283529160200191610650565b820191906000526020600020905b81548152906001019060200180831161063357829003601f168201915b5050505050905090565b60006106658261120a565b6106a4576040517f08c379a000000000000000000000000000000000000000000000000000000000815260040161069b90612a72565b60405180910390fd5b6004600083815260200190815260200160002060009054906101000a900473ffffffffffffffffffffffffffffffffffffffff169050919050565b60006106ea82610949565b90508073ffffffffffffffffffffffffffffffffffffffff168373ffffffffffffffffffffffffffffffffffffffff16141561075b576040517f08c379a000000000000000000000000000000000000000000000000000000000815260040161075290612b04565b60405180910390fd5b8073ffffffffffffffffffffffffffffffffffffffff1661077a611276565b73ffffffffffffffffffffffffffffffffffffffff1614806107a957506107a8816107a3611276565b610ed5565b5b6107e8576040517f08c379a00000000000000000000000000000000000000000000000000000000081526004016107df90612b96565b60405180910390fd5b6107f2838361127e565b505050565b610808610802611276565b82611337565b610847576040517f08c379a000000000000000000000000000000000000000000000000000000000815260040161083e90612c28565b60405180910390fd5b610852838383611415565b505050565b61085f611276565b73ffffffffffffffffffffffffffffffffffffffff1661087d610b3b565b73ffffffffffffffffffffffffffffffffffffffff16146108d3576040517f08c379a00000000000000000000000000000000000000000000000000000000081526004016108ca90612c94565b60405180910390fd5b60006108dd610b3b565b90508073ffffffffffffffffffffffffffffffffffffffff166108fc479081150290604051600060405180830381858888f19350505050158015610925573d6000803e3d6000fd5b5050565b61094483838360405180602001604052806000815250610d7b565b505050565b6000806002600084815260200190815260200160002060009054906101000a900473ffffffffffffffffffffffffffffffffffffffff169050600073ffffffffffffffffffffffffffffffffffffffff168173ffffffffffffffffffffffffffffffffffffffff1614156109f2576040517f08c379a00000000000000000000000000000000000000000000000000000000081526004016109e990612d26565b60405180910390fd5b80915050919050565b60008073ffffffffffffffffffffffffffffffffffffffff168273ffffffffffffffffffffffffffffffffffffffff161415610a6c576040517f08c379a0000000000000000000000000000000000000000000000000000000008152600401610a6390612db8565b60405180910390fd5b600360008373ffffffffffffffffffffffffffffffffffffffff1673ffffffffffffffffffffffffffffffffffffffff168152602001908152602001600020549050919050565b610abb611276565b73ffffffffffffffffffffffffffffffffffffffff16610ad9610b3b565b73ffffffffffffffffffffffffffffffffffffffff1614610b2f576040517f08c379a0000000000000000000000000000000000000000000000000000000008152600401610b2690612c94565b60405180910390fd5b610b396000611671565b565b6000600660009054906101000a900473ffffffffffffffffffffffffffffffffffffffff16905090565b60098181548110610b7557600080fd5b9060005260206000209060040201600091509050806000018054610b98906129ce565b80601f0160208091040260200160405190810160405280929190818152602001828054610bc4906129ce565b8015610c115780601f10610be657610100808354040283529160200191610c11565b820191906000526020600020905b815481529060010190602001808311610bf457829003601f168201915b5050505050908060010154908060020154908060030160009054906101000a900460ff16908060030160019054906101000a900460ff16905085565b610c55611276565b73ffffffffffffffffffffffffffffffffffffffff16610c73610b3b565b73ffffffffffffffffffffffffffffffffffffffff1614610cc9576040517f08c379a0000000000000000000000000000000000000000000000000000000008152600401610cc090612c94565b60405180910390fd5b8060088190555050565b606060018054610ce2906129ce565b80601f0160208091040260200160405190810160405280929190818152602001828054610d0e906129ce565b8015610d5b5780601f10610d3057610100808354040283529160200191610d5b565b820191906000526020600020905b815481529060010190602001808311610d3e57829003601f168201915b5050505050905090565b610d77610d70611276565b8383611737565b5050565b610d8c610d86611276565b83611337565b610dcb576040517f08c379a0000000000000000000000000000000000000000000000000000000008152600401610dc290612c28565b60405180910390fd5b610dd7848484846118a4565b50505050565b600854341015610e22576040517f08c379a0000000000000000000000000000000000000000000000000000000008152600401610e1990612e24565b60405180910390fd5b610e2b81611900565b50565b6060610e398261120a565b610e78576040517f08c379a0000000000000000000000000000000000000000000000000000000008152600401610e6f90612eb6565b60405180910390fd5b6000610e82611a73565b90506000815111610ea25760405180602001604052806000815250610ecd565b80610eac84611a8a565b604051602001610ebd929190612f12565b6040516020818303038152906040525b915050919050565b6000600560008473ffffffffffffffffffffffffffffffffffffffff1673ffffffffffffffffffffffffffffffffffffffff16815260200190815260200160002060008373ffffffffffffffffffffffffffffffffffffffff1673ffffffffffffffffffffffffffffffffffffffff16815260200190815260200160002060009054906101000a900460ff16905092915050565b610f71611276565b73ffffffffffffffffffffffffffffffffffffffff16610f8f610b3b565b73ffffffffffffffffffffffffffffffffffffffff1614610fe5576040517f08c379a0000000000000000000000000000000000000000000000000000000008152600401610fdc90612c94565b60405180910390fd5b600073ffffffffffffffffffffffffffffffffffffffff168173ffffffffffffffffffffffffffffffffffffffff161415611055576040517f08c379a000000000000000000000000000000000000000000000000000000000815260040161104c90612fa8565b60405180910390fd5b61105e81611671565b50565b60606009805480602002602001604051908101604052809291908181526020016000905b8282101561119757838290600052602060002090600402016040518060a00160405290816000820180546110b8906129ce565b80601f01602080910402602001604051908101604052809291908181526020018280546110e4906129ce565b80156111315780601f1061110657610100808354040283529160200191611131565b820191906000526020600020905b81548152906001019060200180831161111457829003601f168201915b5050505050815260200160018201548152602001600282015481526020016003820160009054906101000a900460ff1660ff1660ff1681526020016003820160019054906101000a900460ff1660ff1660ff168152505081526020019060010190611085565b50505050905090565b60007f01ffc9a7000000000000000000000000000000000000000000000000000000007bffffffffffffffffffffffffffffffffffffffffffffffffffffffff1916827bffffffffffffffffffffffffffffffffffffffffffffffffffffffff1916149050919050565b60008073ffffffffffffffffffffffffffffffffffffffff166002600084815260200190815260200160002060009054906101000a900473ffffffffffffffffffffffffffffffffffffffff1673ffffffffffffffffffffffffffffffffffffffff1614159050919050565b600033905090565b816004600083815260200190815260200160002060006101000a81548173ffffffffffffffffffffffffffffffffffffffff021916908373ffffffffffffffffffffffffffffffffffffffff160217905550808273ffffffffffffffffffffffffffffffffffffffff166112f183610949565b73ffffffffffffffffffffffffffffffffffffffff167f8c5be1e5ebec7d5bd14f71427d1e84f3dd0314c0f7b2291e5b200ac8c7c3b92560405160405180910390a45050565b60006113428261120a565b611381576040517f08c379a00000000000000000000000000000000000000000000000000000000081526004016113789061303a565b60405180910390fd5b600061138c83610949565b90508073ffffffffffffffffffffffffffffffffffffffff168473ffffffffffffffffffffffffffffffffffffffff1614806113fb57508373ffffffffffffffffffffffffffffffffffffffff166113e38461065a565b73ffffffffffffffffffffffffffffffffffffffff16145b8061140c575061140b8185610ed5565b5b91505092915050565b8273ffffffffffffffffffffffffffffffffffffffff1661143582610949565b73ffffffffffffffffffffffffffffffffffffffff161461148b576040517f08c379a0000000000000000000000000000000000000000000000000000000008152600401611482906130cc565b60405180910390fd5b600073ffffffffffffffffffffffffffffffffffffffff168273ffffffffffffffffffffffffffffffffffffffff1614156114fb576040517f08c379a00000000000000000000000000000000000000000000000000000000081526004016114f29061315e565b60405180910390fd5b611506838383611beb565b61151160008261127e565b6001600360008573ffffffffffffffffffffffffffffffffffffffff1673ffffffffffffffffffffffffffffffffffffffff168152602001908152602001600020600082825461156191906131ad565b925050819055506001600360008473ffffffffffffffffffffffffffffffffffffffff1673ffffffffffffffffffffffffffffffffffffffff16815260200190815260200160002060008282546115b891906131e1565b92505081905550816002600083815260200190815260200160002060006101000a81548173ffffffffffffffffffffffffffffffffffffffff021916908373ffffffffffffffffffffffffffffffffffffffff160217905550808273ffffffffffffffffffffffffffffffffffffffff168473ffffffffffffffffffffffffffffffffffffffff167fddf252ad1be2c89b69c2b068fc378daa952ba7f163c4a11628f55a4df523b3ef60405160405180910390a4505050565b6000600660009054906101000a900473ffffffffffffffffffffffffffffffffffffffff16905081600660006101000a81548173ffffffffffffffffffffffffffffffffffffffff021916908373ffffffffffffffffffffffffffffffffffffffff1602179055508173ffffffffffffffffffffffffffffffffffffffff168173ffffffffffffffffffffffffffffffffffffffff167f8be0079c531659141344cd1fd0a4f28419497f9722a3daafe3b4186f6b6457e060405160405180910390a35050565b8173ffffffffffffffffffffffffffffffffffffffff168373ffffffffffffffffffffffffffffffffffffffff1614156117a6576040517f08c379a000000000000000000000000000000000000000000000000000000000815260040161179d90613283565b60405180910390fd5b80600560008573ffffffffffffffffffffffffffffffffffffffff1673ffffffffffffffffffffffffffffffffffffffff16815260200190815260200160002060008473ffffffffffffffffffffffffffffffffffffffff1673ffffffffffffffffffffffffffffffffffffffff16815260200190815260200160002060006101000a81548160ff0219169083151502179055508173ffffffffffffffffffffffffffffffffffffffff168373ffffffffffffffffffffffffffffffffffffffff167f17307eab39ab6107e8899845ad3d59bd9653f200f220920489ca2b5937696c3183604051611897919061216e565b60405180910390a3505050565b6118af848484611415565b6118bb84848484611bf0565b6118fa576040517f08c379a00000000000000000000000000000000000000000000000000000000081526004016118f190613315565b60405180910390fd5b50505050565b600061190c6064611d78565b90506000611920662386f26fc10000611d78565b905060006040518060a001604052808581526020016007548152602001838152602001600160ff1681526020018460ff1681525090506009819080600181540180825580915050600190039060005260206000209060040201600090919091909150600082015181600001908051906020019061199e929190612017565b50602082015181600101556040820151816002015560608201518160030160006101000a81548160ff021916908360ff16021790555060808201518160030160016101000a81548160ff021916908360ff1602179055505050611a0333600754611dbd565b3373ffffffffffffffffffffffffffffffffffffffff167f9a1def4172ad24b7eb7331292bdfc9823479b46378644baf3c2f8a77df6e81fe60075484604051611a4d929190613335565b60405180910390a260076000815480929190611a689061335e565b919050555050505050565b606060405180602001604052806000815250905090565b60606000821415611ad2576040518060400160405280600181526020017f30000000000000000000000000000000000000000000000000000000000000008152509050611be6565b600082905060005b60008214611b04578080611aed9061335e565b915050600a82611afd91906133d6565b9150611ada565b60008167ffffffffffffffff811115611b2057611b1f612505565b5b6040519080825280601f01601f191660200182016040528015611b525781602001600182028036833780820191505090505b5090505b60008514611bdf57600182611b6b91906131ad565b9150600a85611b7a9190613407565b6030611b8691906131e1565b60f81b818381518110611b9c57611b9b613438565b5b60200101907effffffffffffffffffffffffffffffffffffffffffffffffffffffffffffff1916908160001a905350600a85611bd891906133d6565b9450611b56565b8093505050505b919050565b505050565b6000611c118473ffffffffffffffffffffffffffffffffffffffff16611ddb565b15611d6b578373ffffffffffffffffffffffffffffffffffffffff1663150b7a02611c3a611276565b8786866040518563ffffffff1660e01b8152600401611c5c94939291906134bc565b6020604051808303816000875af1925050508015611c9857506040513d601f19601f82011682018060405250810190611c95919061351d565b60015b611d1b573d8060008114611cc8576040519150601f19603f3d011682016040523d82523d6000602084013e611ccd565b606091505b50600081511415611d13576040517f08c379a0000000000000000000000000000000000000000000000000000000008152600401611d0a90613315565b60405180910390fd5b805181602001fd5b63150b7a0260e01b7bffffffffffffffffffffffffffffffffffffffffffffffffffffffff1916817bffffffffffffffffffffffffffffffffffffffffffffffffffffffff191614915050611d70565b600190505b949350505050565b6000804233604051602001611d8e9291906135b3565b6040516020818303038152906040528051906020012060001c90508281611db59190613407565b915050919050565b611dd7828260405180602001604052806000815250611dee565b5050565b600080823b905060008111915050919050565b611df88383611e49565b611e056000848484611bf0565b611e44576040517f08c379a0000000000000000000000000000000000000000000000000000000008152600401611e3b90613315565b60405180910390fd5b505050565b600073ffffffffffffffffffffffffffffffffffffffff168273ffffffffffffffffffffffffffffffffffffffff161415611eb9576040517f08c379a0000000000000000000000000000000000000000000000000000000008152600401611eb09061362b565b60405180910390fd5b611ec28161120a565b15611f02576040517f08c379a0000000000000000000000000000000000000000000000000000000008152600401611ef990613697565b60405180910390fd5b611f0e60008383611beb565b6001600360008473ffffffffffffffffffffffffffffffffffffffff1673ffffffffffffffffffffffffffffffffffffffff1681526020019081526020016000206000828254611f5e91906131e1565b92505081905550816002600083815260200190815260200160002060006101000a81548173ffffffffffffffffffffffffffffffffffffffff021916908373ffffffffffffffffffffffffffffffffffffffff160217905550808273ffffffffffffffffffffffffffffffffffffffff16600073ffffffffffffffffffffffffffffffffffffffff167fddf252ad1be2c89b69c2b068fc378daa952ba7f163c4a11628f55a4df523b3ef60405160405180910390a45050565b828054612023906129ce565b90600052602060002090601f016020900481019282612045576000855561208c565b82601f1061205e57805160ff191683800117855561208c565b8280016001018555821561208c579182015b8281111561208b578251825591602001919060010190612070565b5b509050612099919061209d565b5090565b5b808211156120b657600081600090555060010161209e565b5090565b6000604051905090565b600080fd5b600080fd5b60007fffffffff0000000000000000000000000000000000000000000000000000000082169050919050565b612103816120ce565b811461210e57600080fd5b50565b600081359050612120816120fa565b92915050565b60006020828403121561213c5761213b6120c4565b5b600061214a84828501612111565b91505092915050565b60008115159050919050565b61216881612153565b82525050565b6000602082019050612183600083018461215f565b92915050565b600081519050919050565b600082825260208201905092915050565b60005b838110156121c35780820151818401526020810190506121a8565b838111156121d2576000848401525b50505050565b6000601f19601f8301169050919050565b60006121f482612189565b6121fe8185612194565b935061220e8185602086016121a5565b612217816121d8565b840191505092915050565b6000602082019050818103600083015261223c81846121e9565b905092915050565b6000819050919050565b61225781612244565b811461226257600080fd5b50565b6000813590506122748161224e565b92915050565b6000602082840312156122905761228f6120c4565b5b600061229e84828501612265565b91505092915050565b600073ffffffffffffffffffffffffffffffffffffffff82169050919050565b60006122d2826122a7565b9050919050565b6122e2816122c7565b82525050565b60006020820190506122fd60008301846122d9565b92915050565b61230c816122c7565b811461231757600080fd5b50565b60008135905061232981612303565b92915050565b60008060408385031215612346576123456120c4565b5b60006123548582860161231a565b925050602061236585828601612265565b9150509250929050565b600080600060608486031215612388576123876120c4565b5b60006123968682870161231a565b93505060206123a78682870161231a565b92505060406123b886828701612265565b9150509250925092565b6000602082840312156123d8576123d76120c4565b5b60006123e68482850161231a565b91505092915050565b6123f881612244565b82525050565b600060208201905061241360008301846123ef565b92915050565b600060ff82169050919050565b61242f81612419565b82525050565b600060a082019050818103600083015261244f81886121e9565b905061245e60208301876123ef565b61246b60408301866123ef565b6124786060830185612426565b6124856080830184612426565b9695505050505050565b61249881612153565b81146124a357600080fd5b50565b6000813590506124b58161248f565b92915050565b600080604083850312156124d2576124d16120c4565b5b60006124e08582860161231a565b92505060206124f1858286016124a6565b9150509250929050565b600080fd5b600080fd5b7f4e487b7100000000000000000000000000000000000000000000000000000000600052604160045260246000fd5b61253d826121d8565b810181811067ffffffffffffffff8211171561255c5761255b612505565b5b80604052505050565b600061256f6120ba565b905061257b8282612534565b919050565b600067ffffffffffffffff82111561259b5761259a612505565b5b6125a4826121d8565b9050602081019050919050565b82818337600083830152505050565b60006125d36125ce84612580565b612565565b9050828152602081018484840111156125ef576125ee612500565b5b6125fa8482856125b1565b509392505050565b600082601f830112612617576126166124fb565b5b81356126278482602086016125c0565b91505092915050565b6000806000806080858703121561264a576126496120c4565b5b60006126588782880161231a565b94505060206126698782880161231a565b935050604061267a87828801612265565b925050606085013567ffffffffffffffff81111561269b5761269a6120c9565b5b6126a787828801612602565b91505092959194509250565b600067ffffffffffffffff8211156126ce576126cd612505565b5b6126d7826121d8565b9050602081019050919050565b60006126f76126f2846126b3565b612565565b90508281526020810184848401111561271357612712612500565b5b61271e8482856125b1565b509392505050565b600082601f83011261273b5761273a6124fb565b5b813561274b8482602086016126e4565b91505092915050565b60006020828403121561276a576127696120c4565b5b600082013567ffffffffffffffff811115612788576127876120c9565b5b61279484828501612726565b91505092915050565b600080604083850312156127b4576127b36120c4565b5b60006127c28582860161231a565b92505060206127d38582860161231a565b9150509250929050565b600081519050919050565b600082825260208201905092915050565b6000819050602082019050919050565b600082825260208201905092915050565b600061282582612189565b61282f8185612809565b935061283f8185602086016121a5565b612848816121d8565b840191505092915050565b61285c81612244565b82525050565b61286b81612419565b82525050565b600060a083016000830151848203600086015261288e828261281a565b91505060208301516128a36020860182612853565b5060408301516128b66040860182612853565b5060608301516128c96060860182612862565b5060808301516128dc6080860182612862565b508091505092915050565b60006128f38383612871565b905092915050565b6000602082019050919050565b6000612913826127dd565b61291d81856127e8565b93508360208202850161292f856127f9565b8060005b8581101561296b578484038952815161294c85826128e7565b9450612957836128fb565b925060208a01995050600181019050612933565b50829750879550505050505092915050565b600060208201905081810360008301526129978184612908565b905092915050565b7f4e487b7100000000000000000000000000000000000000000000000000000000600052602260045260246000fd5b600060028204905060018216806129e657607f821691505b602082108114156129fa576129f961299f565b5b50919050565b7f4552433732313a20617070726f76656420717565727920666f72206e6f6e657860008201527f697374656e7420746f6b656e0000000000000000000000000000000000000000602082015250565b6000612a5c602c83612194565b9150612a6782612a00565b604082019050919050565b60006020820190508181036000830152612a8b81612a4f565b9050919050565b7f4552433732313a20617070726f76616c20746f2063757272656e74206f776e6560008201527f7200000000000000000000000000000000000000000000000000000000000000602082015250565b6000612aee602183612194565b9150612af982612a92565b604082019050919050565b60006020820190508181036000830152612b1d81612ae1565b9050919050565b7f4552433732313a20617070726f76652063616c6c6572206973206e6f74206f7760008201527f6e6572206e6f7220617070726f76656420666f7220616c6c0000000000000000602082015250565b6000612b80603883612194565b9150612b8b82612b24565b604082019050919050565b60006020820190508181036000830152612baf81612b73565b9050919050565b7f4552433732313a207472616e736665722063616c6c6572206973206e6f74206f60008201527f776e6572206e6f7220617070726f766564000000000000000000000000000000602082015250565b6000612c12603183612194565b9150612c1d82612bb6565b604082019050919050565b60006020820190508181036000830152612c4181612c05565b9050919050565b7f4f776e61626c653a2063616c6c6572206973206e6f7420746865206f776e6572600082015250565b6000612c7e602083612194565b9150612c8982612c48565b602082019050919050565b60006020820190508181036000830152612cad81612c71565b9050919050565b7f4552433732313a206f776e657220717565727920666f72206e6f6e657869737460008201527f656e7420746f6b656e0000000000000000000000000000000000000000000000602082015250565b6000612d10602983612194565b9150612d1b82612cb4565b604082019050919050565b60006020820190508181036000830152612d3f81612d03565b9050919050565b7f4552433732313a2062616c616e636520717565727920666f7220746865207a6560008201527f726f206164647265737300000000000000000000000000000000000000000000602082015250565b6000612da2602a83612194565b9150612dad82612d46565b604082019050919050565b60006020820190508181036000830152612dd181612d95565b9050919050565b7f496e73756666696369656e742066756e64732e00000000000000000000000000600082015250565b6000612e0e601383612194565b9150612e1982612dd8565b602082019050919050565b60006020820190508181036000830152612e3d81612e01565b9050919050565b7f4552433732314d657461646174613a2055524920717565727920666f72206e6f60008201527f6e6578697374656e7420746f6b656e0000000000000000000000000000000000602082015250565b6000612ea0602f83612194565b9150612eab82612e44565b604082019050919050565b60006020820190508181036000830152612ecf81612e93565b9050919050565b600081905092915050565b6000612eec82612189565b612ef68185612ed6565b9350612f068185602086016121a5565b80840191505092915050565b6000612f1e8285612ee1565b9150612f2a8284612ee1565b91508190509392505050565b7f4f776e61626c653a206e6577206f776e657220697320746865207a65726f206160008201527f6464726573730000000000000000000000000000000000000000000000000000602082015250565b6000612f92602683612194565b9150612f9d82612f36565b604082019050919050565b60006020820190508181036000830152612fc181612f85565b9050919050565b7f4552433732313a206f70657261746f7220717565727920666f72206e6f6e657860008201527f697374656e7420746f6b656e0000000000000000000000000000000000000000602082015250565b6000613024602c83612194565b915061302f82612fc8565b604082019050919050565b6000602082019050818103600083015261305381613017565b9050919050565b7f4552433732313a207472616e73666572206f6620746f6b656e2074686174206960008201527f73206e6f74206f776e0000000000000000000000000000000000000000000000602082015250565b60006130b6602983612194565b91506130c18261305a565b604082019050919050565b600060208201905081810360008301526130e5816130a9565b9050919050565b7f4552433732313a207472616e7366657220746f20746865207a65726f2061646460008201527f7265737300000000000000000000000000000000000000000000000000000000602082015250565b6000613148602483612194565b9150613153826130ec565b604082019050919050565b600060208201905081810360008301526131778161313b565b9050919050565b7f4e487b7100000000000000000000000000000000000000000000000000000000600052601160045260246000fd5b60006131b882612244565b91506131c383612244565b9250828210156131d6576131d561317e565b5b828203905092915050565b60006131ec82612244565b91506131f783612244565b9250827fffffffffffffffffffffffffffffffffffffffffffffffffffffffffffffffff0382111561322c5761322b61317e565b5b828201905092915050565b7f4552433732313a20617070726f766520746f2063616c6c657200000000000000600082015250565b600061326d601983612194565b915061327882613237565b602082019050919050565b6000602082019050818103600083015261329c81613260565b9050919050565b7f4552433732313a207472616e7366657220746f206e6f6e20455243373231526560008201527f63656976657220696d706c656d656e7465720000000000000000000000000000602082015250565b60006132ff603283612194565b915061330a826132a3565b604082019050919050565b6000602082019050818103600083015261332e816132f2565b9050919050565b600060408201905061334a60008301856123ef565b61335760208301846123ef565b9392505050565b600061336982612244565b91507fffffffffffffffffffffffffffffffffffffffffffffffffffffffffffffffff82141561339c5761339b61317e565b5b600182019050919050565b7f4e487b7100000000000000000000000000000000000000000000000000000000600052601260045260246000fd5b60006133e182612244565b91506133ec83612244565b9250826133fc576133fb6133a7565b5b828204905092915050565b600061341282612244565b915061341d83612244565b92508261342d5761342c6133a7565b5b828206905092915050565b7f4e487b7100000000000000000000000000000000000000000000000000000000600052603260045260246000fd5b600081519050919050565b600082825260208201905092915050565b600061348e82613467565b6134988185613472565b93506134a88185602086016121a5565b6134b1816121d8565b840191505092915050565b60006080820190506134d160008301876122d9565b6134de60208301866122d9565b6134eb60408301856123ef565b81810360608301526134fd8184613483565b905095945050505050565b600081519050613517816120fa565b92915050565b600060208284031215613533576135326120c4565b5b600061354184828501613508565b91505092915050565b6000819050919050565b61356561356082612244565b61354a565b82525050565b60008160601b9050919050565b60006135838261356b565b9050919050565b600061359582613578565b9050919050565b6135ad6135a8826122c7565b61358a565b82525050565b60006135bf8285613554565b6020820191506135cf828461359c565b6014820191508190509392505050565b7f4552433732313a206d696e7420746f20746865207a65726f2061646472657373600082015250565b6000613615602083612194565b9150613620826135df565b602082019050919050565b6000602082019050818103600083015261364481613608565b9050919050565b7f4552433732313a20746f6b656e20616c7265616479206d696e74656400000000600082015250565b6000613681601c83612194565b915061368c8261364b565b602082019050919050565b600060208201905081810360008301526136b081613674565b905091905056fea2646970667358221220c35357804e534684ff32ba58e5306dd585e4d92cf9ca1779a6ced65a7837209364736f6c634300080b0033",
  "source": "// SPDX-License-Identifier: GPL-3.0\r\n\r\npragma solidity ^0.8.0;\r\n\r\nimport \"@openzeppelin/contracts/token/ERC721/ERC721.sol\";\r\nimport \"@openzeppelin/contracts/access/Ownable.sol\";\r\n\r\ncontract PixelToken is ERC721, Ownable {\r\n    uint256 COUNTER = 0;\r\n    uint256 fee = 1 ether;\r\n\r\n    struct Pixel {\r\n        string name;\r\n        uint256 id;\r\n        uint256 dna;\r\n        uint8 level;\r\n        uint8 rarity;\r\n    }\r\n\r\n    Pixel[] public pixels;\r\n    event NewPixel(address indexed owner, uint256 id, uint256 dna);\r\n\r\n    constructor(string memory _name, string memory _symbol)\r\n        ERC721(_name, _symbol)\r\n    {}\r\n\r\n    // Helpers\r\n    function _createRandomNum(uint256 _mod) internal view returns (uint256) {\r\n        uint256 randomNum = uint256(\r\n            keccak256(abi.encodePacked(block.timestamp, msg.sender))\r\n        );\r\n        return randomNum % _mod;\r\n    }\r\n\r\n    function updateFee(uint256 newFee) external onlyOwner {\r\n        fee = newFee;\r\n    }\r\n\r\n    // Creation\r\n    function _createPixel(string memory _name) internal {\r\n        uint8 randRarity = uint8(_createRandomNum(100));\r\n        uint256 randDna = _createRandomNum(10**16);\r\n\r\n        Pixel memory newPixel = Pixel(_name, COUNTER, randDna, 1, randRarity);\r\n        pixels.push(newPixel);\r\n        _safeMint(msg.sender, COUNTER);\r\n        emit NewPixel(msg.sender, COUNTER, randDna);\r\n        COUNTER++;\r\n    }\r\n\r\n    function createRandomPixel(string memory _name) public payable {\r\n        require(msg.value >= fee, \"Insufficient funds.\");\r\n        _createPixel(_name);\r\n    }\r\n\r\n    // Getters\r\n    function getPixels() public view returns (Pixel[] memory) {\r\n        return pixels;\r\n    }\r\n\r\n    function withdraw() external payable onlyOwner {\r\n        address _owner = owner();\r\n        payable(_owner).transfer(address(this).balance);\r\n    }\r\n}\r\n",
  "sourcePath": "C:\\Users\\dsita\\Desktop\\i-am-dapp\\contracts\\PixelToken.sol",
  "compiler": {
    "name": "solc",
    "version": "0.8.11+commit.d7f03943.Emscripten.clang"
  },
  "schemaVersion": "2.0.2",
  "updatedAt": "2022-01-25T19:04:33.198Z"
}