{
  "contractName": "PixelToken",
  "abi": [
    {
      "inputs": [
        {
          "internalType": "string",
          "name": "_name",
          "type": "string"
        },
        {
          "internalType": "string",
          "name": "_symbol",
          "type": "string"
        }
      ],
      "stateMutability": "nonpayable",
      "type": "constructor"
    },
    {
      "anonymous": false,
      "inputs": [
        {
          "indexed": true,
          "internalType": "address",
          "name": "owner",
          "type": "address"
        },
        {
          "indexed": true,
          "internalType": "address",
          "name": "approved",
          "type": "address"
        },
        {
          "indexed": true,
          "internalType": "uint256",
          "name": "tokenId",
          "type": "uint256"
        }
      ],
      "name": "Approval",
      "type": "event"
    },
    {
      "anonymous": false,
      "inputs": [
        {
          "indexed": true,
          "internalType": "address",
          "name": "owner",
          "type": "address"
        },
        {
          "indexed": true,
          "internalType": "address",
          "name": "operator",
          "type": "address"
        },
        {
          "indexed": false,
          "internalType": "bool",
          "name": "approved",
          "type": "bool"
        }
      ],
      "name": "ApprovalForAll",
      "type": "event"
    },
    {
      "anonymous": false,
      "inputs": [
        {
          "indexed": true,
          "internalType": "address",
          "name": "owner",
          "type": "address"
        },
        {
          "indexed": false,
          "internalType": "uint256",
          "name": "id",
          "type": "uint256"
        },
        {
          "indexed": false,
          "internalType": "uint256",
          "name": "dna",
          "type": "uint256"
        }
      ],
      "name": "NewPixel",
      "type": "event"
    },
    {
      "anonymous": false,
      "inputs": [
        {
          "indexed": true,
          "internalType": "address",
          "name": "previousOwner",
          "type": "address"
        },
        {
          "indexed": true,
          "internalType": "address",
          "name": "newOwner",
          "type": "address"
        }
      ],
      "name": "OwnershipTransferred",
      "type": "event"
    },
    {
      "anonymous": false,
      "inputs": [
        {
          "indexed": true,
          "internalType": "address",
          "name": "from",
          "type": "address"
        },
        {
          "indexed": true,
          "internalType": "address",
          "name": "to",
          "type": "address"
        },
        {
          "indexed": true,
          "internalType": "uint256",
          "name": "tokenId",
          "type": "uint256"
        }
      ],
      "name": "Transfer",
      "type": "event"
    },
    {
      "inputs": [
        {
          "internalType": "address",
          "name": "to",
          "type": "address"
        },
        {
          "internalType": "uint256",
          "name": "tokenId",
          "type": "uint256"
        }
      ],
      "name": "approve",
      "outputs": [],
      "stateMutability": "nonpayable",
      "type": "function"
    },
    {
      "inputs": [
        {
          "internalType": "address",
          "name": "owner",
          "type": "address"
        }
      ],
      "name": "balanceOf",
      "outputs": [
        {
          "internalType": "uint256",
          "name": "",
          "type": "uint256"
        }
      ],
      "stateMutability": "view",
      "type": "function",
      "constant": true
    },
    {
      "inputs": [
        {
          "internalType": "uint256",
          "name": "tokenId",
          "type": "uint256"
        }
      ],
      "name": "getApproved",
      "outputs": [
        {
          "internalType": "address",
          "name": "",
          "type": "address"
        }
      ],
      "stateMutability": "view",
      "type": "function",
      "constant": true
    },
    {
      "inputs": [
        {
          "internalType": "address",
          "name": "owner",
          "type": "address"
        },
        {
          "internalType": "address",
          "name": "operator",
          "type": "address"
        }
      ],
      "name": "isApprovedForAll",
      "outputs": [
        {
          "internalType": "bool",
          "name": "",
          "type": "bool"
        }
      ],
      "stateMutability": "view",
      "type": "function",
      "constant": true
    },
    {
      "inputs": [],
      "name": "name",
      "outputs": [
        {
          "internalType": "string",
          "name": "",
          "type": "string"
        }
      ],
      "stateMutability": "view",
      "type": "function",
      "constant": true
    },
    {
      "inputs": [],
      "name": "owner",
      "outputs": [
        {
          "internalType": "address",
          "name": "",
          "type": "address"
        }
      ],
      "stateMutability": "view",
      "type": "function",
      "constant": true
    },
    {
      "inputs": [
        {
          "internalType": "uint256",
          "name": "tokenId",
          "type": "uint256"
        }
      ],
      "name": "ownerOf",
      "outputs": [
        {
          "internalType": "address",
          "name": "",
          "type": "address"
        }
      ],
      "stateMutability": "view",
      "type": "function",
      "constant": true
    },
    {
      "inputs": [
        {
          "internalType": "uint256",
          "name": "",
          "type": "uint256"
        }
      ],
      "name": "pixels",
      "outputs": [
        {
          "internalType": "string",
          "name": "name",
          "type": "string"
        },
        {
          "internalType": "uint256",
          "name": "id",
          "type": "uint256"
        },
        {
          "internalType": "uint256",
          "name": "dna",
          "type": "uint256"
        },
        {
          "internalType": "uint8",
          "name": "level",
          "type": "uint8"
        },
        {
          "internalType": "uint8",
          "name": "rarity",
          "type": "uint8"
        }
      ],
      "stateMutability": "view",
      "type": "function",
      "constant": true
    },
    {
      "inputs": [],
      "name": "renounceOwnership",
      "outputs": [],
      "stateMutability": "nonpayable",
      "type": "function"
    },
    {
      "inputs": [
        {
          "internalType": "address",
          "name": "from",
          "type": "address"
        },
        {
          "internalType": "address",
          "name": "to",
          "type": "address"
        },
        {
          "internalType": "uint256",
          "name": "tokenId",
          "type": "uint256"
        }
      ],
      "name": "safeTransferFrom",
      "outputs": [],
      "stateMutability": "nonpayable",
      "type": "function"
    },
    {
      "inputs": [
        {
          "internalType": "address",
          "name": "from",
          "type": "address"
        },
        {
          "internalType": "address",
          "name": "to",
          "type": "address"
        },
        {
          "internalType": "uint256",
          "name": "tokenId",
          "type": "uint256"
        },
        {
          "internalType": "bytes",
          "name": "_data",
          "type": "bytes"
        }
      ],
      "name": "safeTransferFrom",
      "outputs": [],
      "stateMutability": "nonpayable",
      "type": "function"
    },
    {
      "inputs": [
        {
          "internalType": "address",
          "name": "operator",
          "type": "address"
        },
        {
          "internalType": "bool",
          "name": "approved",
          "type": "bool"
        }
      ],
      "name": "setApprovalForAll",
      "outputs": [],
      "stateMutability": "nonpayable",
      "type": "function"
    },
    {
      "inputs": [
        {
          "internalType": "bytes4",
          "name": "interfaceId",
          "type": "bytes4"
        }
      ],
      "name": "supportsInterface",
      "outputs": [
        {
          "internalType": "bool",
          "name": "",
          "type": "bool"
        }
      ],
      "stateMutability": "view",
      "type": "function",
      "constant": true
    },
    {
      "inputs": [],
      "name": "symbol",
      "outputs": [
        {
          "internalType": "string",
          "name": "",
          "type": "string"
        }
      ],
      "stateMutability": "view",
      "type": "function",
      "constant": true
    },
    {
      "inputs": [
        {
          "internalType": "uint256",
          "name": "tokenId",
          "type": "uint256"
        }
      ],
      "name": "tokenURI",
      "outputs": [
        {
          "internalType": "string",
          "name": "",
          "type": "string"
        }
      ],
      "stateMutability": "view",
      "type": "function",
      "constant": true
    },
    {
      "inputs": [
        {
          "internalType": "address",
          "name": "from",
          "type": "address"
        },
        {
          "internalType": "address",
          "name": "to",
          "type": "address"
        },
        {
          "internalType": "uint256",
          "name": "tokenId",
          "type": "uint256"
        }
      ],
      "name": "transferFrom",
      "outputs": [],
      "stateMutability": "nonpayable",
      "type": "function"
    },
    {
      "inputs": [
        {
          "internalType": "address",
          "name": "newOwner",
          "type": "address"
        }
      ],
      "name": "transferOwnership",
      "outputs": [],
      "stateMutability": "nonpayable",
      "type": "function"
    },
    {
      "inputs": [
        {
          "internalType": "uint256",
          "name": "newFee",
          "type": "uint256"
        }
      ],
      "name": "updateFee",
      "outputs": [],
      "stateMutability": "nonpayable",
      "type": "function"
    },
    {
      "inputs": [
        {
          "internalType": "string",
          "name": "_name",
          "type": "string"
        }
      ],
      "name": "createRandomPixel",
      "outputs": [],
      "stateMutability": "payable",
      "type": "function",
      "payable": true
    },
    {
      "inputs": [],
      "name": "getPixels",
      "outputs": [
        {
          "components": [
            {
              "internalType": "string",
              "name": "name",
              "type": "string"
            },
            {
              "internalType": "uint256",
              "name": "id",
              "type": "uint256"
            },
            {
              "internalType": "uint256",
              "name": "dna",
              "type": "uint256"
            },
            {
              "internalType": "uint8",
              "name": "level",
              "type": "uint8"
            },
            {
              "internalType": "uint8",
              "name": "rarity",
              "type": "uint8"
            }
          ],
          "internalType": "struct PixelToken.Pixel[]",
          "name": "",
          "type": "tuple[]"
        }
      ],
      "stateMutability": "view",
      "type": "function",
      "constant": true
    },
    {
      "inputs": [
        {
          "internalType": "address",
          "name": "_owner",
          "type": "address"
        }
      ],
      "name": "getOwnerPixels",
      "outputs": [
        {
          "components": [
            {
              "internalType": "string",
              "name": "name",
              "type": "string"
            },
            {
              "internalType": "uint256",
              "name": "id",
              "type": "uint256"
            },
            {
              "internalType": "uint256",
              "name": "dna",
              "type": "uint256"
            },
            {
              "internalType": "uint8",
              "name": "level",
              "type": "uint8"
            },
            {
              "internalType": "uint8",
              "name": "rarity",
              "type": "uint8"
            }
          ],
          "internalType": "struct PixelToken.Pixel[]",
          "name": "",
          "type": "tuple[]"
        }
      ],
      "stateMutability": "view",
      "type": "function",
      "constant": true
    },
    {
      "inputs": [],
      "name": "withdraw",
      "outputs": [],
      "stateMutability": "payable",
      "type": "function",
      "payable": true
    },
    {
      "inputs": [
        {
          "internalType": "uint256",
          "name": "_pixelId",
          "type": "uint256"
        }
      ],
      "name": "levelUp",
      "outputs": [],
      "stateMutability": "nonpayable",
      "type": "function"
    }
  ],
  "bytecode": "0x60806040526000600755670de0b6b3a76400006008553480156200002257600080fd5b50604051620026cd380380620026cd833981016040819052620000459162000262565b8151829082906200005e906000906020850190620000ef565b50805162000074906001906020840190620000ef565b505050620000916200008b6200009960201b60201c565b6200009d565b505062000309565b3390565b600680546001600160a01b038381166001600160a01b0319831681179093556040519116919082907f8be0079c531659141344cd1fd0a4f28419497f9722a3daafe3b4186f6b6457e090600090a35050565b828054620000fd90620002cc565b90600052602060002090601f0160209004810192826200012157600085556200016c565b82601f106200013c57805160ff19168380011785556200016c565b828001600101855582156200016c579182015b828111156200016c5782518255916020019190600101906200014f565b506200017a9291506200017e565b5090565b5b808211156200017a57600081556001016200017f565b634e487b7160e01b600052604160045260246000fd5b600082601f830112620001bd57600080fd5b81516001600160401b0380821115620001da57620001da62000195565b604051601f8301601f19908116603f0116810190828211818310171562000205576200020562000195565b816040528381526020925086838588010111156200022257600080fd5b600091505b8382101562000246578582018301518183018401529082019062000227565b83821115620002585760008385830101525b9695505050505050565b600080604083850312156200027657600080fd5b82516001600160401b03808211156200028e57600080fd5b6200029c86838701620001ab565b93506020850151915080821115620002b357600080fd5b50620002c285828601620001ab565b9150509250929050565b600181811c90821680620002e157607f821691505b602082108114156200030357634e487b7160e01b600052602260045260246000fd5b50919050565b6123b480620003196000396000f3fe6080604052600436106101805760003560e01c80638da5cb5b116100d6578063b88d4fde1161007f578063e985e9c511610059578063e985e9c514610425578063f2fde38b1461046e578063feeac6191461048e57600080fd5b8063b88d4fde146103d2578063c68d5163146103f2578063c87b56dd1461040557600080fd5b806395d89b41116100b057806395d89b41146103705780639a41d3c914610385578063a22cb465146103b257600080fd5b80638da5cb5b146103015780638da7f2321461031f5780639012c4a81461035057600080fd5b806323b872dd116101385780636352211e116101125780636352211e1461029e57806370a08231146102be578063715018a6146102ec57600080fd5b806323b872dd146102565780633ccfd60b1461027657806342842e0e1461027e57600080fd5b8063081812fc11610169578063081812fc146101dc578063095ea7b3146102145780630ce90ec21461023657600080fd5b806301ffc9a71461018557806306fdde03146101ba575b600080fd5b34801561019157600080fd5b506101a56101a0366004611e11565b6104a3565b60405190151581526020015b60405180910390f35b3480156101c657600080fd5b506101cf610540565b6040516101b19190611e86565b3480156101e857600080fd5b506101fc6101f7366004611e99565b6105d2565b6040516001600160a01b0390911681526020016101b1565b34801561022057600080fd5b5061023461022f366004611ece565b61067d565b005b34801561024257600080fd5b50610234610251366004611e99565b6107af565b34801561026257600080fd5b50610234610271366004611ef8565b610826565b6102346108ad565b34801561028a57600080fd5b50610234610299366004611ef8565b610957565b3480156102aa57600080fd5b506101fc6102b9366004611e99565b610972565b3480156102ca57600080fd5b506102de6102d9366004611f34565b6109fd565b6040519081526020016101b1565b3480156102f857600080fd5b50610234610a97565b34801561030d57600080fd5b506006546001600160a01b03166101fc565b34801561032b57600080fd5b5061033f61033a366004611e99565b610afd565b6040516101b1959493929190611f4f565b34801561035c57600080fd5b5061023461036b366004611e99565b610bd3565b34801561037c57600080fd5b506101cf610c32565b34801561039157600080fd5b506103a56103a0366004611f34565b610c41565b6040516101b19190611f89565b3480156103be57600080fd5b506102346103cd366004612027565b610e39565b3480156103de57600080fd5b506102346103ed3660046120ef565b610e44565b61023461040036600461216b565b610ed2565b34801561041157600080fd5b506101cf610420366004611e99565b610f30565b34801561043157600080fd5b506101a56104403660046121b4565b6001600160a01b03918216600090815260056020908152604080832093909416825291909152205460ff1690565b34801561047a57600080fd5b50610234610489366004611f34565b611026565b34801561049a57600080fd5b506103a5611105565b60006001600160e01b031982167f80ac58cd00000000000000000000000000000000000000000000000000000000148061050657506001600160e01b031982167f5b5e139f00000000000000000000000000000000000000000000000000000000145b8061053a57507f01ffc9a7000000000000000000000000000000000000000000000000000000006001600160e01b03198316145b92915050565b60606000805461054f906121e7565b80601f016020809104026020016040519081016040528092919081815260200182805461057b906121e7565b80156105c85780601f1061059d576101008083540402835291602001916105c8565b820191906000526020600020905b8154815290600101906020018083116105ab57829003601f168201915b5050505050905090565b6000818152600260205260408120546001600160a01b03166106615760405162461bcd60e51b815260206004820152602c60248201527f4552433732313a20617070726f76656420717565727920666f72206e6f6e657860448201527f697374656e7420746f6b656e000000000000000000000000000000000000000060648201526084015b60405180910390fd5b506000908152600460205260409020546001600160a01b031690565b600061068882610972565b9050806001600160a01b0316836001600160a01b031614156107125760405162461bcd60e51b815260206004820152602160248201527f4552433732313a20617070726f76616c20746f2063757272656e74206f776e6560448201527f72000000000000000000000000000000000000000000000000000000000000006064820152608401610658565b336001600160a01b038216148061072e575061072e8133610440565b6107a05760405162461bcd60e51b815260206004820152603860248201527f4552433732313a20617070726f76652063616c6c6572206973206e6f74206f7760448201527f6e6572206e6f7220617070726f76656420666f7220616c6c00000000000000006064820152608401610658565b6107aa838361122b565b505050565b336107b982610972565b6001600160a01b0316146107cc57600080fd5b6000600982815481106107e1576107e1612222565b6000918252602082206003600490920201908101805491935060ff909116916108098361224e565b91906101000a81548160ff021916908360ff160217905550505050565b61083033826112a6565b6108a25760405162461bcd60e51b815260206004820152603160248201527f4552433732313a207472616e736665722063616c6c6572206973206e6f74206f60448201527f776e6572206e6f7220617070726f7665640000000000000000000000000000006064820152608401610658565b6107aa8383836113ae565b6006546001600160a01b031633146109075760405162461bcd60e51b815260206004820181905260248201527f4f776e61626c653a2063616c6c6572206973206e6f7420746865206f776e65726044820152606401610658565b600061091b6006546001600160a01b031690565b6040519091506001600160a01b038216904780156108fc02916000818181858888f19350505050158015610953573d6000803e3d6000fd5b5050565b6107aa83838360405180602001604052806000815250610e44565b6000818152600260205260408120546001600160a01b03168061053a5760405162461bcd60e51b815260206004820152602960248201527f4552433732313a206f776e657220717565727920666f72206e6f6e657869737460448201527f656e7420746f6b656e00000000000000000000000000000000000000000000006064820152608401610658565b60006001600160a01b038216610a7b5760405162461bcd60e51b815260206004820152602a60248201527f4552433732313a2062616c616e636520717565727920666f7220746865207a6560448201527f726f2061646472657373000000000000000000000000000000000000000000006064820152608401610658565b506001600160a01b031660009081526003602052604090205490565b6006546001600160a01b03163314610af15760405162461bcd60e51b815260206004820181905260248201527f4f776e61626c653a2063616c6c6572206973206e6f7420746865206f776e65726044820152606401610658565b610afb6000611588565b565b60098181548110610b0d57600080fd5b9060005260206000209060040201600091509050806000018054610b30906121e7565b80601f0160208091040260200160405190810160405280929190818152602001828054610b5c906121e7565b8015610ba95780601f10610b7e57610100808354040283529160200191610ba9565b820191906000526020600020905b815481529060010190602001808311610b8c57829003601f168201915b50505050600183015460028401546003909401549293909290915060ff8082169161010090041685565b6006546001600160a01b03163314610c2d5760405162461bcd60e51b815260206004820181905260248201527f4f776e61626c653a2063616c6c6572206973206e6f7420746865206f776e65726044820152606401610658565b600855565b60606001805461054f906121e7565b60606000610c4e836109fd565b67ffffffffffffffff811115610c6657610c66612063565b604051908082528060200260200182016040528015610ccf57816020015b610cbc6040518060a00160405280606081526020016000815260200160008152602001600060ff168152602001600060ff1681525090565b815260200190600190039081610c845790505b5090506000805b600954811015610e3057846001600160a01b0316610cf382610972565b6001600160a01b03161415610e1e5760098181548110610d1557610d15612222565b90600052602060002090600402016040518060a0016040529081600082018054610d3e906121e7565b80601f0160208091040260200160405190810160405280929190818152602001828054610d6a906121e7565b8015610db75780601f10610d8c57610100808354040283529160200191610db7565b820191906000526020600020905b815481529060010190602001808311610d9a57829003601f168201915b5050509183525050600182015460208201526002820154604082015260039091015460ff8082166060840152610100909104166080909101528351849084908110610e0457610e04612222565b60200260200101819052508180610e1a9061226e565b9250505b80610e288161226e565b915050610cd6565b50909392505050565b6109533383836115e7565b610e4e33836112a6565b610ec05760405162461bcd60e51b815260206004820152603160248201527f4552433732313a207472616e736665722063616c6c6572206973206e6f74206f60448201527f776e6572206e6f7220617070726f7665640000000000000000000000000000006064820152608401610658565b610ecc848484846116b6565b50505050565b600854341015610f245760405162461bcd60e51b815260206004820152601360248201527f496e73756666696369656e742066756e64732e000000000000000000000000006044820152606401610658565b610f2d8161173f565b50565b6000818152600260205260409020546060906001600160a01b0316610fbd5760405162461bcd60e51b815260206004820152602f60248201527f4552433732314d657461646174613a2055524920717565727920666f72206e6f60448201527f6e6578697374656e7420746f6b656e00000000000000000000000000000000006064820152608401610658565b6000610fd460408051602081019091526000815290565b90506000815111610ff4576040518060200160405280600081525061101f565b80610ffe84611887565b60405160200161100f929190612289565b6040516020818303038152906040525b9392505050565b6006546001600160a01b031633146110805760405162461bcd60e51b815260206004820181905260248201527f4f776e61626c653a2063616c6c6572206973206e6f7420746865206f776e65726044820152606401610658565b6001600160a01b0381166110fc5760405162461bcd60e51b815260206004820152602660248201527f4f776e61626c653a206e6577206f776e657220697320746865207a65726f206160448201527f64647265737300000000000000000000000000000000000000000000000000006064820152608401610658565b610f2d81611588565b60606009805480602002602001604051908101604052809291908181526020016000905b8282101561122257838290600052602060002090600402016040518060a001604052908160008201805461115c906121e7565b80601f0160208091040260200160405190810160405280929190818152602001828054611188906121e7565b80156111d55780601f106111aa576101008083540402835291602001916111d5565b820191906000526020600020905b8154815290600101906020018083116111b857829003601f168201915b50505091835250506001828101546020808401919091526002840154604084015260039093015460ff80821660608501526101009091041660809092019190915291835292019101611129565b50505050905090565b6000818152600460205260409020805473ffffffffffffffffffffffffffffffffffffffff19166001600160a01b038416908117909155819061126d82610972565b6001600160a01b03167f8c5be1e5ebec7d5bd14f71427d1e84f3dd0314c0f7b2291e5b200ac8c7c3b92560405160405180910390a45050565b6000818152600260205260408120546001600160a01b03166113305760405162461bcd60e51b815260206004820152602c60248201527f4552433732313a206f70657261746f7220717565727920666f72206e6f6e657860448201527f697374656e7420746f6b656e00000000000000000000000000000000000000006064820152608401610658565b600061133b83610972565b9050806001600160a01b0316846001600160a01b031614806113765750836001600160a01b031661136b846105d2565b6001600160a01b0316145b806113a657506001600160a01b0380821660009081526005602090815260408083209388168352929052205460ff165b949350505050565b826001600160a01b03166113c182610972565b6001600160a01b03161461143d5760405162461bcd60e51b815260206004820152602960248201527f4552433732313a207472616e73666572206f6620746f6b656e2074686174206960448201527f73206e6f74206f776e00000000000000000000000000000000000000000000006064820152608401610658565b6001600160a01b0382166114b85760405162461bcd60e51b8152602060048201526024808201527f4552433732313a207472616e7366657220746f20746865207a65726f2061646460448201527f72657373000000000000000000000000000000000000000000000000000000006064820152608401610658565b6114c360008261122b565b6001600160a01b03831660009081526003602052604081208054600192906114ec9084906122b8565b90915550506001600160a01b038216600090815260036020526040812080546001929061151a9084906122cf565b9091555050600081815260026020526040808220805473ffffffffffffffffffffffffffffffffffffffff19166001600160a01b0386811691821790925591518493918716917fddf252ad1be2c89b69c2b068fc378daa952ba7f163c4a11628f55a4df523b3ef91a4505050565b600680546001600160a01b0383811673ffffffffffffffffffffffffffffffffffffffff19831681179093556040519116919082907f8be0079c531659141344cd1fd0a4f28419497f9722a3daafe3b4186f6b6457e090600090a35050565b816001600160a01b0316836001600160a01b031614156116495760405162461bcd60e51b815260206004820152601960248201527f4552433732313a20617070726f766520746f2063616c6c6572000000000000006044820152606401610658565b6001600160a01b03838116600081815260056020908152604080832094871680845294825291829020805460ff191686151590811790915591519182527f17307eab39ab6107e8899845ad3d59bd9653f200f220920489ca2b5937696c31910160405180910390a3505050565b6116c18484846113ae565b6116cd848484846119b9565b610ecc5760405162461bcd60e51b815260206004820152603260248201527f4552433732313a207472616e7366657220746f206e6f6e20455243373231526560448201527f63656976657220696d706c656d656e74657200000000000000000000000000006064820152608401610658565b600061174b6064611b0d565b9050600061175f662386f26fc10000611b0d565b6040805160a08101825285815260075460208083019190915291810183905260016060820181905260ff86166080830152600980549182018155600052815180519495509193849360049092027f6e1540171b6c0c960b71a7020d9f60077f6af931a8bbf590da0223dacf75c7af01926117dd928492910190611d62565b50602082015160018201556040820151600282015560608201516003909101805460809093015160ff9081166101000261ffff1990941692169190911791909117905560075461182e903390611b75565b600754604080519182526020820184905233917f9a1def4172ad24b7eb7331292bdfc9823479b46378644baf3c2f8a77df6e81fe910160405180910390a26007805490600061187c8361226e565b919050555050505050565b6060816118c757505060408051808201909152600181527f3000000000000000000000000000000000000000000000000000000000000000602082015290565b8160005b81156118f157806118db8161226e565b91506118ea9050600a836122fd565b91506118cb565b60008167ffffffffffffffff81111561190c5761190c612063565b6040519080825280601f01601f191660200182016040528015611936576020820181803683370190505b5090505b84156113a65761194b6001836122b8565b9150611958600a86612311565b6119639060306122cf565b60f81b81838151811061197857611978612222565b60200101907effffffffffffffffffffffffffffffffffffffffffffffffffffffffffffff1916908160001a9053506119b2600a866122fd565b945061193a565b60006001600160a01b0384163b15611b0257604051630a85bd0160e11b81526001600160a01b0385169063150b7a02906119fd903390899088908890600401612325565b6020604051808303816000875af1925050508015611a38575060408051601f3d908101601f19168201909252611a3591810190612361565b60015b611ae8573d808015611a66576040519150601f19603f3d011682016040523d82523d6000602084013e611a6b565b606091505b508051611ae05760405162461bcd60e51b815260206004820152603260248201527f4552433732313a207472616e7366657220746f206e6f6e20455243373231526560448201527f63656976657220696d706c656d656e74657200000000000000000000000000006064820152608401610658565b805181602001fd5b6001600160e01b031916630a85bd0160e11b1490506113a6565b506001949350505050565b6000804233604051602001611b5192919091825260601b7fffffffffffffffffffffffffffffffffffffffff00000000000000000000000016602082015260340190565b60408051601f198184030181529190528051602090910120905061101f8382612311565b610953828260405180602001604052806000815250611b948383611c13565b611ba160008484846119b9565b6107aa5760405162461bcd60e51b815260206004820152603260248201527f4552433732313a207472616e7366657220746f206e6f6e20455243373231526560448201527f63656976657220696d706c656d656e74657200000000000000000000000000006064820152608401610658565b6001600160a01b038216611c695760405162461bcd60e51b815260206004820181905260248201527f4552433732313a206d696e7420746f20746865207a65726f20616464726573736044820152606401610658565b6000818152600260205260409020546001600160a01b031615611cce5760405162461bcd60e51b815260206004820152601c60248201527f4552433732313a20746f6b656e20616c7265616479206d696e746564000000006044820152606401610658565b6001600160a01b0382166000908152600360205260408120805460019290611cf79084906122cf565b9091555050600081815260026020526040808220805473ffffffffffffffffffffffffffffffffffffffff19166001600160a01b03861690811790915590518392907fddf252ad1be2c89b69c2b068fc378daa952ba7f163c4a11628f55a4df523b3ef908290a45050565b828054611d6e906121e7565b90600052602060002090601f016020900481019282611d905760008555611dd6565b82601f10611da957805160ff1916838001178555611dd6565b82800160010185558215611dd6579182015b82811115611dd6578251825591602001919060010190611dbb565b50611de2929150611de6565b5090565b5b80821115611de25760008155600101611de7565b6001600160e01b031981168114610f2d57600080fd5b600060208284031215611e2357600080fd5b813561101f81611dfb565b60005b83811015611e49578181015183820152602001611e31565b83811115610ecc5750506000910152565b60008151808452611e72816020860160208601611e2e565b601f01601f19169290920160200192915050565b60208152600061101f6020830184611e5a565b600060208284031215611eab57600080fd5b5035919050565b80356001600160a01b0381168114611ec957600080fd5b919050565b60008060408385031215611ee157600080fd5b611eea83611eb2565b946020939093013593505050565b600080600060608486031215611f0d57600080fd5b611f1684611eb2565b9250611f2460208501611eb2565b9150604084013590509250925092565b600060208284031215611f4657600080fd5b61101f82611eb2565b60a081526000611f6260a0830188611e5a565b602083019690965250604081019390935260ff918216606084015216608090910152919050565b60006020808301818452808551808352604092508286019150828160051b87010184880160005b8381101561201957603f19898403018552815160a08151818652611fd682870182611e5a565b838b0151878c0152898401518a88015260608085015160ff9081169189019190915260809485015116939096019290925250509386019390860190600101611fb0565b509098975050505050505050565b6000806040838503121561203a57600080fd5b61204383611eb2565b91506020830135801515811461205857600080fd5b809150509250929050565b634e487b7160e01b600052604160045260246000fd5b600067ffffffffffffffff8084111561209457612094612063565b604051601f8501601f19908116603f011681019082821181831017156120bc576120bc612063565b816040528093508581528686860111156120d557600080fd5b858560208301376000602087830101525050509392505050565b6000806000806080858703121561210557600080fd5b61210e85611eb2565b935061211c60208601611eb2565b925060408501359150606085013567ffffffffffffffff81111561213f57600080fd5b8501601f8101871361215057600080fd5b61215f87823560208401612079565b91505092959194509250565b60006020828403121561217d57600080fd5b813567ffffffffffffffff81111561219457600080fd5b8201601f810184136121a557600080fd5b6113a684823560208401612079565b600080604083850312156121c757600080fd5b6121d083611eb2565b91506121de60208401611eb2565b90509250929050565b600181811c908216806121fb57607f821691505b6020821081141561221c57634e487b7160e01b600052602260045260246000fd5b50919050565b634e487b7160e01b600052603260045260246000fd5b634e487b7160e01b600052601160045260246000fd5b600060ff821660ff81141561226557612265612238565b60010192915050565b600060001982141561228257612282612238565b5060010190565b6000835161229b818460208801611e2e565b8351908301906122af818360208801611e2e565b01949350505050565b6000828210156122ca576122ca612238565b500390565b600082198211156122e2576122e2612238565b500190565b634e487b7160e01b600052601260045260246000fd5b60008261230c5761230c6122e7565b500490565b600082612320576123206122e7565b500690565b60006001600160a01b038087168352808616602084015250836040830152608060608301526123576080830184611e5a565b9695505050505050565b60006020828403121561237357600080fd5b815161101f81611dfb56fea26469706673582212207a2e1b73bace0a962506b777060363ee668b05862885e96cc1129fee8f4459e864736f6c634300080b0033",
  "immutableReferences": {},
  "source": "// SPDX-License-Identifier: MIT\r\n\r\npragma solidity ^0.8.0;\r\n\r\nimport \"@openzeppelin/contracts/token/ERC721/ERC721.sol\";\r\n\r\nimport \"@openzeppelin/contracts/access/Ownable.sol\";\r\n\r\ncontract PixelToken is ERC721, Ownable {\r\n    uint256 COUNTER = 0;\r\n    uint256 fee = 1 ether;\r\n\r\n    struct Pixel {\r\n        string name;\r\n        uint256 id;\r\n        uint256 dna;\r\n        uint8 level;\r\n        uint8 rarity;\r\n    }\r\n\r\n    Pixel[] public pixels;\r\n    event NewPixel(address indexed owner, uint256 id, uint256 dna);\r\n\r\n    constructor(string memory _name, string memory _symbol)\r\n        ERC721(_name, _symbol)\r\n    {}\r\n\r\n    // Helpers\r\n    function _createRandomNum(uint256 _mod) internal view returns (uint256) {\r\n        uint256 randomNum = uint256(\r\n            keccak256(abi.encodePacked(block.timestamp, msg.sender))\r\n        );\r\n        return randomNum % _mod;\r\n    }\r\n\r\n    function updateFee(uint256 newFee) external onlyOwner {\r\n        fee = newFee;\r\n    }\r\n\r\n    // Creation\r\n    function _createPixel(string memory _name) internal {\r\n        uint8 randRarity = uint8(_createRandomNum(100));\r\n        uint256 randDna = _createRandomNum(10**16);\r\n\r\n        Pixel memory newPixel = Pixel(_name, COUNTER, randDna, 1, randRarity);\r\n        pixels.push(newPixel);\r\n        _safeMint(msg.sender, COUNTER);\r\n        emit NewPixel(msg.sender, COUNTER, randDna);\r\n        COUNTER++;\r\n    }\r\n\r\n    function createRandomPixel(string memory _name) public payable {\r\n        require(msg.value >= fee, \"Insufficient funds.\");\r\n        _createPixel(_name);\r\n    }\r\n\r\n    // Getters\r\n    function getPixels() public view returns (Pixel[] memory) {\r\n        return pixels;\r\n    }\r\n\r\n    function getOwnerPixels(address _owner)\r\n        public\r\n        view\r\n        returns (Pixel[] memory)\r\n    {\r\n        Pixel[] memory result = new Pixel[](balanceOf(_owner));\r\n        uint256 counter = 0;\r\n        for (uint256 i = 0; i < pixels.length; i++) {\r\n            if (ownerOf(i) == _owner) {\r\n                result[counter] = pixels[i];\r\n                counter++;\r\n            }\r\n        }\r\n        return result;\r\n    }\r\n\r\n    function withdraw() external payable onlyOwner {\r\n        address _owner = owner();\r\n        payable(_owner).transfer(address(this).balance);\r\n    }\r\n\r\n    //actions\r\n    function levelUp(uint256 _pixelId) public {\r\n        require(ownerOf(_pixelId) == msg.sender);\r\n        Pixel storage pixel = pixels[_pixelId];\r\n        pixel.level++;\r\n    }\r\n}\r\n",
  "sourcePath": "C:\\Users\\dsita\\Desktop\\i-am-dapp\\contracts\\PixelToken.sol",
  "compiler": {
    "name": "solc",
    "version": "0.8.11+commit.d7f03943.Emscripten.clang"
  },
  "schemaVersion": "3.4.4",
  "updatedAt": "2022-01-26T02:46:52.157Z",
  "networkType": "ethereum",
  "devdoc": {
    "kind": "dev",
    "methods": {
      "approve(address,uint256)": {
        "details": "See {IERC721-approve}."
      },
      "balanceOf(address)": {
        "details": "See {IERC721-balanceOf}."
      },
      "getApproved(uint256)": {
        "details": "See {IERC721-getApproved}."
      },
      "isApprovedForAll(address,address)": {
        "details": "See {IERC721-isApprovedForAll}."
      },
      "name()": {
        "details": "See {IERC721Metadata-name}."
      },
      "owner()": {
        "details": "Returns the address of the current owner."
      },
      "ownerOf(uint256)": {
        "details": "See {IERC721-ownerOf}."
      },
      "renounceOwnership()": {
        "details": "Leaves the contract without owner. It will not be possible to call `onlyOwner` functions anymore. Can only be called by the current owner. NOTE: Renouncing ownership will leave the contract without an owner, thereby removing any functionality that is only available to the owner."
      },
      "safeTransferFrom(address,address,uint256)": {
        "details": "See {IERC721-safeTransferFrom}."
      },
      "safeTransferFrom(address,address,uint256,bytes)": {
        "details": "See {IERC721-safeTransferFrom}."
      },
      "setApprovalForAll(address,bool)": {
        "details": "See {IERC721-setApprovalForAll}."
      },
      "supportsInterface(bytes4)": {
        "details": "See {IERC165-supportsInterface}."
      },
      "symbol()": {
        "details": "See {IERC721Metadata-symbol}."
      },
      "tokenURI(uint256)": {
        "details": "See {IERC721Metadata-tokenURI}."
      },
      "transferFrom(address,address,uint256)": {
        "details": "See {IERC721-transferFrom}."
      },
      "transferOwnership(address)": {
        "details": "Transfers ownership of the contract to a new account (`newOwner`). Can only be called by the current owner."
      }
    },
    "version": 1
  },
  "userdoc": {
    "kind": "user",
    "methods": {},
    "version": 1
  }
}