{
  "contractName": "SeekerToken",
  "abi": [
    {
      "inputs": [
        {
          "internalType": "string",
          "name": "_name",
          "type": "string"
        },
        {
          "internalType": "string",
          "name": "_symbol",
          "type": "string"
        }
      ],
      "stateMutability": "nonpayable",
      "type": "constructor"
    },
    {
      "anonymous": false,
      "inputs": [
        {
          "indexed": true,
          "internalType": "address",
          "name": "owner",
          "type": "address"
        },
        {
          "indexed": true,
          "internalType": "address",
          "name": "approved",
          "type": "address"
        },
        {
          "indexed": true,
          "internalType": "uint256",
          "name": "tokenId",
          "type": "uint256"
        }
      ],
      "name": "Approval",
      "type": "event"
    },
    {
      "anonymous": false,
      "inputs": [
        {
          "indexed": true,
          "internalType": "address",
          "name": "owner",
          "type": "address"
        },
        {
          "indexed": true,
          "internalType": "address",
          "name": "operator",
          "type": "address"
        },
        {
          "indexed": false,
          "internalType": "bool",
          "name": "approved",
          "type": "bool"
        }
      ],
      "name": "ApprovalForAll",
      "type": "event"
    },
    {
      "anonymous": false,
      "inputs": [
        {
          "indexed": true,
          "internalType": "address",
          "name": "owner",
          "type": "address"
        },
        {
          "indexed": false,
          "internalType": "uint256",
          "name": "id",
          "type": "uint256"
        },
        {
          "indexed": false,
          "internalType": "string",
          "name": "uri",
          "type": "string"
        }
      ],
      "name": "NewSeeker",
      "type": "event"
    },
    {
      "anonymous": false,
      "inputs": [
        {
          "indexed": true,
          "internalType": "address",
          "name": "previousOwner",
          "type": "address"
        },
        {
          "indexed": true,
          "internalType": "address",
          "name": "newOwner",
          "type": "address"
        }
      ],
      "name": "OwnershipTransferred",
      "type": "event"
    },
    {
      "anonymous": false,
      "inputs": [
        {
          "indexed": true,
          "internalType": "address",
          "name": "from",
          "type": "address"
        },
        {
          "indexed": true,
          "internalType": "address",
          "name": "to",
          "type": "address"
        },
        {
          "indexed": true,
          "internalType": "uint256",
          "name": "tokenId",
          "type": "uint256"
        }
      ],
      "name": "Transfer",
      "type": "event"
    },
    {
      "inputs": [],
      "name": "MAX_SUPPLY",
      "outputs": [
        {
          "internalType": "uint256",
          "name": "",
          "type": "uint256"
        }
      ],
      "stateMutability": "view",
      "type": "function",
      "constant": true
    },
    {
      "inputs": [
        {
          "internalType": "address",
          "name": "to",
          "type": "address"
        },
        {
          "internalType": "uint256",
          "name": "tokenId",
          "type": "uint256"
        }
      ],
      "name": "approve",
      "outputs": [],
      "stateMutability": "nonpayable",
      "type": "function"
    },
    {
      "inputs": [
        {
          "internalType": "address",
          "name": "owner",
          "type": "address"
        }
      ],
      "name": "balanceOf",
      "outputs": [
        {
          "internalType": "uint256",
          "name": "",
          "type": "uint256"
        }
      ],
      "stateMutability": "view",
      "type": "function",
      "constant": true
    },
    {
      "inputs": [
        {
          "internalType": "uint256",
          "name": "tokenId",
          "type": "uint256"
        }
      ],
      "name": "getApproved",
      "outputs": [
        {
          "internalType": "address",
          "name": "",
          "type": "address"
        }
      ],
      "stateMutability": "view",
      "type": "function",
      "constant": true
    },
    {
      "inputs": [
        {
          "internalType": "address",
          "name": "owner",
          "type": "address"
        },
        {
          "internalType": "address",
          "name": "operator",
          "type": "address"
        }
      ],
      "name": "isApprovedForAll",
      "outputs": [
        {
          "internalType": "bool",
          "name": "",
          "type": "bool"
        }
      ],
      "stateMutability": "view",
      "type": "function",
      "constant": true
    },
    {
      "inputs": [],
      "name": "name",
      "outputs": [
        {
          "internalType": "string",
          "name": "",
          "type": "string"
        }
      ],
      "stateMutability": "view",
      "type": "function",
      "constant": true
    },
    {
      "inputs": [],
      "name": "owner",
      "outputs": [
        {
          "internalType": "address",
          "name": "",
          "type": "address"
        }
      ],
      "stateMutability": "view",
      "type": "function",
      "constant": true
    },
    {
      "inputs": [
        {
          "internalType": "uint256",
          "name": "tokenId",
          "type": "uint256"
        }
      ],
      "name": "ownerOf",
      "outputs": [
        {
          "internalType": "address",
          "name": "",
          "type": "address"
        }
      ],
      "stateMutability": "view",
      "type": "function",
      "constant": true
    },
    {
      "inputs": [],
      "name": "renounceOwnership",
      "outputs": [],
      "stateMutability": "nonpayable",
      "type": "function"
    },
    {
      "inputs": [
        {
          "internalType": "address",
          "name": "from",
          "type": "address"
        },
        {
          "internalType": "address",
          "name": "to",
          "type": "address"
        },
        {
          "internalType": "uint256",
          "name": "tokenId",
          "type": "uint256"
        }
      ],
      "name": "safeTransferFrom",
      "outputs": [],
      "stateMutability": "nonpayable",
      "type": "function"
    },
    {
      "inputs": [
        {
          "internalType": "address",
          "name": "from",
          "type": "address"
        },
        {
          "internalType": "address",
          "name": "to",
          "type": "address"
        },
        {
          "internalType": "uint256",
          "name": "tokenId",
          "type": "uint256"
        },
        {
          "internalType": "bytes",
          "name": "_data",
          "type": "bytes"
        }
      ],
      "name": "safeTransferFrom",
      "outputs": [],
      "stateMutability": "nonpayable",
      "type": "function"
    },
    {
      "inputs": [
        {
          "internalType": "address",
          "name": "operator",
          "type": "address"
        },
        {
          "internalType": "bool",
          "name": "approved",
          "type": "bool"
        }
      ],
      "name": "setApprovalForAll",
      "outputs": [],
      "stateMutability": "nonpayable",
      "type": "function"
    },
    {
      "inputs": [
        {
          "internalType": "bytes4",
          "name": "interfaceId",
          "type": "bytes4"
        }
      ],
      "name": "supportsInterface",
      "outputs": [
        {
          "internalType": "bool",
          "name": "",
          "type": "bool"
        }
      ],
      "stateMutability": "view",
      "type": "function",
      "constant": true
    },
    {
      "inputs": [],
      "name": "symbol",
      "outputs": [
        {
          "internalType": "string",
          "name": "",
          "type": "string"
        }
      ],
      "stateMutability": "view",
      "type": "function",
      "constant": true
    },
    {
      "inputs": [
        {
          "internalType": "address",
          "name": "from",
          "type": "address"
        },
        {
          "internalType": "address",
          "name": "to",
          "type": "address"
        },
        {
          "internalType": "uint256",
          "name": "tokenId",
          "type": "uint256"
        }
      ],
      "name": "transferFrom",
      "outputs": [],
      "stateMutability": "nonpayable",
      "type": "function"
    },
    {
      "inputs": [
        {
          "internalType": "address",
          "name": "newOwner",
          "type": "address"
        }
      ],
      "name": "transferOwnership",
      "outputs": [],
      "stateMutability": "nonpayable",
      "type": "function"
    },
    {
      "inputs": [
        {
          "internalType": "uint256",
          "name": "_tokenId",
          "type": "uint256"
        }
      ],
      "name": "tokenURI",
      "outputs": [
        {
          "internalType": "string",
          "name": "",
          "type": "string"
        }
      ],
      "stateMutability": "view",
      "type": "function",
      "constant": true
    },
    {
      "inputs": [
        {
          "internalType": "uint256",
          "name": "newFee",
          "type": "uint256"
        }
      ],
      "name": "updateMintFee",
      "outputs": [],
      "stateMutability": "nonpayable",
      "type": "function"
    },
    {
      "inputs": [
        {
          "internalType": "string",
          "name": "_uri",
          "type": "string"
        }
      ],
      "name": "mint",
      "outputs": [],
      "stateMutability": "payable",
      "type": "function",
      "payable": true
    },
    {
      "inputs": [],
      "name": "getAllSeekers",
      "outputs": [
        {
          "components": [
            {
              "internalType": "uint256",
              "name": "id",
              "type": "uint256"
            },
            {
              "internalType": "string",
              "name": "uri",
              "type": "string"
            }
          ],
          "internalType": "struct SeekerToken.Seeker[]",
          "name": "",
          "type": "tuple[]"
        }
      ],
      "stateMutability": "view",
      "type": "function",
      "constant": true
    },
    {
      "inputs": [],
      "name": "getOwnerSeekers",
      "outputs": [
        {
          "components": [
            {
              "internalType": "uint256",
              "name": "id",
              "type": "uint256"
            },
            {
              "internalType": "string",
              "name": "uri",
              "type": "string"
            }
          ],
          "internalType": "struct SeekerToken.Seeker[]",
          "name": "",
          "type": "tuple[]"
        }
      ],
      "stateMutability": "view",
      "type": "function",
      "constant": true
    },
    {
      "inputs": [],
      "name": "withdraw",
      "outputs": [],
      "stateMutability": "payable",
      "type": "function",
      "payable": true
    }
  ],
  "bytecode": "0x60806040526000600755662386f26fc100006008553480156200002157600080fd5b50604051620026b2380380620026b2833981016040819052620000449162000261565b8151829082906200005d906000906020850190620000ee565b50805162000073906001906020840190620000ee565b505050620000906200008a6200009860201b60201c565b6200009c565b505062000308565b3390565b600680546001600160a01b038381166001600160a01b0319831681179093556040519116919082907f8be0079c531659141344cd1fd0a4f28419497f9722a3daafe3b4186f6b6457e090600090a35050565b828054620000fc90620002cb565b90600052602060002090601f0160209004810192826200012057600085556200016b565b82601f106200013b57805160ff19168380011785556200016b565b828001600101855582156200016b579182015b828111156200016b5782518255916020019190600101906200014e565b50620001799291506200017d565b5090565b5b808211156200017957600081556001016200017e565b634e487b7160e01b600052604160045260246000fd5b600082601f830112620001bc57600080fd5b81516001600160401b0380821115620001d957620001d962000194565b604051601f8301601f19908116603f0116810190828211818310171562000204576200020462000194565b816040528381526020925086838588010111156200022157600080fd5b600091505b8382101562000245578582018301518183018401529082019062000226565b83821115620002575760008385830101525b9695505050505050565b600080604083850312156200027557600080fd5b82516001600160401b03808211156200028d57600080fd5b6200029b86838701620001aa565b93506020850151915080821115620002b257600080fd5b50620002c185828601620001aa565b9150509250929050565b600181811c90821680620002e057607f821691505b602082108114156200030257634e487b7160e01b600052602260045260246000fd5b50919050565b61239a80620003186000396000f3fe6080604052600436106101755760003560e01c806384017e52116100cb578063b49c0d021161007f578063d85d3d2711610059578063d85d3d27146103d6578063e985e9c5146103e9578063f2fde38b1461043257600080fd5b8063b49c0d0214610381578063b88d4fde14610396578063c87b56dd146103b657600080fd5b806395d89b41116100b057806395d89b411461032a578063a22cb4651461033f578063acb4a8891461035f57600080fd5b806384017e52146102ec5780638da5cb5b1461030c57600080fd5b806332cb6b0c1161012d5780636352211e116101075780636352211e1461029757806370a08231146102b7578063715018a6146102d757600080fd5b806332cb6b0c1461024b5780633ccfd60b1461026f57806342842e0e1461027757600080fd5b8063081812fc1161015e578063081812fc146101d1578063095ea7b31461020957806323b872dd1461022b57600080fd5b806301ffc9a71461017a57806306fdde03146101af575b600080fd5b34801561018657600080fd5b5061019a610195366004611c84565b610452565b60405190151581526020015b60405180910390f35b3480156101bb57600080fd5b506101c46104ef565b6040516101a69190611d00565b3480156101dd57600080fd5b506101f16101ec366004611d13565b610581565b6040516001600160a01b0390911681526020016101a6565b34801561021557600080fd5b50610229610224366004611d48565b61062c565b005b34801561023757600080fd5b50610229610246366004611d72565b61075e565b34801561025757600080fd5b5061026161271081565b6040519081526020016101a6565b6102296107e5565b34801561028357600080fd5b50610229610292366004611d72565b61088f565b3480156102a357600080fd5b506101f16102b2366004611d13565b6108aa565b3480156102c357600080fd5b506102616102d2366004611dae565b610935565b3480156102e357600080fd5b506102296109cf565b3480156102f857600080fd5b50610229610307366004611d13565b610a35565b34801561031857600080fd5b506006546001600160a01b03166101f1565b34801561033657600080fd5b506101c4610a94565b34801561034b57600080fd5b5061022961035a366004611dc9565b610aa3565b34801561036b57600080fd5b50610374610aae565b6040516101a69190611e05565b34801561038d57600080fd5b50610374610bc8565b3480156103a257600080fd5b506102296103b1366004611f05565b610cbc565b3480156103c257600080fd5b506101c46103d1366004611d13565b610d4a565b6102296103e4366004611f81565b610e0d565b3480156103f557600080fd5b5061019a610404366004611fca565b6001600160a01b03918216600090815260056020908152604080832093909416825291909152205460ff1690565b34801561043e57600080fd5b5061022961044d366004611dae565b610f27565b60006001600160e01b031982167f80ac58cd0000000000000000000000000000000000000000000000000000000014806104b557506001600160e01b031982167f5b5e139f00000000000000000000000000000000000000000000000000000000145b806104e957507f01ffc9a7000000000000000000000000000000000000000000000000000000006001600160e01b03198316145b92915050565b6060600080546104fe90611ffd565b80601f016020809104026020016040519081016040528092919081815260200182805461052a90611ffd565b80156105775780601f1061054c57610100808354040283529160200191610577565b820191906000526020600020905b81548152906001019060200180831161055a57829003601f168201915b5050505050905090565b6000818152600260205260408120546001600160a01b03166106105760405162461bcd60e51b815260206004820152602c60248201527f4552433732313a20617070726f76656420717565727920666f72206e6f6e657860448201527f697374656e7420746f6b656e000000000000000000000000000000000000000060648201526084015b60405180910390fd5b506000908152600460205260409020546001600160a01b031690565b6000610637826108aa565b9050806001600160a01b0316836001600160a01b031614156106c15760405162461bcd60e51b815260206004820152602160248201527f4552433732313a20617070726f76616c20746f2063757272656e74206f776e6560448201527f72000000000000000000000000000000000000000000000000000000000000006064820152608401610607565b336001600160a01b03821614806106dd57506106dd8133610404565b61074f5760405162461bcd60e51b815260206004820152603860248201527f4552433732313a20617070726f76652063616c6c6572206973206e6f74206f7760448201527f6e6572206e6f7220617070726f76656420666f7220616c6c00000000000000006064820152608401610607565b6107598383611009565b505050565b6107683382611084565b6107da5760405162461bcd60e51b815260206004820152603160248201527f4552433732313a207472616e736665722063616c6c6572206973206e6f74206f60448201527f776e6572206e6f7220617070726f7665640000000000000000000000000000006064820152608401610607565b61075983838361118c565b6006546001600160a01b0316331461083f5760405162461bcd60e51b815260206004820181905260248201527f4f776e61626c653a2063616c6c6572206973206e6f7420746865206f776e65726044820152606401610607565b60006108536006546001600160a01b031690565b6040519091506001600160a01b038216904780156108fc02916000818181858888f1935050505015801561088b573d6000803e3d6000fd5b5050565b61075983838360405180602001604052806000815250610cbc565b6000818152600260205260408120546001600160a01b0316806104e95760405162461bcd60e51b815260206004820152602960248201527f4552433732313a206f776e657220717565727920666f72206e6f6e657869737460448201527f656e7420746f6b656e00000000000000000000000000000000000000000000006064820152608401610607565b60006001600160a01b0382166109b35760405162461bcd60e51b815260206004820152602a60248201527f4552433732313a2062616c616e636520717565727920666f7220746865207a6560448201527f726f2061646472657373000000000000000000000000000000000000000000006064820152608401610607565b506001600160a01b031660009081526003602052604090205490565b6006546001600160a01b03163314610a295760405162461bcd60e51b815260206004820181905260248201527f4f776e61626c653a2063616c6c6572206973206e6f7420746865206f776e65726044820152606401610607565b610a336000611366565b565b6006546001600160a01b03163314610a8f5760405162461bcd60e51b815260206004820181905260248201527f4f776e61626c653a2063616c6c6572206973206e6f7420746865206f776e65726044820152606401610607565b600855565b6060600180546104fe90611ffd565b61088b3383836113c5565b6007546060906000808267ffffffffffffffff811115610ad057610ad0611e79565b604051908082528060200260200182016040528015610b1657816020015b604080518082019091526000815260606020820152815260200190600190039081610aee5790505b50905060005b83811015610bc0576000838152600260205260409020546001600160a01b031615158015610b5a575033610b4f846108aa565b6001600160a01b0316145b15610ba0576000610b6a84610d4a565b9050604051806040016040528085815260200182815250838581518110610b9357610b93612038565b6020026020010181905250505b82610baa81612064565b9350508080610bb890612064565b915050610b1c565b509392505050565b6007546060906000808267ffffffffffffffff811115610bea57610bea611e79565b604051908082528060200260200182016040528015610c3057816020015b604080518082019091526000815260606020820152815260200190600190039081610c085790505b50905060005b83811015610bc0576000838152600260205260409020546001600160a01b031615610c9c576000610c6684610d4a565b9050604051806040016040528085815260200182815250838581518110610c8f57610c8f612038565b6020026020010181905250505b82610ca681612064565b9350508080610cb490612064565b915050610c36565b610cc63383611084565b610d385760405162461bcd60e51b815260206004820152603160248201527f4552433732313a207472616e736665722063616c6c6572206973206e6f74206f60448201527f776e6572206e6f7220617070726f7665640000000000000000000000000000006064820152608401610607565b610d4484848484611494565b50505050565b6000818152600260205260409020546060906001600160a01b0316610d6e57600080fd5b60008281526009602052604081208054610d8790611ffd565b80601f0160208091040260200160405190810160405280929190818152602001828054610db390611ffd565b8015610e005780601f10610dd557610100808354040283529160200191610e00565b820191906000526020600020905b815481529060010190602001808311610de357829003601f168201915b5093979650505050505050565b600854341015610e5f5760405162461bcd60e51b815260206004820152601360248201527f496e73756666696369656e742066756e64732e000000000000000000000000006044820152606401610607565b61271060075410610eb25760405162461bcd60e51b815260206004820152601660248201527f4e6f7420656e6f75676874204e465473206c6566742e000000000000000000006044820152606401610607565b610ebe3360075461151d565b610eca60075482611537565b336001600160a01b03167f9b1d6efb528ed1fa8e6aee6ed6b5b50ee8b7472deaad3f4a26f92759a8e3685760075483604051610f0792919061207f565b60405180910390a260078054906000610f1f83612064565b919050555050565b6006546001600160a01b03163314610f815760405162461bcd60e51b815260206004820181905260248201527f4f776e61626c653a2063616c6c6572206973206e6f7420746865206f776e65726044820152606401610607565b6001600160a01b038116610ffd5760405162461bcd60e51b815260206004820152602660248201527f4f776e61626c653a206e6577206f776e657220697320746865207a65726f206160448201527f64647265737300000000000000000000000000000000000000000000000000006064820152608401610607565b61100681611366565b50565b6000818152600460205260409020805473ffffffffffffffffffffffffffffffffffffffff19166001600160a01b038416908117909155819061104b826108aa565b6001600160a01b03167f8c5be1e5ebec7d5bd14f71427d1e84f3dd0314c0f7b2291e5b200ac8c7c3b92560405160405180910390a45050565b6000818152600260205260408120546001600160a01b031661110e5760405162461bcd60e51b815260206004820152602c60248201527f4552433732313a206f70657261746f7220717565727920666f72206e6f6e657860448201527f697374656e7420746f6b656e00000000000000000000000000000000000000006064820152608401610607565b6000611119836108aa565b9050806001600160a01b0316846001600160a01b031614806111545750836001600160a01b031661114984610581565b6001600160a01b0316145b8061118457506001600160a01b0380821660009081526005602090815260408083209388168352929052205460ff165b949350505050565b826001600160a01b031661119f826108aa565b6001600160a01b03161461121b5760405162461bcd60e51b815260206004820152602960248201527f4552433732313a207472616e73666572206f6620746f6b656e2074686174206960448201527f73206e6f74206f776e00000000000000000000000000000000000000000000006064820152608401610607565b6001600160a01b0382166112965760405162461bcd60e51b8152602060048201526024808201527f4552433732313a207472616e7366657220746f20746865207a65726f2061646460448201527f72657373000000000000000000000000000000000000000000000000000000006064820152608401610607565b6112a1600082611009565b6001600160a01b03831660009081526003602052604081208054600192906112ca908490612098565b90915550506001600160a01b03821660009081526003602052604081208054600192906112f89084906120af565b9091555050600081815260026020526040808220805473ffffffffffffffffffffffffffffffffffffffff19166001600160a01b0386811691821790925591518493918716917fddf252ad1be2c89b69c2b068fc378daa952ba7f163c4a11628f55a4df523b3ef91a4505050565b600680546001600160a01b0383811673ffffffffffffffffffffffffffffffffffffffff19831681179093556040519116919082907f8be0079c531659141344cd1fd0a4f28419497f9722a3daafe3b4186f6b6457e090600090a35050565b816001600160a01b0316836001600160a01b031614156114275760405162461bcd60e51b815260206004820152601960248201527f4552433732313a20617070726f766520746f2063616c6c6572000000000000006044820152606401610607565b6001600160a01b03838116600081815260056020908152604080832094871680845294825291829020805460ff191686151590811790915591519182527f17307eab39ab6107e8899845ad3d59bd9653f200f220920489ca2b5937696c31910160405180910390a3505050565b61149f84848461118c565b6114ab848484846115a9565b610d445760405162461bcd60e51b815260206004820152603260248201527f4552433732313a207472616e7366657220746f206e6f6e20455243373231526560448201527f63656976657220696d706c656d656e74657200000000000000000000000000006064820152608401610607565b61088b8282604051806020016040528060008152506116fd565b61156961154383611786565b826040516020016115559291906120c7565b6040516020818303038152906040526117b7565b60405160200161157991906121e4565b60408051601f19818403018152918152600084815260096020908152919020825161075993919290910190611bd5565b60006001600160a01b0384163b156116f257604051630a85bd0160e11b81526001600160a01b0385169063150b7a02906115ed903390899088908890600401612229565b6020604051808303816000875af1925050508015611628575060408051601f3d908101601f1916820190925261162591810190612265565b60015b6116d8573d808015611656576040519150601f19603f3d011682016040523d82523d6000602084013e61165b565b606091505b5080516116d05760405162461bcd60e51b815260206004820152603260248201527f4552433732313a207472616e7366657220746f206e6f6e20455243373231526560448201527f63656976657220696d706c656d656e74657200000000000000000000000000006064820152608401610607565b805181602001fd5b6001600160e01b031916630a85bd0160e11b149050611184565b506001949350505050565b6117078383611954565b61171460008484846115a9565b6107595760405162461bcd60e51b815260206004820152603260248201527f4552433732313a207472616e7366657220746f206e6f6e20455243373231526560448201527f63656976657220696d706c656d656e74657200000000000000000000000000006064820152608401610607565b606061179182611aa3565b6040516020016117a19190612282565b6040516020818303038152906040529050919050565b60608151600014156117d757505060408051602081019091526000815290565b6000604051806060016040528060408152602001612325604091399050600060038451600261180691906120af565b61181091906122dd565b61181b9060046122f1565b9050600061182a8260206120af565b67ffffffffffffffff81111561184257611842611e79565b6040519080825280601f01601f19166020018201604052801561186c576020820181803683370190505b509050818152600183018586518101602084015b818310156118d8576003830192508251603f8160121c168501518253600182019150603f81600c1c168501518253600182019150603f8160061c168501518253600182019150603f8116850151825350600101611880565b6003895106600181146118f2576002811461191e57611946565b7f3d3d000000000000000000000000000000000000000000000000000000000000600119830152611946565b7f3d000000000000000000000000000000000000000000000000000000000000006000198301525b509398975050505050505050565b6001600160a01b0382166119aa5760405162461bcd60e51b815260206004820181905260248201527f4552433732313a206d696e7420746f20746865207a65726f20616464726573736044820152606401610607565b6000818152600260205260409020546001600160a01b031615611a0f5760405162461bcd60e51b815260206004820152601c60248201527f4552433732313a20746f6b656e20616c7265616479206d696e746564000000006044820152606401610607565b6001600160a01b0382166000908152600360205260408120805460019290611a389084906120af565b9091555050600081815260026020526040808220805473ffffffffffffffffffffffffffffffffffffffff19166001600160a01b03861690811790915590518392907fddf252ad1be2c89b69c2b068fc378daa952ba7f163c4a11628f55a4df523b3ef908290a45050565b606081611ae357505060408051808201909152600181527f3000000000000000000000000000000000000000000000000000000000000000602082015290565b8160005b8115611b0d5780611af781612064565b9150611b069050600a836122dd565b9150611ae7565b60008167ffffffffffffffff811115611b2857611b28611e79565b6040519080825280601f01601f191660200182016040528015611b52576020820181803683370190505b5090505b841561118457611b67600183612098565b9150611b74600a86612310565b611b7f9060306120af565b60f81b818381518110611b9457611b94612038565b60200101907effffffffffffffffffffffffffffffffffffffffffffffffffffffffffffff1916908160001a905350611bce600a866122dd565b9450611b56565b828054611be190611ffd565b90600052602060002090601f016020900481019282611c035760008555611c49565b82601f10611c1c57805160ff1916838001178555611c49565b82800160010185558215611c49579182015b82811115611c49578251825591602001919060010190611c2e565b50611c55929150611c59565b5090565b5b80821115611c555760008155600101611c5a565b6001600160e01b03198116811461100657600080fd5b600060208284031215611c9657600080fd5b8135611ca181611c6e565b9392505050565b60005b83811015611cc3578181015183820152602001611cab565b83811115610d445750506000910152565b60008151808452611cec816020860160208601611ca8565b601f01601f19169290920160200192915050565b602081526000611ca16020830184611cd4565b600060208284031215611d2557600080fd5b5035919050565b80356001600160a01b0381168114611d4357600080fd5b919050565b60008060408385031215611d5b57600080fd5b611d6483611d2c565b946020939093013593505050565b600080600060608486031215611d8757600080fd5b611d9084611d2c565b9250611d9e60208501611d2c565b9150604084013590509250925092565b600060208284031215611dc057600080fd5b611ca182611d2c565b60008060408385031215611ddc57600080fd5b611de583611d2c565b915060208301358015158114611dfa57600080fd5b809150509250929050565b60006020808301818452808551808352604092508286019150828160051b87010184880160005b83811015611e6b57888303603f19018552815180518452870151878401879052611e5887850182611cd4565b9588019593505090860190600101611e2c565b509098975050505050505050565b634e487b7160e01b600052604160045260246000fd5b600067ffffffffffffffff80841115611eaa57611eaa611e79565b604051601f8501601f19908116603f01168101908282118183101715611ed257611ed2611e79565b81604052809350858152868686011115611eeb57600080fd5b858560208301376000602087830101525050509392505050565b60008060008060808587031215611f1b57600080fd5b611f2485611d2c565b9350611f3260208601611d2c565b925060408501359150606085013567ffffffffffffffff811115611f5557600080fd5b8501601f81018713611f6657600080fd5b611f7587823560208401611e8f565b91505092959194509250565b600060208284031215611f9357600080fd5b813567ffffffffffffffff811115611faa57600080fd5b8201601f81018413611fbb57600080fd5b61118484823560208401611e8f565b60008060408385031215611fdd57600080fd5b611fe683611d2c565b9150611ff460208401611d2c565b90509250929050565b600181811c9082168061201157607f821691505b6020821081141561203257634e487b7160e01b600052602260045260246000fd5b50919050565b634e487b7160e01b600052603260045260246000fd5b634e487b7160e01b600052601160045260246000fd5b60006000198214156120785761207861204e565b5060010190565b8281526040602082015260006111846040830184611cd4565b6000828210156120aa576120aa61204e565b500390565b600082198211156120c2576120c261204e565b500190565b7f7b226e616d65223a2200000000000000000000000000000000000000000000008152600083516120ff816009850160208801611ca8565b7f222c20226465736372697074696f6e223a2200000000000000000000000000006009918401918201527f5768657468657220626c61636b2c2077686974652c206f7220616e7920636f6c601b8201527f6f7220696e206265747765656e2c204920616d206c696d69746c6573732e0000603b8201527f222c2022696d616765223a202200000000000000000000000000000000000000605982015283516121ae816066840160208801611ca8565b7f227d00000000000000000000000000000000000000000000000000000000000060669290910191820152606801949350505050565b7f646174613a6170706c69636174696f6e2f6a736f6e3b6261736536342c00000081526000825161221c81601d850160208701611ca8565b91909101601d0192915050565b60006001600160a01b0380871683528086166020840152508360408301526080606083015261225b6080830184611cd4565b9695505050505050565b60006020828403121561227757600080fd5b8151611ca181611c6e565b7f5365656b657220230000000000000000000000000000000000000000000000008152600082516122ba816008850160208701611ca8565b9190910160080192915050565b634e487b7160e01b600052601260045260246000fd5b6000826122ec576122ec6122c7565b500490565b600081600019048311821515161561230b5761230b61204e565b500290565b60008261231f5761231f6122c7565b50069056fe4142434445464748494a4b4c4d4e4f505152535455565758595a6162636465666768696a6b6c6d6e6f707172737475767778797a303132333435363738392b2fa264697066735822122022d44392aef275c0894fb59dbf174894f8b5129eeb717c9d86eb25482e05a2f764736f6c634300080b0033",
  "immutableReferences": {},
  "source": "// SPDX-License-Identifier: MIT\r\n\r\npragma solidity ^0.8.0;\r\n\r\nimport \"@openzeppelin/contracts/token/ERC721/ERC721.sol\";\r\nimport \"@openzeppelin/contracts/access/Ownable.sol\";\r\nimport \"@openzeppelin/contracts/utils/Strings.sol\";\r\nimport \"./Base64.sol\";\r\n\r\ncontract SeekerToken is ERC721, Ownable {\r\n    uint256 COUNTER = 0;\r\n    uint256 public constant MAX_SUPPLY = 10000;\r\n    uint256 mintFee = 0.01 ether;\r\n\r\n    struct Seeker {\r\n        uint256 id;\r\n        string uri;\r\n    }\r\n\r\n    mapping(uint256 => string) tokenURIs;\r\n\r\n    function getNextSeekerName(uint256 _tokenID)\r\n        internal\r\n        pure\r\n        returns (string memory)\r\n    {\r\n        return string(abi.encodePacked(\"Seeker #\", Strings.toString(_tokenID)));\r\n    }\r\n\r\n    function _setTokenURI(uint256 _tokenId, string memory _dataURI) internal {\r\n        tokenURIs[_tokenId] = string(\r\n            abi.encodePacked(\r\n                \"data:application/json;base64,\",\r\n                Base64.encode(\r\n                    bytes(\r\n                        abi.encodePacked(\r\n                            '{\"name\":\"',\r\n                            getNextSeekerName(_tokenId),\r\n                            '\", \"description\":\"',\r\n                            \"Whether black, white, or any color in between, I am limitless.\",\r\n                            '\", \"image\": \"',\r\n                            _dataURI,\r\n                            '\"}'\r\n                        )\r\n                    )\r\n                )\r\n            )\r\n        );\r\n    }\r\n\r\n    function tokenURI(uint256 _tokenId)\r\n        public\r\n        view\r\n        virtual\r\n        override\r\n        returns (string memory)\r\n    {\r\n        require(_exists(_tokenId));\r\n        string memory _tokenURI = tokenURIs[_tokenId];\r\n        return _tokenURI;\r\n    }\r\n\r\n    event NewSeeker(address indexed owner, uint256 id, string uri);\r\n\r\n    constructor(string memory _name, string memory _symbol)\r\n        ERC721(_name, _symbol)\r\n    {}\r\n\r\n    // Helpers\r\n    function _createRandomNum(uint256 _mod) internal view returns (uint256) {\r\n        uint256 randomNum = uint256(\r\n            keccak256(abi.encodePacked(block.timestamp, msg.sender))\r\n        );\r\n        return randomNum % _mod;\r\n    }\r\n\r\n    function updateMintFee(uint256 newFee) external onlyOwner {\r\n        mintFee = newFee;\r\n    }\r\n\r\n    // Creation\r\n    function _createSeeker(string memory _uri) internal {}\r\n\r\n    function mint(string memory _uri) public payable {\r\n        require(msg.value >= mintFee, \"Insufficient funds.\");\r\n        require(COUNTER < MAX_SUPPLY, \"Not enought NFTs left.\");\r\n        _safeMint(msg.sender, COUNTER);\r\n        _setTokenURI(COUNTER, _uri);\r\n        emit NewSeeker(msg.sender, COUNTER, _uri);\r\n        COUNTER++;\r\n    }\r\n\r\n    // Getters\r\n    function getAllSeekers() public view returns (Seeker[] memory) {\r\n        uint256 latestId = COUNTER;\r\n        uint256 counter = 0;\r\n\r\n        Seeker[] memory res = new Seeker[](latestId);\r\n        for (uint256 i = 0; i < latestId; i++) {\r\n            if (_exists(counter)) {\r\n                string memory uri = tokenURI(counter);\r\n                res[counter] = Seeker(counter, uri);\r\n            }\r\n            counter++;\r\n        }\r\n        return res;\r\n    }\r\n\r\n    function getOwnerSeekers() public view returns (Seeker[] memory) {\r\n        uint256 latestId = COUNTER;\r\n        uint256 counter = 0;\r\n\r\n        Seeker[] memory res = new Seeker[](latestId);\r\n        for (uint256 i = 0; i < latestId; i++) {\r\n            if (_exists(counter) && ownerOf(counter) == msg.sender) {\r\n                string memory uri = tokenURI(counter);\r\n                res[counter] = Seeker(counter, uri);\r\n            }\r\n            counter++;\r\n        }\r\n        return res;\r\n    }\r\n\r\n    function withdraw() external payable onlyOwner {\r\n        address _owner = owner();\r\n        payable(_owner).transfer(address(this).balance);\r\n    }\r\n}\r\n",
  "sourcePath": "C:\\Users\\dsita\\Desktop\\i-am-dapp-back\\contracts\\SeekerToken.sol",
  "compiler": {
    "name": "solc",
    "version": "0.8.11+commit.d7f03943.Emscripten.clang"
  },
  "schemaVersion": "3.4.4",
  "updatedAt": "2022-02-04T17:02:08.000Z",
  "networkType": "ethereum",
  "devdoc": {
    "kind": "dev",
    "methods": {
      "approve(address,uint256)": {
        "details": "See {IERC721-approve}."
      },
      "balanceOf(address)": {
        "details": "See {IERC721-balanceOf}."
      },
      "getApproved(uint256)": {
        "details": "See {IERC721-getApproved}."
      },
      "isApprovedForAll(address,address)": {
        "details": "See {IERC721-isApprovedForAll}."
      },
      "name()": {
        "details": "See {IERC721Metadata-name}."
      },
      "owner()": {
        "details": "Returns the address of the current owner."
      },
      "ownerOf(uint256)": {
        "details": "See {IERC721-ownerOf}."
      },
      "renounceOwnership()": {
        "details": "Leaves the contract without owner. It will not be possible to call `onlyOwner` functions anymore. Can only be called by the current owner. NOTE: Renouncing ownership will leave the contract without an owner, thereby removing any functionality that is only available to the owner."
      },
      "safeTransferFrom(address,address,uint256)": {
        "details": "See {IERC721-safeTransferFrom}."
      },
      "safeTransferFrom(address,address,uint256,bytes)": {
        "details": "See {IERC721-safeTransferFrom}."
      },
      "setApprovalForAll(address,bool)": {
        "details": "See {IERC721-setApprovalForAll}."
      },
      "supportsInterface(bytes4)": {
        "details": "See {IERC165-supportsInterface}."
      },
      "symbol()": {
        "details": "See {IERC721Metadata-symbol}."
      },
      "transferFrom(address,address,uint256)": {
        "details": "See {IERC721-transferFrom}."
      },
      "transferOwnership(address)": {
        "details": "Transfers ownership of the contract to a new account (`newOwner`). Can only be called by the current owner."
      }
    },
    "version": 1
  },
  "userdoc": {
    "kind": "user",
    "methods": {},
    "version": 1
  }
}