{
  "contractName": "SeekerToken",
  "abi": [
    {
      "inputs": [],
      "stateMutability": "nonpayable",
      "type": "constructor"
    },
    {
      "anonymous": false,
      "inputs": [
        {
          "indexed": true,
          "internalType": "address",
          "name": "owner",
          "type": "address"
        },
        {
          "indexed": true,
          "internalType": "address",
          "name": "approved",
          "type": "address"
        },
        {
          "indexed": true,
          "internalType": "uint256",
          "name": "tokenId",
          "type": "uint256"
        }
      ],
      "name": "Approval",
      "type": "event"
    },
    {
      "anonymous": false,
      "inputs": [
        {
          "indexed": true,
          "internalType": "address",
          "name": "owner",
          "type": "address"
        },
        {
          "indexed": true,
          "internalType": "address",
          "name": "operator",
          "type": "address"
        },
        {
          "indexed": false,
          "internalType": "bool",
          "name": "approved",
          "type": "bool"
        }
      ],
      "name": "ApprovalForAll",
      "type": "event"
    },
    {
      "anonymous": false,
      "inputs": [
        {
          "indexed": true,
          "internalType": "address",
          "name": "owner",
          "type": "address"
        },
        {
          "indexed": false,
          "internalType": "uint256",
          "name": "id",
          "type": "uint256"
        },
        {
          "indexed": false,
          "internalType": "uint256",
          "name": "dna",
          "type": "uint256"
        }
      ],
      "name": "NewSeeker",
      "type": "event"
    },
    {
      "anonymous": false,
      "inputs": [
        {
          "indexed": true,
          "internalType": "address",
          "name": "previousOwner",
          "type": "address"
        },
        {
          "indexed": true,
          "internalType": "address",
          "name": "newOwner",
          "type": "address"
        }
      ],
      "name": "OwnershipTransferred",
      "type": "event"
    },
    {
      "anonymous": false,
      "inputs": [
        {
          "indexed": true,
          "internalType": "address",
          "name": "from",
          "type": "address"
        },
        {
          "indexed": true,
          "internalType": "address",
          "name": "to",
          "type": "address"
        },
        {
          "indexed": true,
          "internalType": "uint256",
          "name": "tokenId",
          "type": "uint256"
        }
      ],
      "name": "Transfer",
      "type": "event"
    },
    {
      "inputs": [
        {
          "internalType": "address",
          "name": "to",
          "type": "address"
        },
        {
          "internalType": "uint256",
          "name": "tokenId",
          "type": "uint256"
        }
      ],
      "name": "approve",
      "outputs": [],
      "stateMutability": "nonpayable",
      "type": "function"
    },
    {
      "inputs": [
        {
          "internalType": "address",
          "name": "owner",
          "type": "address"
        }
      ],
      "name": "balanceOf",
      "outputs": [
        {
          "internalType": "uint256",
          "name": "",
          "type": "uint256"
        }
      ],
      "stateMutability": "view",
      "type": "function",
      "constant": true
    },
    {
      "inputs": [
        {
          "internalType": "uint256",
          "name": "tokenId",
          "type": "uint256"
        }
      ],
      "name": "getApproved",
      "outputs": [
        {
          "internalType": "address",
          "name": "",
          "type": "address"
        }
      ],
      "stateMutability": "view",
      "type": "function",
      "constant": true
    },
    {
      "inputs": [
        {
          "internalType": "address",
          "name": "owner",
          "type": "address"
        },
        {
          "internalType": "address",
          "name": "operator",
          "type": "address"
        }
      ],
      "name": "isApprovedForAll",
      "outputs": [
        {
          "internalType": "bool",
          "name": "",
          "type": "bool"
        }
      ],
      "stateMutability": "view",
      "type": "function",
      "constant": true
    },
    {
      "inputs": [],
      "name": "name",
      "outputs": [
        {
          "internalType": "string",
          "name": "",
          "type": "string"
        }
      ],
      "stateMutability": "view",
      "type": "function",
      "constant": true
    },
    {
      "inputs": [],
      "name": "owner",
      "outputs": [
        {
          "internalType": "address",
          "name": "",
          "type": "address"
        }
      ],
      "stateMutability": "view",
      "type": "function",
      "constant": true
    },
    {
      "inputs": [
        {
          "internalType": "uint256",
          "name": "tokenId",
          "type": "uint256"
        }
      ],
      "name": "ownerOf",
      "outputs": [
        {
          "internalType": "address",
          "name": "",
          "type": "address"
        }
      ],
      "stateMutability": "view",
      "type": "function",
      "constant": true
    },
    {
      "inputs": [],
      "name": "renounceOwnership",
      "outputs": [],
      "stateMutability": "nonpayable",
      "type": "function"
    },
    {
      "inputs": [
        {
          "internalType": "address",
          "name": "from",
          "type": "address"
        },
        {
          "internalType": "address",
          "name": "to",
          "type": "address"
        },
        {
          "internalType": "uint256",
          "name": "tokenId",
          "type": "uint256"
        }
      ],
      "name": "safeTransferFrom",
      "outputs": [],
      "stateMutability": "nonpayable",
      "type": "function"
    },
    {
      "inputs": [
        {
          "internalType": "address",
          "name": "from",
          "type": "address"
        },
        {
          "internalType": "address",
          "name": "to",
          "type": "address"
        },
        {
          "internalType": "uint256",
          "name": "tokenId",
          "type": "uint256"
        },
        {
          "internalType": "bytes",
          "name": "_data",
          "type": "bytes"
        }
      ],
      "name": "safeTransferFrom",
      "outputs": [],
      "stateMutability": "nonpayable",
      "type": "function"
    },
    {
      "inputs": [
        {
          "internalType": "address",
          "name": "operator",
          "type": "address"
        },
        {
          "internalType": "bool",
          "name": "approved",
          "type": "bool"
        }
      ],
      "name": "setApprovalForAll",
      "outputs": [],
      "stateMutability": "nonpayable",
      "type": "function"
    },
    {
      "inputs": [
        {
          "internalType": "bytes4",
          "name": "interfaceId",
          "type": "bytes4"
        }
      ],
      "name": "supportsInterface",
      "outputs": [
        {
          "internalType": "bool",
          "name": "",
          "type": "bool"
        }
      ],
      "stateMutability": "view",
      "type": "function",
      "constant": true
    },
    {
      "inputs": [],
      "name": "symbol",
      "outputs": [
        {
          "internalType": "string",
          "name": "",
          "type": "string"
        }
      ],
      "stateMutability": "view",
      "type": "function",
      "constant": true
    },
    {
      "inputs": [
        {
          "internalType": "address",
          "name": "from",
          "type": "address"
        },
        {
          "internalType": "address",
          "name": "to",
          "type": "address"
        },
        {
          "internalType": "uint256",
          "name": "tokenId",
          "type": "uint256"
        }
      ],
      "name": "transferFrom",
      "outputs": [],
      "stateMutability": "nonpayable",
      "type": "function"
    },
    {
      "inputs": [
        {
          "internalType": "address",
          "name": "newOwner",
          "type": "address"
        }
      ],
      "name": "transferOwnership",
      "outputs": [],
      "stateMutability": "nonpayable",
      "type": "function"
    },
    {
      "inputs": [
        {
          "internalType": "uint256",
          "name": "_tokenId",
          "type": "uint256"
        }
      ],
      "name": "tokenURI",
      "outputs": [
        {
          "internalType": "string",
          "name": "",
          "type": "string"
        }
      ],
      "stateMutability": "view",
      "type": "function",
      "constant": true
    },
    {
      "inputs": [],
      "name": "getAllSeekers",
      "outputs": [
        {
          "components": [
            {
              "internalType": "uint256",
              "name": "id",
              "type": "uint256"
            },
            {
              "internalType": "string",
              "name": "uri",
              "type": "string"
            }
          ],
          "internalType": "struct SeekerToken.Seeker[]",
          "name": "",
          "type": "tuple[]"
        }
      ],
      "stateMutability": "view",
      "type": "function",
      "constant": true
    },
    {
      "inputs": [],
      "name": "getOwnerSeekers",
      "outputs": [
        {
          "components": [
            {
              "internalType": "uint256",
              "name": "id",
              "type": "uint256"
            },
            {
              "internalType": "string",
              "name": "uri",
              "type": "string"
            }
          ],
          "internalType": "struct SeekerToken.Seeker[]",
          "name": "",
          "type": "tuple[]"
        }
      ],
      "stateMutability": "view",
      "type": "function",
      "constant": true
    },
    {
      "inputs": [
        {
          "internalType": "string",
          "name": "_uri",
          "type": "string"
        }
      ],
      "name": "mint",
      "outputs": [
        {
          "internalType": "uint256",
          "name": "",
          "type": "uint256"
        }
      ],
      "stateMutability": "payable",
      "type": "function",
      "payable": true
    },
    {
      "inputs": [],
      "name": "withdraw",
      "outputs": [],
      "stateMutability": "payable",
      "type": "function",
      "payable": true
    }
  ],
  "bytecode": "0x6080604052662386f26fc1000060085566038d7ea4c680006009553480156200002757600080fd5b50604080518082018252600c81526b29a2a2a5a2a9102a27a5a2a760a11b60208083019182528351808501909452600384526214d2d560ea1b908401528151919291620000779160009162000106565b5080516200008d90600190602084019062000106565b505050620000aa620000a4620000b060201b60201c565b620000b4565b620001e9565b3390565b600680546001600160a01b038381166001600160a01b0319831681179093556040519116919082907f8be0079c531659141344cd1fd0a4f28419497f9722a3daafe3b4186f6b6457e090600090a35050565b8280546200011490620001ac565b90600052602060002090601f01602090048101928262000138576000855562000183565b82601f106200015357805160ff191683800117855562000183565b8280016001018555821562000183579182015b828111156200018357825182559160200191906001019062000166565b506200019192915062000195565b5090565b5b8082111562000191576000815560010162000196565b600181811c90821680620001c157607f821691505b60208210811415620001e357634e487b7160e01b600052602260045260246000fd5b50919050565b611cec80620001f96000396000f3fe60806040526004361061015f5760003560e01c80638da5cb5b116100c0578063b88d4fde11610074578063d85d3d2711610059578063d85d3d271461038a578063e985e9c51461039d578063f2fde38b146103e657600080fd5b8063b88d4fde1461034a578063c87b56dd1461036a57600080fd5b8063a22cb465116100a5578063a22cb465146102f3578063acb4a88914610313578063b49c0d021461033557600080fd5b80638da5cb5b146102c057806395d89b41146102de57600080fd5b80633ccfd60b116101175780636352211e116100fc5780636352211e1461025d57806370a082311461027d578063715018a6146102ab57600080fd5b80633ccfd60b1461023557806342842e0e1461023d57600080fd5b8063081812fc11610148578063081812fc146101bb578063095ea7b3146101f357806323b872dd1461021557600080fd5b806301ffc9a71461016457806306fdde0314610199575b600080fd5b34801561017057600080fd5b5061018461017f366004611823565b610406565b60405190151581526020015b60405180910390f35b3480156101a557600080fd5b506101ae6104a3565b604051610190919061188d565b3480156101c757600080fd5b506101db6101d63660046118a0565b610535565b6040516001600160a01b039091168152602001610190565b3480156101ff57600080fd5b5061021361020e3660046118d5565b6105e0565b005b34801561022157600080fd5b506102136102303660046118ff565b610712565b610213610799565b34801561024957600080fd5b506102136102583660046118ff565b610843565b34801561026957600080fd5b506101db6102783660046118a0565b61085e565b34801561028957600080fd5b5061029d61029836600461193b565b6108e9565b604051908152602001610190565b3480156102b757600080fd5b50610213610983565b3480156102cc57600080fd5b506006546001600160a01b03166101db565b3480156102ea57600080fd5b506101ae6109e9565b3480156102ff57600080fd5b5061021361030e366004611956565b6109f8565b34801561031f57600080fd5b50610328610a03565b6040516101909190611992565b34801561034157600080fd5b50610328610b26565b34801561035657600080fd5b50610213610365366004611a92565b610c23565b34801561037657600080fd5b506101ae6103853660046118a0565b610cb1565b61029d610398366004611b0e565b610d74565b3480156103a957600080fd5b506101846103b8366004611b57565b6001600160a01b03918216600090815260056020908152604080832093909416825291909152205460ff1690565b3480156103f257600080fd5b5061021361040136600461193b565b610e4d565b60006001600160e01b031982167f80ac58cd00000000000000000000000000000000000000000000000000000000148061046957506001600160e01b031982167f5b5e139f00000000000000000000000000000000000000000000000000000000145b8061049d57507f01ffc9a7000000000000000000000000000000000000000000000000000000006001600160e01b03198316145b92915050565b6060600080546104b290611b8a565b80601f01602080910402602001604051908101604052809291908181526020018280546104de90611b8a565b801561052b5780601f106105005761010080835404028352916020019161052b565b820191906000526020600020905b81548152906001019060200180831161050e57829003601f168201915b5050505050905090565b6000818152600260205260408120546001600160a01b03166105c45760405162461bcd60e51b815260206004820152602c60248201527f4552433732313a20617070726f76656420717565727920666f72206e6f6e657860448201527f697374656e7420746f6b656e000000000000000000000000000000000000000060648201526084015b60405180910390fd5b506000908152600460205260409020546001600160a01b031690565b60006105eb8261085e565b9050806001600160a01b0316836001600160a01b031614156106755760405162461bcd60e51b815260206004820152602160248201527f4552433732313a20617070726f76616c20746f2063757272656e74206f776e6560448201527f720000000000000000000000000000000000000000000000000000000000000060648201526084016105bb565b336001600160a01b0382161480610691575061069181336103b8565b6107035760405162461bcd60e51b815260206004820152603860248201527f4552433732313a20617070726f76652063616c6c6572206973206e6f74206f7760448201527f6e6572206e6f7220617070726f76656420666f7220616c6c000000000000000060648201526084016105bb565b61070d8383610f2f565b505050565b61071c3382610faa565b61078e5760405162461bcd60e51b815260206004820152603160248201527f4552433732313a207472616e736665722063616c6c6572206973206e6f74206f60448201527f776e6572206e6f7220617070726f76656400000000000000000000000000000060648201526084016105bb565b61070d8383836110b2565b6006546001600160a01b031633146107f35760405162461bcd60e51b815260206004820181905260248201527f4f776e61626c653a2063616c6c6572206973206e6f7420746865206f776e657260448201526064016105bb565b60006108076006546001600160a01b031690565b6040519091506001600160a01b038216904780156108fc02916000818181858888f1935050505015801561083f573d6000803e3d6000fd5b5050565b61070d83838360405180602001604052806000815250610c23565b6000818152600260205260408120546001600160a01b03168061049d5760405162461bcd60e51b815260206004820152602960248201527f4552433732313a206f776e657220717565727920666f72206e6f6e657869737460448201527f656e7420746f6b656e000000000000000000000000000000000000000000000060648201526084016105bb565b60006001600160a01b0382166109675760405162461bcd60e51b815260206004820152602a60248201527f4552433732313a2062616c616e636520717565727920666f7220746865207a6560448201527f726f20616464726573730000000000000000000000000000000000000000000060648201526084016105bb565b506001600160a01b031660009081526003602052604090205490565b6006546001600160a01b031633146109dd5760405162461bcd60e51b815260206004820181905260248201527f4f776e61626c653a2063616c6c6572206973206e6f7420746865206f776e657260448201526064016105bb565b6109e7600061128c565b565b6060600180546104b290611b8a565b61083f3383836112eb565b60606000610a1060075490565b90506000808267ffffffffffffffff811115610a2e57610a2e611a06565b604051908082528060200260200182016040528015610a7457816020015b604080518082019091526000815260606020820152815260200190600190039081610a4c5790505b50905060005b83811015610b1e576000838152600260205260409020546001600160a01b031615158015610ab8575033610aad8461085e565b6001600160a01b0316145b15610afe576000610ac884610cb1565b9050604051806040016040528085815260200182815250838581518110610af157610af1611bc5565b6020026020010181905250505b82610b0881611bf1565b9350508080610b1690611bf1565b915050610a7a565b509392505050565b60606000610b3360075490565b90506000808267ffffffffffffffff811115610b5157610b51611a06565b604051908082528060200260200182016040528015610b9757816020015b604080518082019091526000815260606020820152815260200190600190039081610b6f5790505b50905060005b83811015610b1e576000838152600260205260409020546001600160a01b031615610c03576000610bcd84610cb1565b9050604051806040016040528085815260200182815250838581518110610bf657610bf6611bc5565b6020026020010181905250505b82610c0d81611bf1565b9350508080610c1b90611bf1565b915050610b9d565b610c2d3383610faa565b610c9f5760405162461bcd60e51b815260206004820152603160248201527f4552433732313a207472616e736665722063616c6c6572206973206e6f74206f60448201527f776e6572206e6f7220617070726f76656400000000000000000000000000000060648201526084016105bb565b610cab848484846113ba565b50505050565b6000818152600260205260409020546060906001600160a01b0316610cd557600080fd5b6000828152600a602052604081208054610cee90611b8a565b80601f0160208091040260200160405190810160405280929190818152602001828054610d1a90611b8a565b8015610d675780601f10610d3c57610100808354040283529160200191610d67565b820191906000526020600020905b815481529060010190602001808311610d4a57829003601f168201915b5093979650505050505050565b6000600854341015610dc85760405162461bcd60e51b815260206004820152601360248201527f496e73756666696369656e742066756e64732e0000000000000000000000000060448201526064016105bb565b6000610dda662386f26fc10000611443565b90506000610de760075490565b9050610df333826114b2565b610dfd8185611601565b610e0b600780546001019055565b604080518281526020810184905233917f6507817010d1a89423a4126e7a0c9e49e80db66054e01182fca94237aa1f4107910160405180910390a29392505050565b6006546001600160a01b03163314610ea75760405162461bcd60e51b815260206004820181905260248201527f4f776e61626c653a2063616c6c6572206973206e6f7420746865206f776e657260448201526064016105bb565b6001600160a01b038116610f235760405162461bcd60e51b815260206004820152602660248201527f4f776e61626c653a206e6577206f776e657220697320746865207a65726f206160448201527f646472657373000000000000000000000000000000000000000000000000000060648201526084016105bb565b610f2c8161128c565b50565b6000818152600460205260409020805473ffffffffffffffffffffffffffffffffffffffff19166001600160a01b0384169081179091558190610f718261085e565b6001600160a01b03167f8c5be1e5ebec7d5bd14f71427d1e84f3dd0314c0f7b2291e5b200ac8c7c3b92560405160405180910390a45050565b6000818152600260205260408120546001600160a01b03166110345760405162461bcd60e51b815260206004820152602c60248201527f4552433732313a206f70657261746f7220717565727920666f72206e6f6e657860448201527f697374656e7420746f6b656e000000000000000000000000000000000000000060648201526084016105bb565b600061103f8361085e565b9050806001600160a01b0316846001600160a01b0316148061107a5750836001600160a01b031661106f84610535565b6001600160a01b0316145b806110aa57506001600160a01b0380821660009081526005602090815260408083209388168352929052205460ff165b949350505050565b826001600160a01b03166110c58261085e565b6001600160a01b0316146111415760405162461bcd60e51b815260206004820152602960248201527f4552433732313a207472616e73666572206f6620746f6b656e2074686174206960448201527f73206e6f74206f776e000000000000000000000000000000000000000000000060648201526084016105bb565b6001600160a01b0382166111bc5760405162461bcd60e51b8152602060048201526024808201527f4552433732313a207472616e7366657220746f20746865207a65726f2061646460448201527f726573730000000000000000000000000000000000000000000000000000000060648201526084016105bb565b6111c7600082610f2f565b6001600160a01b03831660009081526003602052604081208054600192906111f0908490611c0c565b90915550506001600160a01b038216600090815260036020526040812080546001929061121e908490611c23565b9091555050600081815260026020526040808220805473ffffffffffffffffffffffffffffffffffffffff19166001600160a01b0386811691821790925591518493918716917fddf252ad1be2c89b69c2b068fc378daa952ba7f163c4a11628f55a4df523b3ef91a4505050565b600680546001600160a01b0383811673ffffffffffffffffffffffffffffffffffffffff19831681179093556040519116919082907f8be0079c531659141344cd1fd0a4f28419497f9722a3daafe3b4186f6b6457e090600090a35050565b816001600160a01b0316836001600160a01b0316141561134d5760405162461bcd60e51b815260206004820152601960248201527f4552433732313a20617070726f766520746f2063616c6c65720000000000000060448201526064016105bb565b6001600160a01b03838116600081815260056020908152604080832094871680845294825291829020805460ff191686151590811790915591519182527f17307eab39ab6107e8899845ad3d59bd9653f200f220920489ca2b5937696c31910160405180910390a3505050565b6113c58484846110b2565b6113d184848484611620565b610cab5760405162461bcd60e51b815260206004820152603260248201527f4552433732313a207472616e7366657220746f206e6f6e20455243373231526560448201527f63656976657220696d706c656d656e746572000000000000000000000000000060648201526084016105bb565b600080423360405160200161148792919091825260601b7fffffffffffffffffffffffffffffffffffffffff00000000000000000000000016602082015260340190565b60408051601f19818403018152919052805160209091012090506114ab8382611c3b565b9392505050565b6001600160a01b0382166115085760405162461bcd60e51b815260206004820181905260248201527f4552433732313a206d696e7420746f20746865207a65726f206164647265737360448201526064016105bb565b6000818152600260205260409020546001600160a01b03161561156d5760405162461bcd60e51b815260206004820152601c60248201527f4552433732313a20746f6b656e20616c7265616479206d696e7465640000000060448201526064016105bb565b6001600160a01b0382166000908152600360205260408120805460019290611596908490611c23565b9091555050600081815260026020526040808220805473ffffffffffffffffffffffffffffffffffffffff19166001600160a01b03861690811790915590518392907fddf252ad1be2c89b69c2b068fc378daa952ba7f163c4a11628f55a4df523b3ef908290a45050565b6000828152600a60209081526040909120825161070d92840190611774565b60006001600160a01b0384163b1561176957604051630a85bd0160e11b81526001600160a01b0385169063150b7a0290611664903390899088908890600401611c5d565b6020604051808303816000875af192505050801561169f575060408051601f3d908101601f1916820190925261169c91810190611c99565b60015b61174f573d8080156116cd576040519150601f19603f3d011682016040523d82523d6000602084013e6116d2565b606091505b5080516117475760405162461bcd60e51b815260206004820152603260248201527f4552433732313a207472616e7366657220746f206e6f6e20455243373231526560448201527f63656976657220696d706c656d656e746572000000000000000000000000000060648201526084016105bb565b805181602001fd5b6001600160e01b031916630a85bd0160e11b1490506110aa565b506001949350505050565b82805461178090611b8a565b90600052602060002090601f0160209004810192826117a257600085556117e8565b82601f106117bb57805160ff19168380011785556117e8565b828001600101855582156117e8579182015b828111156117e85782518255916020019190600101906117cd565b506117f49291506117f8565b5090565b5b808211156117f457600081556001016117f9565b6001600160e01b031981168114610f2c57600080fd5b60006020828403121561183557600080fd5b81356114ab8161180d565b6000815180845260005b818110156118665760208185018101518683018201520161184a565b81811115611878576000602083870101525b50601f01601f19169290920160200192915050565b6020815260006114ab6020830184611840565b6000602082840312156118b257600080fd5b5035919050565b80356001600160a01b03811681146118d057600080fd5b919050565b600080604083850312156118e857600080fd5b6118f1836118b9565b946020939093013593505050565b60008060006060848603121561191457600080fd5b61191d846118b9565b925061192b602085016118b9565b9150604084013590509250925092565b60006020828403121561194d57600080fd5b6114ab826118b9565b6000806040838503121561196957600080fd5b611972836118b9565b91506020830135801515811461198757600080fd5b809150509250929050565b60006020808301818452808551808352604092508286019150828160051b87010184880160005b838110156119f857888303603f190185528151805184528701518784018790526119e587850182611840565b95880195935050908601906001016119b9565b509098975050505050505050565b634e487b7160e01b600052604160045260246000fd5b600067ffffffffffffffff80841115611a3757611a37611a06565b604051601f8501601f19908116603f01168101908282118183101715611a5f57611a5f611a06565b81604052809350858152868686011115611a7857600080fd5b858560208301376000602087830101525050509392505050565b60008060008060808587031215611aa857600080fd5b611ab1856118b9565b9350611abf602086016118b9565b925060408501359150606085013567ffffffffffffffff811115611ae257600080fd5b8501601f81018713611af357600080fd5b611b0287823560208401611a1c565b91505092959194509250565b600060208284031215611b2057600080fd5b813567ffffffffffffffff811115611b3757600080fd5b8201601f81018413611b4857600080fd5b6110aa84823560208401611a1c565b60008060408385031215611b6a57600080fd5b611b73836118b9565b9150611b81602084016118b9565b90509250929050565b600181811c90821680611b9e57607f821691505b60208210811415611bbf57634e487b7160e01b600052602260045260246000fd5b50919050565b634e487b7160e01b600052603260045260246000fd5b634e487b7160e01b600052601160045260246000fd5b6000600019821415611c0557611c05611bdb565b5060010190565b600082821015611c1e57611c1e611bdb565b500390565b60008219821115611c3657611c36611bdb565b500190565b600082611c5857634e487b7160e01b600052601260045260246000fd5b500690565b60006001600160a01b03808716835280861660208401525083604083015260806060830152611c8f6080830184611840565b9695505050505050565b600060208284031215611cab57600080fd5b81516114ab8161180d56fea2646970667358221220172f346985731c3cd8e60b8ff8412597a77ca14ad352ee38cbf4859500c3874764736f6c634300080b0033",
  "immutableReferences": {},
  "source": "// SPDX-License-Identifier: MIT\r\n\r\npragma solidity ^0.8.0;\r\n\r\nimport \"@openzeppelin/contracts/token/ERC721/ERC721.sol\";\r\nimport \"@openzeppelin/contracts/access/Ownable.sol\";\r\nimport \"@openzeppelin/contracts/utils/Counters.sol\";\r\n\r\ncontract SeekerToken is ERC721, Ownable {\r\n    using Counters for Counters.Counter;\r\n    using Strings for uint256;\r\n    Counters.Counter tokenIds;\r\n\r\n    uint256 mintFee = 0.01 ether;\r\n    uint256 levelUpFee = 0.001 ether;\r\n\r\n    mapping(uint256 => string) tokenURIs;\r\n\r\n    struct Seeker {\r\n        uint256 id;\r\n        string uri;\r\n    }\r\n\r\n    event NewSeeker(address indexed owner, uint256 id, uint256 dna);\r\n\r\n    constructor() ERC721(\"SEEKER TOKEN\", \"SKT\") {}\r\n\r\n    function _setTokenURI(uint256 _tokenId, string memory _tokenURI) internal {\r\n        tokenURIs[_tokenId] = _tokenURI;\r\n    }\r\n\r\n    function tokenURI(uint256 _tokenId)\r\n        public\r\n        view\r\n        virtual\r\n        override\r\n        returns (string memory)\r\n    {\r\n        require(_exists(_tokenId));\r\n        string memory _tokenURI = tokenURIs[_tokenId];\r\n        return _tokenURI;\r\n    }\r\n\r\n    // Helpers\r\n    function _createRandomNum(uint256 _mod) internal view returns (uint256) {\r\n        uint256 randomNum = uint256(\r\n            keccak256(abi.encodePacked(block.timestamp, msg.sender))\r\n        );\r\n        return randomNum % _mod;\r\n    }\r\n\r\n    function getAllSeekers() public view returns (Seeker[] memory) {\r\n        uint256 latestId = tokenIds.current();\r\n        uint256 counter = 0;\r\n\r\n        Seeker[] memory res = new Seeker[](latestId);\r\n        for (uint256 i = 0; i < latestId; i++) {\r\n            if (_exists(counter)) {\r\n                string memory uri = tokenURI(counter);\r\n                res[counter] = Seeker(counter, uri);\r\n            }\r\n            counter++;\r\n        }\r\n        return res;\r\n    }\r\n\r\n    function getOwnerSeekers() public view returns (Seeker[] memory) {\r\n        uint256 latestId = tokenIds.current();\r\n        uint256 counter = 0;\r\n\r\n        Seeker[] memory res = new Seeker[](latestId);\r\n        for (uint256 i = 0; i < latestId; i++) {\r\n            if (_exists(counter) && ownerOf(counter) == msg.sender) {\r\n                string memory uri = tokenURI(counter);\r\n                res[counter] = Seeker(counter, uri);\r\n            }\r\n            counter++;\r\n        }\r\n        return res;\r\n    }\r\n\r\n    // Creation\r\n\r\n    function mint(string memory _uri) public payable returns (uint256) {\r\n        require(msg.value >= mintFee, \"Insufficient funds.\");\r\n\r\n        uint256 randDna = _createRandomNum(10**16);\r\n        uint256 newId = tokenIds.current();\r\n\r\n        _mint(msg.sender, newId);\r\n        _setTokenURI(newId, _uri);\r\n\r\n        tokenIds.increment();\r\n        emit NewSeeker(msg.sender, newId, randDna);\r\n        return newId;\r\n    }\r\n\r\n    // Getters\r\n    // function getSeekers() public view returns (Seeker[] memory) {\r\n    //     return seekers;\r\n    // }\r\n\r\n    function withdraw() external payable onlyOwner {\r\n        address _owner = owner();\r\n        payable(_owner).transfer(address(this).balance);\r\n    }\r\n\r\n    //actions\r\n    // function levelUp(uint256 _seekerId) public payable {\r\n    //     require(msg.value >= levelUpFee, \"Insufficient funds.\");\r\n\r\n    //     require(ownerOf(_seekerId) == msg.sender);\r\n    //     Seeker storage seeker = seekers[_seekerId];\r\n    //     seeker.level++;\r\n    // }\r\n}\r\n",
  "sourcePath": "C:\\Users\\dsita\\Desktop\\i-am-dapp\\contracts\\SeekerToken.sol",
  "compiler": {
    "name": "solc",
    "version": "0.8.11+commit.d7f03943.Emscripten.clang"
  },
  "schemaVersion": "3.4.4",
  "updatedAt": "2022-01-29T15:56:08.635Z",
  "networkType": "ethereum",
  "devdoc": {
    "kind": "dev",
    "methods": {
      "approve(address,uint256)": {
        "details": "See {IERC721-approve}."
      },
      "balanceOf(address)": {
        "details": "See {IERC721-balanceOf}."
      },
      "getApproved(uint256)": {
        "details": "See {IERC721-getApproved}."
      },
      "isApprovedForAll(address,address)": {
        "details": "See {IERC721-isApprovedForAll}."
      },
      "name()": {
        "details": "See {IERC721Metadata-name}."
      },
      "owner()": {
        "details": "Returns the address of the current owner."
      },
      "ownerOf(uint256)": {
        "details": "See {IERC721-ownerOf}."
      },
      "renounceOwnership()": {
        "details": "Leaves the contract without owner. It will not be possible to call `onlyOwner` functions anymore. Can only be called by the current owner. NOTE: Renouncing ownership will leave the contract without an owner, thereby removing any functionality that is only available to the owner."
      },
      "safeTransferFrom(address,address,uint256)": {
        "details": "See {IERC721-safeTransferFrom}."
      },
      "safeTransferFrom(address,address,uint256,bytes)": {
        "details": "See {IERC721-safeTransferFrom}."
      },
      "setApprovalForAll(address,bool)": {
        "details": "See {IERC721-setApprovalForAll}."
      },
      "supportsInterface(bytes4)": {
        "details": "See {IERC165-supportsInterface}."
      },
      "symbol()": {
        "details": "See {IERC721Metadata-symbol}."
      },
      "transferFrom(address,address,uint256)": {
        "details": "See {IERC721-transferFrom}."
      },
      "transferOwnership(address)": {
        "details": "Transfers ownership of the contract to a new account (`newOwner`). Can only be called by the current owner."
      }
    },
    "version": 1
  },
  "userdoc": {
    "kind": "user",
    "methods": {},
    "version": 1
  }
}