{
  "contractName": "SeekerToken",
  "abi": [
    {
      "inputs": [
        {
          "internalType": "string",
          "name": "_name",
          "type": "string"
        },
        {
          "internalType": "string",
          "name": "_symbol",
          "type": "string"
        }
      ],
      "stateMutability": "nonpayable",
      "type": "constructor"
    },
    {
      "anonymous": false,
      "inputs": [
        {
          "indexed": true,
          "internalType": "address",
          "name": "owner",
          "type": "address"
        },
        {
          "indexed": true,
          "internalType": "address",
          "name": "approved",
          "type": "address"
        },
        {
          "indexed": true,
          "internalType": "uint256",
          "name": "tokenId",
          "type": "uint256"
        }
      ],
      "name": "Approval",
      "type": "event"
    },
    {
      "anonymous": false,
      "inputs": [
        {
          "indexed": true,
          "internalType": "address",
          "name": "owner",
          "type": "address"
        },
        {
          "indexed": true,
          "internalType": "address",
          "name": "operator",
          "type": "address"
        },
        {
          "indexed": false,
          "internalType": "bool",
          "name": "approved",
          "type": "bool"
        }
      ],
      "name": "ApprovalForAll",
      "type": "event"
    },
    {
      "anonymous": false,
      "inputs": [
        {
          "indexed": true,
          "internalType": "address",
          "name": "owner",
          "type": "address"
        },
        {
          "indexed": false,
          "internalType": "uint256",
          "name": "id",
          "type": "uint256"
        },
        {
          "indexed": false,
          "internalType": "string",
          "name": "uri",
          "type": "string"
        }
      ],
      "name": "NewSeeker",
      "type": "event"
    },
    {
      "anonymous": false,
      "inputs": [
        {
          "indexed": true,
          "internalType": "address",
          "name": "previousOwner",
          "type": "address"
        },
        {
          "indexed": true,
          "internalType": "address",
          "name": "newOwner",
          "type": "address"
        }
      ],
      "name": "OwnershipTransferred",
      "type": "event"
    },
    {
      "anonymous": false,
      "inputs": [
        {
          "indexed": true,
          "internalType": "address",
          "name": "from",
          "type": "address"
        },
        {
          "indexed": true,
          "internalType": "address",
          "name": "to",
          "type": "address"
        },
        {
          "indexed": true,
          "internalType": "uint256",
          "name": "tokenId",
          "type": "uint256"
        }
      ],
      "name": "Transfer",
      "type": "event"
    },
    {
      "inputs": [
        {
          "internalType": "address",
          "name": "to",
          "type": "address"
        },
        {
          "internalType": "uint256",
          "name": "tokenId",
          "type": "uint256"
        }
      ],
      "name": "approve",
      "outputs": [],
      "stateMutability": "nonpayable",
      "type": "function"
    },
    {
      "inputs": [
        {
          "internalType": "address",
          "name": "owner",
          "type": "address"
        }
      ],
      "name": "balanceOf",
      "outputs": [
        {
          "internalType": "uint256",
          "name": "",
          "type": "uint256"
        }
      ],
      "stateMutability": "view",
      "type": "function",
      "constant": true
    },
    {
      "inputs": [
        {
          "internalType": "uint256",
          "name": "tokenId",
          "type": "uint256"
        }
      ],
      "name": "getApproved",
      "outputs": [
        {
          "internalType": "address",
          "name": "",
          "type": "address"
        }
      ],
      "stateMutability": "view",
      "type": "function",
      "constant": true
    },
    {
      "inputs": [
        {
          "internalType": "address",
          "name": "owner",
          "type": "address"
        },
        {
          "internalType": "address",
          "name": "operator",
          "type": "address"
        }
      ],
      "name": "isApprovedForAll",
      "outputs": [
        {
          "internalType": "bool",
          "name": "",
          "type": "bool"
        }
      ],
      "stateMutability": "view",
      "type": "function",
      "constant": true
    },
    {
      "inputs": [],
      "name": "name",
      "outputs": [
        {
          "internalType": "string",
          "name": "",
          "type": "string"
        }
      ],
      "stateMutability": "view",
      "type": "function",
      "constant": true
    },
    {
      "inputs": [],
      "name": "owner",
      "outputs": [
        {
          "internalType": "address",
          "name": "",
          "type": "address"
        }
      ],
      "stateMutability": "view",
      "type": "function",
      "constant": true
    },
    {
      "inputs": [
        {
          "internalType": "uint256",
          "name": "tokenId",
          "type": "uint256"
        }
      ],
      "name": "ownerOf",
      "outputs": [
        {
          "internalType": "address",
          "name": "",
          "type": "address"
        }
      ],
      "stateMutability": "view",
      "type": "function",
      "constant": true
    },
    {
      "inputs": [],
      "name": "renounceOwnership",
      "outputs": [],
      "stateMutability": "nonpayable",
      "type": "function"
    },
    {
      "inputs": [
        {
          "internalType": "address",
          "name": "from",
          "type": "address"
        },
        {
          "internalType": "address",
          "name": "to",
          "type": "address"
        },
        {
          "internalType": "uint256",
          "name": "tokenId",
          "type": "uint256"
        }
      ],
      "name": "safeTransferFrom",
      "outputs": [],
      "stateMutability": "nonpayable",
      "type": "function"
    },
    {
      "inputs": [
        {
          "internalType": "address",
          "name": "from",
          "type": "address"
        },
        {
          "internalType": "address",
          "name": "to",
          "type": "address"
        },
        {
          "internalType": "uint256",
          "name": "tokenId",
          "type": "uint256"
        },
        {
          "internalType": "bytes",
          "name": "_data",
          "type": "bytes"
        }
      ],
      "name": "safeTransferFrom",
      "outputs": [],
      "stateMutability": "nonpayable",
      "type": "function"
    },
    {
      "inputs": [
        {
          "internalType": "address",
          "name": "operator",
          "type": "address"
        },
        {
          "internalType": "bool",
          "name": "approved",
          "type": "bool"
        }
      ],
      "name": "setApprovalForAll",
      "outputs": [],
      "stateMutability": "nonpayable",
      "type": "function"
    },
    {
      "inputs": [
        {
          "internalType": "bytes4",
          "name": "interfaceId",
          "type": "bytes4"
        }
      ],
      "name": "supportsInterface",
      "outputs": [
        {
          "internalType": "bool",
          "name": "",
          "type": "bool"
        }
      ],
      "stateMutability": "view",
      "type": "function",
      "constant": true
    },
    {
      "inputs": [],
      "name": "symbol",
      "outputs": [
        {
          "internalType": "string",
          "name": "",
          "type": "string"
        }
      ],
      "stateMutability": "view",
      "type": "function",
      "constant": true
    },
    {
      "inputs": [
        {
          "internalType": "address",
          "name": "from",
          "type": "address"
        },
        {
          "internalType": "address",
          "name": "to",
          "type": "address"
        },
        {
          "internalType": "uint256",
          "name": "tokenId",
          "type": "uint256"
        }
      ],
      "name": "transferFrom",
      "outputs": [],
      "stateMutability": "nonpayable",
      "type": "function"
    },
    {
      "inputs": [
        {
          "internalType": "address",
          "name": "newOwner",
          "type": "address"
        }
      ],
      "name": "transferOwnership",
      "outputs": [],
      "stateMutability": "nonpayable",
      "type": "function"
    },
    {
      "inputs": [
        {
          "internalType": "uint256",
          "name": "_tokenId",
          "type": "uint256"
        }
      ],
      "name": "tokenURI",
      "outputs": [
        {
          "internalType": "string",
          "name": "",
          "type": "string"
        }
      ],
      "stateMutability": "view",
      "type": "function",
      "constant": true
    },
    {
      "inputs": [
        {
          "internalType": "uint256",
          "name": "newFee",
          "type": "uint256"
        }
      ],
      "name": "updateMintFee",
      "outputs": [],
      "stateMutability": "nonpayable",
      "type": "function"
    },
    {
      "inputs": [
        {
          "internalType": "string",
          "name": "_uri",
          "type": "string"
        }
      ],
      "name": "mint",
      "outputs": [],
      "stateMutability": "payable",
      "type": "function",
      "payable": true
    },
    {
      "inputs": [],
      "name": "getAllSeekers",
      "outputs": [
        {
          "components": [
            {
              "internalType": "uint256",
              "name": "id",
              "type": "uint256"
            },
            {
              "internalType": "string",
              "name": "uri",
              "type": "string"
            }
          ],
          "internalType": "struct SeekerToken.Seeker[]",
          "name": "",
          "type": "tuple[]"
        }
      ],
      "stateMutability": "view",
      "type": "function",
      "constant": true
    },
    {
      "inputs": [],
      "name": "getOwnerSeekers",
      "outputs": [
        {
          "components": [
            {
              "internalType": "uint256",
              "name": "id",
              "type": "uint256"
            },
            {
              "internalType": "string",
              "name": "uri",
              "type": "string"
            }
          ],
          "internalType": "struct SeekerToken.Seeker[]",
          "name": "",
          "type": "tuple[]"
        }
      ],
      "stateMutability": "view",
      "type": "function",
      "constant": true
    },
    {
      "inputs": [],
      "name": "withdraw",
      "outputs": [],
      "stateMutability": "payable",
      "type": "function",
      "payable": true
    }
  ],
  "bytecode": "0x60806040526000600755662386f26fc100006008553480156200002157600080fd5b50604051620020a5380380620020a5833981016040819052620000449162000261565b8151829082906200005d906000906020850190620000ee565b50805162000073906001906020840190620000ee565b505050620000906200008a6200009860201b60201c565b6200009c565b505062000308565b3390565b600680546001600160a01b038381166001600160a01b0319831681179093556040519116919082907f8be0079c531659141344cd1fd0a4f28419497f9722a3daafe3b4186f6b6457e090600090a35050565b828054620000fc90620002cb565b90600052602060002090601f0160209004810192826200012057600085556200016b565b82601f106200013b57805160ff19168380011785556200016b565b828001600101855582156200016b579182015b828111156200016b5782518255916020019190600101906200014e565b50620001799291506200017d565b5090565b5b808211156200017957600081556001016200017e565b634e487b7160e01b600052604160045260246000fd5b600082601f830112620001bc57600080fd5b81516001600160401b0380821115620001d957620001d962000194565b604051601f8301601f19908116603f0116810190828211818310171562000204576200020462000194565b816040528381526020925086838588010111156200022157600080fd5b600091505b8382101562000245578582018301518183018401529082019062000226565b83821115620002575760008385830101525b9695505050505050565b600080604083850312156200027557600080fd5b82516001600160401b03808211156200028d57600080fd5b6200029b86838701620001aa565b93506020850151915080821115620002b257600080fd5b50620002c185828601620001aa565b9150509250929050565b600181811c90821680620002e057607f821691505b602082108114156200030257634e487b7160e01b600052602260045260246000fd5b50919050565b611d8d80620003186000396000f3fe60806040526004361061016a5760003560e01c806384017e52116100cb578063b49c0d021161007f578063d85d3d2711610059578063d85d3d27146103b5578063e985e9c5146103c8578063f2fde38b1461041157600080fd5b8063b49c0d0214610360578063b88d4fde14610375578063c87b56dd1461039557600080fd5b806395d89b41116100b057806395d89b4114610309578063a22cb4651461031e578063acb4a8891461033e57600080fd5b806384017e52146102cb5780638da5cb5b146102eb57600080fd5b80633ccfd60b116101225780636352211e116101075780636352211e1461026857806370a0823114610288578063715018a6146102b657600080fd5b80633ccfd60b1461024057806342842e0e1461024857600080fd5b8063081812fc11610153578063081812fc146101c6578063095ea7b3146101fe57806323b872dd1461022057600080fd5b806301ffc9a71461016f57806306fdde03146101a4575b600080fd5b34801561017b57600080fd5b5061018f61018a3660046118c6565b610431565b60405190151581526020015b60405180910390f35b3480156101b057600080fd5b506101b96104ce565b60405161019b9190611937565b3480156101d257600080fd5b506101e66101e136600461194a565b610560565b6040516001600160a01b03909116815260200161019b565b34801561020a57600080fd5b5061021e61021936600461197f565b61060b565b005b34801561022c57600080fd5b5061021e61023b3660046119a9565b61073d565b61021e6107c4565b34801561025457600080fd5b5061021e6102633660046119a9565b61086e565b34801561027457600080fd5b506101e661028336600461194a565b610889565b34801561029457600080fd5b506102a86102a33660046119e5565b610914565b60405190815260200161019b565b3480156102c257600080fd5b5061021e6109ae565b3480156102d757600080fd5b5061021e6102e636600461194a565b610a14565b3480156102f757600080fd5b506006546001600160a01b03166101e6565b34801561031557600080fd5b506101b9610a73565b34801561032a57600080fd5b5061021e610339366004611a00565b610a82565b34801561034a57600080fd5b50610353610a8d565b60405161019b9190611a3c565b34801561036c57600080fd5b50610353610ba7565b34801561038157600080fd5b5061021e610390366004611b3c565b610c9b565b3480156103a157600080fd5b506101b96103b036600461194a565b610d29565b61021e6103c3366004611bb8565b610dec565b3480156103d457600080fd5b5061018f6103e3366004611c01565b6001600160a01b03918216600090815260056020908152604080832093909416825291909152205460ff1690565b34801561041d57600080fd5b5061021e61042c3660046119e5565b610e4a565b60006001600160e01b031982167f80ac58cd00000000000000000000000000000000000000000000000000000000148061049457506001600160e01b031982167f5b5e139f00000000000000000000000000000000000000000000000000000000145b806104c857507f01ffc9a7000000000000000000000000000000000000000000000000000000006001600160e01b03198316145b92915050565b6060600080546104dd90611c34565b80601f016020809104026020016040519081016040528092919081815260200182805461050990611c34565b80156105565780601f1061052b57610100808354040283529160200191610556565b820191906000526020600020905b81548152906001019060200180831161053957829003601f168201915b5050505050905090565b6000818152600260205260408120546001600160a01b03166105ef5760405162461bcd60e51b815260206004820152602c60248201527f4552433732313a20617070726f76656420717565727920666f72206e6f6e657860448201527f697374656e7420746f6b656e000000000000000000000000000000000000000060648201526084015b60405180910390fd5b506000908152600460205260409020546001600160a01b031690565b600061061682610889565b9050806001600160a01b0316836001600160a01b031614156106a05760405162461bcd60e51b815260206004820152602160248201527f4552433732313a20617070726f76616c20746f2063757272656e74206f776e6560448201527f720000000000000000000000000000000000000000000000000000000000000060648201526084016105e6565b336001600160a01b03821614806106bc57506106bc81336103e3565b61072e5760405162461bcd60e51b815260206004820152603860248201527f4552433732313a20617070726f76652063616c6c6572206973206e6f74206f7760448201527f6e6572206e6f7220617070726f76656420666f7220616c6c000000000000000060648201526084016105e6565b6107388383610f29565b505050565b6107473382610fa4565b6107b95760405162461bcd60e51b815260206004820152603160248201527f4552433732313a207472616e736665722063616c6c6572206973206e6f74206f60448201527f776e6572206e6f7220617070726f76656400000000000000000000000000000060648201526084016105e6565b6107388383836110ac565b6006546001600160a01b0316331461081e5760405162461bcd60e51b815260206004820181905260248201527f4f776e61626c653a2063616c6c6572206973206e6f7420746865206f776e657260448201526064016105e6565b60006108326006546001600160a01b031690565b6040519091506001600160a01b038216904780156108fc02916000818181858888f1935050505015801561086a573d6000803e3d6000fd5b5050565b61073883838360405180602001604052806000815250610c9b565b6000818152600260205260408120546001600160a01b0316806104c85760405162461bcd60e51b815260206004820152602960248201527f4552433732313a206f776e657220717565727920666f72206e6f6e657869737460448201527f656e7420746f6b656e000000000000000000000000000000000000000000000060648201526084016105e6565b60006001600160a01b0382166109925760405162461bcd60e51b815260206004820152602a60248201527f4552433732313a2062616c616e636520717565727920666f7220746865207a6560448201527f726f20616464726573730000000000000000000000000000000000000000000060648201526084016105e6565b506001600160a01b031660009081526003602052604090205490565b6006546001600160a01b03163314610a085760405162461bcd60e51b815260206004820181905260248201527f4f776e61626c653a2063616c6c6572206973206e6f7420746865206f776e657260448201526064016105e6565b610a126000611286565b565b6006546001600160a01b03163314610a6e5760405162461bcd60e51b815260206004820181905260248201527f4f776e61626c653a2063616c6c6572206973206e6f7420746865206f776e657260448201526064016105e6565b600855565b6060600180546104dd90611c34565b61086a3383836112e5565b6007546060906000808267ffffffffffffffff811115610aaf57610aaf611ab0565b604051908082528060200260200182016040528015610af557816020015b604080518082019091526000815260606020820152815260200190600190039081610acd5790505b50905060005b83811015610b9f576000838152600260205260409020546001600160a01b031615158015610b39575033610b2e84610889565b6001600160a01b0316145b15610b7f576000610b4984610d29565b9050604051806040016040528085815260200182815250838581518110610b7257610b72611c6f565b6020026020010181905250505b82610b8981611c9b565b9350508080610b9790611c9b565b915050610afb565b509392505050565b6007546060906000808267ffffffffffffffff811115610bc957610bc9611ab0565b604051908082528060200260200182016040528015610c0f57816020015b604080518082019091526000815260606020820152815260200190600190039081610be75790505b50905060005b83811015610b9f576000838152600260205260409020546001600160a01b031615610c7b576000610c4584610d29565b9050604051806040016040528085815260200182815250838581518110610c6e57610c6e611c6f565b6020026020010181905250505b82610c8581611c9b565b9350508080610c9390611c9b565b915050610c15565b610ca53383610fa4565b610d175760405162461bcd60e51b815260206004820152603160248201527f4552433732313a207472616e736665722063616c6c6572206973206e6f74206f60448201527f776e6572206e6f7220617070726f76656400000000000000000000000000000060648201526084016105e6565b610d23848484846113b4565b50505050565b6000818152600260205260409020546060906001600160a01b0316610d4d57600080fd5b60008281526009602052604081208054610d6690611c34565b80601f0160208091040260200160405190810160405280929190818152602001828054610d9290611c34565b8015610ddf5780601f10610db457610100808354040283529160200191610ddf565b820191906000526020600020905b815481529060010190602001808311610dc257829003601f168201915b5093979650505050505050565b600854341015610e3e5760405162461bcd60e51b815260206004820152601360248201527f496e73756666696369656e742066756e64732e0000000000000000000000000060448201526064016105e6565b610e478161143d565b50565b6006546001600160a01b03163314610ea45760405162461bcd60e51b815260206004820181905260248201527f4f776e61626c653a2063616c6c6572206973206e6f7420746865206f776e657260448201526064016105e6565b6001600160a01b038116610f205760405162461bcd60e51b815260206004820152602660248201527f4f776e61626c653a206e6577206f776e657220697320746865207a65726f206160448201527f646472657373000000000000000000000000000000000000000000000000000060648201526084016105e6565b610e4781611286565b6000818152600460205260409020805473ffffffffffffffffffffffffffffffffffffffff19166001600160a01b0384169081179091558190610f6b82610889565b6001600160a01b03167f8c5be1e5ebec7d5bd14f71427d1e84f3dd0314c0f7b2291e5b200ac8c7c3b92560405160405180910390a45050565b6000818152600260205260408120546001600160a01b031661102e5760405162461bcd60e51b815260206004820152602c60248201527f4552433732313a206f70657261746f7220717565727920666f72206e6f6e657860448201527f697374656e7420746f6b656e000000000000000000000000000000000000000060648201526084016105e6565b600061103983610889565b9050806001600160a01b0316846001600160a01b031614806110745750836001600160a01b031661106984610560565b6001600160a01b0316145b806110a457506001600160a01b0380821660009081526005602090815260408083209388168352929052205460ff165b949350505050565b826001600160a01b03166110bf82610889565b6001600160a01b03161461113b5760405162461bcd60e51b815260206004820152602960248201527f4552433732313a207472616e73666572206f6620746f6b656e2074686174206960448201527f73206e6f74206f776e000000000000000000000000000000000000000000000060648201526084016105e6565b6001600160a01b0382166111b65760405162461bcd60e51b8152602060048201526024808201527f4552433732313a207472616e7366657220746f20746865207a65726f2061646460448201527f726573730000000000000000000000000000000000000000000000000000000060648201526084016105e6565b6111c1600082610f29565b6001600160a01b03831660009081526003602052604081208054600192906111ea908490611cb6565b90915550506001600160a01b0382166000908152600360205260408120805460019290611218908490611ccd565b9091555050600081815260026020526040808220805473ffffffffffffffffffffffffffffffffffffffff19166001600160a01b0386811691821790925591518493918716917fddf252ad1be2c89b69c2b068fc378daa952ba7f163c4a11628f55a4df523b3ef91a4505050565b600680546001600160a01b0383811673ffffffffffffffffffffffffffffffffffffffff19831681179093556040519116919082907f8be0079c531659141344cd1fd0a4f28419497f9722a3daafe3b4186f6b6457e090600090a35050565b816001600160a01b0316836001600160a01b031614156113475760405162461bcd60e51b815260206004820152601960248201527f4552433732313a20617070726f766520746f2063616c6c65720000000000000060448201526064016105e6565b6001600160a01b03838116600081815260056020908152604080832094871680845294825291829020805460ff191686151590811790915591519182527f17307eab39ab6107e8899845ad3d59bd9653f200f220920489ca2b5937696c31910160405180910390a3505050565b6113bf8484846110ac565b6113cb848484846114b2565b610d235760405162461bcd60e51b815260206004820152603260248201527f4552433732313a207472616e7366657220746f206e6f6e20455243373231526560448201527f63656976657220696d706c656d656e746572000000000000000000000000000060648201526084016105e6565b61144933600754611606565b61145560075482611620565b336001600160a01b03167f9b1d6efb528ed1fa8e6aee6ed6b5b50ee8b7472deaad3f4a26f92759a8e3685760075483604051611492929190611ce5565b60405180910390a2600780549060006114aa83611c9b565b919050555050565b60006001600160a01b0384163b156115fb57604051630a85bd0160e11b81526001600160a01b0385169063150b7a02906114f6903390899088908890600401611cfe565b6020604051808303816000875af1925050508015611531575060408051601f3d908101601f1916820190925261152e91810190611d3a565b60015b6115e1573d80801561155f576040519150601f19603f3d011682016040523d82523d6000602084013e611564565b606091505b5080516115d95760405162461bcd60e51b815260206004820152603260248201527f4552433732313a207472616e7366657220746f206e6f6e20455243373231526560448201527f63656976657220696d706c656d656e746572000000000000000000000000000060648201526084016105e6565b805181602001fd5b6001600160e01b031916630a85bd0160e11b1490506110a4565b506001949350505050565b61086a82826040518060200160405280600081525061163f565b6000828152600960209081526040909120825161073892840190611817565b61164983836116c8565b61165660008484846114b2565b6107385760405162461bcd60e51b815260206004820152603260248201527f4552433732313a207472616e7366657220746f206e6f6e20455243373231526560448201527f63656976657220696d706c656d656e746572000000000000000000000000000060648201526084016105e6565b6001600160a01b03821661171e5760405162461bcd60e51b815260206004820181905260248201527f4552433732313a206d696e7420746f20746865207a65726f206164647265737360448201526064016105e6565b6000818152600260205260409020546001600160a01b0316156117835760405162461bcd60e51b815260206004820152601c60248201527f4552433732313a20746f6b656e20616c7265616479206d696e7465640000000060448201526064016105e6565b6001600160a01b03821660009081526003602052604081208054600192906117ac908490611ccd565b9091555050600081815260026020526040808220805473ffffffffffffffffffffffffffffffffffffffff19166001600160a01b03861690811790915590518392907fddf252ad1be2c89b69c2b068fc378daa952ba7f163c4a11628f55a4df523b3ef908290a45050565b82805461182390611c34565b90600052602060002090601f016020900481019282611845576000855561188b565b82601f1061185e57805160ff191683800117855561188b565b8280016001018555821561188b579182015b8281111561188b578251825591602001919060010190611870565b5061189792915061189b565b5090565b5b80821115611897576000815560010161189c565b6001600160e01b031981168114610e4757600080fd5b6000602082840312156118d857600080fd5b81356118e3816118b0565b9392505050565b6000815180845260005b81811015611910576020818501810151868301820152016118f4565b81811115611922576000602083870101525b50601f01601f19169290920160200192915050565b6020815260006118e360208301846118ea565b60006020828403121561195c57600080fd5b5035919050565b80356001600160a01b038116811461197a57600080fd5b919050565b6000806040838503121561199257600080fd5b61199b83611963565b946020939093013593505050565b6000806000606084860312156119be57600080fd5b6119c784611963565b92506119d560208501611963565b9150604084013590509250925092565b6000602082840312156119f757600080fd5b6118e382611963565b60008060408385031215611a1357600080fd5b611a1c83611963565b915060208301358015158114611a3157600080fd5b809150509250929050565b60006020808301818452808551808352604092508286019150828160051b87010184880160005b83811015611aa257888303603f19018552815180518452870151878401879052611a8f878501826118ea565b9588019593505090860190600101611a63565b509098975050505050505050565b634e487b7160e01b600052604160045260246000fd5b600067ffffffffffffffff80841115611ae157611ae1611ab0565b604051601f8501601f19908116603f01168101908282118183101715611b0957611b09611ab0565b81604052809350858152868686011115611b2257600080fd5b858560208301376000602087830101525050509392505050565b60008060008060808587031215611b5257600080fd5b611b5b85611963565b9350611b6960208601611963565b925060408501359150606085013567ffffffffffffffff811115611b8c57600080fd5b8501601f81018713611b9d57600080fd5b611bac87823560208401611ac6565b91505092959194509250565b600060208284031215611bca57600080fd5b813567ffffffffffffffff811115611be157600080fd5b8201601f81018413611bf257600080fd5b6110a484823560208401611ac6565b60008060408385031215611c1457600080fd5b611c1d83611963565b9150611c2b60208401611963565b90509250929050565b600181811c90821680611c4857607f821691505b60208210811415611c6957634e487b7160e01b600052602260045260246000fd5b50919050565b634e487b7160e01b600052603260045260246000fd5b634e487b7160e01b600052601160045260246000fd5b6000600019821415611caf57611caf611c85565b5060010190565b600082821015611cc857611cc8611c85565b500390565b60008219821115611ce057611ce0611c85565b500190565b8281526040602082015260006110a460408301846118ea565b60006001600160a01b03808716835280861660208401525083604083015260806060830152611d3060808301846118ea565b9695505050505050565b600060208284031215611d4c57600080fd5b81516118e3816118b056fea264697066735822122091a0a9fbc5a3b95b5cf8b087d3c886ac24e0d5e5a9cdcbb9c12238a0fb1ffa6764736f6c634300080b0033",
  "immutableReferences": {},
  "source": "// SPDX-License-Identifier: MIT\r\n\r\npragma solidity ^0.8.0;\r\n\r\nimport \"@openzeppelin/contracts/token/ERC721/ERC721.sol\";\r\n\r\nimport \"@openzeppelin/contracts/access/Ownable.sol\";\r\n\r\ncontract SeekerToken is ERC721, Ownable {\r\n    uint256 COUNTER = 0;\r\n    uint256 mintFee = 0.01 ether;\r\n\r\n    struct Seeker {\r\n        uint256 id;\r\n        string uri;\r\n    }\r\n\r\n    mapping(uint256 => string) tokenURIs;\r\n\r\n    function _setTokenURI(uint256 _tokenId, string memory _tokenURI) internal {\r\n        tokenURIs[_tokenId] = _tokenURI;\r\n    }\r\n\r\n    function tokenURI(uint256 _tokenId)\r\n        public\r\n        view\r\n        virtual\r\n        override\r\n        returns (string memory)\r\n    {\r\n        require(_exists(_tokenId));\r\n        string memory _tokenURI = tokenURIs[_tokenId];\r\n        return _tokenURI;\r\n    }\r\n\r\n    event NewSeeker(address indexed owner, uint256 id, string uri);\r\n\r\n    constructor(string memory _name, string memory _symbol)\r\n        ERC721(_name, _symbol)\r\n    {}\r\n\r\n    // Helpers\r\n    function _createRandomNum(uint256 _mod) internal view returns (uint256) {\r\n        uint256 randomNum = uint256(\r\n            keccak256(abi.encodePacked(block.timestamp, msg.sender))\r\n        );\r\n        return randomNum % _mod;\r\n    }\r\n\r\n    function updateMintFee(uint256 newFee) external onlyOwner {\r\n        mintFee = newFee;\r\n    }\r\n\r\n    // Creation\r\n    function _createSeeker(string memory _uri) internal {\r\n        _safeMint(msg.sender, COUNTER);\r\n        _setTokenURI(COUNTER, _uri);\r\n        emit NewSeeker(msg.sender, COUNTER, _uri);\r\n        COUNTER++;\r\n    }\r\n\r\n    function mint(string memory _uri) public payable {\r\n        require(msg.value >= mintFee, \"Insufficient funds.\");\r\n        _createSeeker(_uri);\r\n    }\r\n\r\n    // Getters\r\n    function getAllSeekers() public view returns (Seeker[] memory) {\r\n        uint256 latestId = COUNTER;\r\n        uint256 counter = 0;\r\n\r\n        Seeker[] memory res = new Seeker[](latestId);\r\n        for (uint256 i = 0; i < latestId; i++) {\r\n            if (_exists(counter)) {\r\n                string memory uri = tokenURI(counter);\r\n                res[counter] = Seeker(counter, uri);\r\n            }\r\n            counter++;\r\n        }\r\n        return res;\r\n    }\r\n\r\n    function getOwnerSeekers() public view returns (Seeker[] memory) {\r\n        uint256 latestId = COUNTER;\r\n        uint256 counter = 0;\r\n\r\n        Seeker[] memory res = new Seeker[](latestId);\r\n        for (uint256 i = 0; i < latestId; i++) {\r\n            if (_exists(counter) && ownerOf(counter) == msg.sender) {\r\n                string memory uri = tokenURI(counter);\r\n                res[counter] = Seeker(counter, uri);\r\n            }\r\n            counter++;\r\n        }\r\n        return res;\r\n    }\r\n\r\n    function withdraw() external payable onlyOwner {\r\n        address _owner = owner();\r\n        payable(_owner).transfer(address(this).balance);\r\n    }\r\n}\r\n",
  "sourcePath": "C:\\Users\\dsita\\Desktop\\i-am-dapp\\contracts\\SeekerToken.sol",
  "compiler": {
    "name": "solc",
    "version": "0.8.11+commit.d7f03943.Emscripten.clang"
  },
  "schemaVersion": "3.4.4",
  "updatedAt": "2022-01-31T01:31:27.719Z",
  "networkType": "ethereum",
  "devdoc": {
    "kind": "dev",
    "methods": {
      "approve(address,uint256)": {
        "details": "See {IERC721-approve}."
      },
      "balanceOf(address)": {
        "details": "See {IERC721-balanceOf}."
      },
      "getApproved(uint256)": {
        "details": "See {IERC721-getApproved}."
      },
      "isApprovedForAll(address,address)": {
        "details": "See {IERC721-isApprovedForAll}."
      },
      "name()": {
        "details": "See {IERC721Metadata-name}."
      },
      "owner()": {
        "details": "Returns the address of the current owner."
      },
      "ownerOf(uint256)": {
        "details": "See {IERC721-ownerOf}."
      },
      "renounceOwnership()": {
        "details": "Leaves the contract without owner. It will not be possible to call `onlyOwner` functions anymore. Can only be called by the current owner. NOTE: Renouncing ownership will leave the contract without an owner, thereby removing any functionality that is only available to the owner."
      },
      "safeTransferFrom(address,address,uint256)": {
        "details": "See {IERC721-safeTransferFrom}."
      },
      "safeTransferFrom(address,address,uint256,bytes)": {
        "details": "See {IERC721-safeTransferFrom}."
      },
      "setApprovalForAll(address,bool)": {
        "details": "See {IERC721-setApprovalForAll}."
      },
      "supportsInterface(bytes4)": {
        "details": "See {IERC165-supportsInterface}."
      },
      "symbol()": {
        "details": "See {IERC721Metadata-symbol}."
      },
      "transferFrom(address,address,uint256)": {
        "details": "See {IERC721-transferFrom}."
      },
      "transferOwnership(address)": {
        "details": "Transfers ownership of the contract to a new account (`newOwner`). Can only be called by the current owner."
      }
    },
    "version": 1
  },
  "userdoc": {
    "kind": "user",
    "methods": {},
    "version": 1
  }
}