{
  "contractName": "SeekerToken",
  "abi": [
    {
      "inputs": [
        {
          "internalType": "string",
          "name": "_name",
          "type": "string"
        },
        {
          "internalType": "string",
          "name": "_symbol",
          "type": "string"
        }
      ],
      "stateMutability": "nonpayable",
      "type": "constructor"
    },
    {
      "anonymous": false,
      "inputs": [
        {
          "indexed": true,
          "internalType": "address",
          "name": "owner",
          "type": "address"
        },
        {
          "indexed": true,
          "internalType": "address",
          "name": "approved",
          "type": "address"
        },
        {
          "indexed": true,
          "internalType": "uint256",
          "name": "tokenId",
          "type": "uint256"
        }
      ],
      "name": "Approval",
      "type": "event"
    },
    {
      "anonymous": false,
      "inputs": [
        {
          "indexed": true,
          "internalType": "address",
          "name": "owner",
          "type": "address"
        },
        {
          "indexed": true,
          "internalType": "address",
          "name": "operator",
          "type": "address"
        },
        {
          "indexed": false,
          "internalType": "bool",
          "name": "approved",
          "type": "bool"
        }
      ],
      "name": "ApprovalForAll",
      "type": "event"
    },
    {
      "anonymous": false,
      "inputs": [
        {
          "indexed": true,
          "internalType": "address",
          "name": "owner",
          "type": "address"
        },
        {
          "indexed": false,
          "internalType": "uint256",
          "name": "id",
          "type": "uint256"
        },
        {
          "indexed": false,
          "internalType": "string",
          "name": "uri",
          "type": "string"
        }
      ],
      "name": "NewSeeker",
      "type": "event"
    },
    {
      "anonymous": false,
      "inputs": [
        {
          "indexed": true,
          "internalType": "address",
          "name": "previousOwner",
          "type": "address"
        },
        {
          "indexed": true,
          "internalType": "address",
          "name": "newOwner",
          "type": "address"
        }
      ],
      "name": "OwnershipTransferred",
      "type": "event"
    },
    {
      "anonymous": false,
      "inputs": [
        {
          "indexed": true,
          "internalType": "address",
          "name": "from",
          "type": "address"
        },
        {
          "indexed": true,
          "internalType": "address",
          "name": "to",
          "type": "address"
        },
        {
          "indexed": true,
          "internalType": "uint256",
          "name": "tokenId",
          "type": "uint256"
        }
      ],
      "name": "Transfer",
      "type": "event"
    },
    {
      "inputs": [],
      "name": "MAX_SUPPLY",
      "outputs": [
        {
          "internalType": "uint256",
          "name": "",
          "type": "uint256"
        }
      ],
      "stateMutability": "view",
      "type": "function",
      "constant": true
    },
    {
      "inputs": [
        {
          "internalType": "address",
          "name": "to",
          "type": "address"
        },
        {
          "internalType": "uint256",
          "name": "tokenId",
          "type": "uint256"
        }
      ],
      "name": "approve",
      "outputs": [],
      "stateMutability": "nonpayable",
      "type": "function"
    },
    {
      "inputs": [
        {
          "internalType": "address",
          "name": "owner",
          "type": "address"
        }
      ],
      "name": "balanceOf",
      "outputs": [
        {
          "internalType": "uint256",
          "name": "",
          "type": "uint256"
        }
      ],
      "stateMutability": "view",
      "type": "function",
      "constant": true
    },
    {
      "inputs": [
        {
          "internalType": "uint256",
          "name": "tokenId",
          "type": "uint256"
        }
      ],
      "name": "getApproved",
      "outputs": [
        {
          "internalType": "address",
          "name": "",
          "type": "address"
        }
      ],
      "stateMutability": "view",
      "type": "function",
      "constant": true
    },
    {
      "inputs": [
        {
          "internalType": "address",
          "name": "owner",
          "type": "address"
        },
        {
          "internalType": "address",
          "name": "operator",
          "type": "address"
        }
      ],
      "name": "isApprovedForAll",
      "outputs": [
        {
          "internalType": "bool",
          "name": "",
          "type": "bool"
        }
      ],
      "stateMutability": "view",
      "type": "function",
      "constant": true
    },
    {
      "inputs": [],
      "name": "name",
      "outputs": [
        {
          "internalType": "string",
          "name": "",
          "type": "string"
        }
      ],
      "stateMutability": "view",
      "type": "function",
      "constant": true
    },
    {
      "inputs": [],
      "name": "owner",
      "outputs": [
        {
          "internalType": "address",
          "name": "",
          "type": "address"
        }
      ],
      "stateMutability": "view",
      "type": "function",
      "constant": true
    },
    {
      "inputs": [
        {
          "internalType": "uint256",
          "name": "tokenId",
          "type": "uint256"
        }
      ],
      "name": "ownerOf",
      "outputs": [
        {
          "internalType": "address",
          "name": "",
          "type": "address"
        }
      ],
      "stateMutability": "view",
      "type": "function",
      "constant": true
    },
    {
      "inputs": [],
      "name": "renounceOwnership",
      "outputs": [],
      "stateMutability": "nonpayable",
      "type": "function"
    },
    {
      "inputs": [
        {
          "internalType": "address",
          "name": "from",
          "type": "address"
        },
        {
          "internalType": "address",
          "name": "to",
          "type": "address"
        },
        {
          "internalType": "uint256",
          "name": "tokenId",
          "type": "uint256"
        }
      ],
      "name": "safeTransferFrom",
      "outputs": [],
      "stateMutability": "nonpayable",
      "type": "function"
    },
    {
      "inputs": [
        {
          "internalType": "address",
          "name": "from",
          "type": "address"
        },
        {
          "internalType": "address",
          "name": "to",
          "type": "address"
        },
        {
          "internalType": "uint256",
          "name": "tokenId",
          "type": "uint256"
        },
        {
          "internalType": "bytes",
          "name": "_data",
          "type": "bytes"
        }
      ],
      "name": "safeTransferFrom",
      "outputs": [],
      "stateMutability": "nonpayable",
      "type": "function"
    },
    {
      "inputs": [
        {
          "internalType": "address",
          "name": "operator",
          "type": "address"
        },
        {
          "internalType": "bool",
          "name": "approved",
          "type": "bool"
        }
      ],
      "name": "setApprovalForAll",
      "outputs": [],
      "stateMutability": "nonpayable",
      "type": "function"
    },
    {
      "inputs": [
        {
          "internalType": "bytes4",
          "name": "interfaceId",
          "type": "bytes4"
        }
      ],
      "name": "supportsInterface",
      "outputs": [
        {
          "internalType": "bool",
          "name": "",
          "type": "bool"
        }
      ],
      "stateMutability": "view",
      "type": "function",
      "constant": true
    },
    {
      "inputs": [],
      "name": "symbol",
      "outputs": [
        {
          "internalType": "string",
          "name": "",
          "type": "string"
        }
      ],
      "stateMutability": "view",
      "type": "function",
      "constant": true
    },
    {
      "inputs": [
        {
          "internalType": "address",
          "name": "from",
          "type": "address"
        },
        {
          "internalType": "address",
          "name": "to",
          "type": "address"
        },
        {
          "internalType": "uint256",
          "name": "tokenId",
          "type": "uint256"
        }
      ],
      "name": "transferFrom",
      "outputs": [],
      "stateMutability": "nonpayable",
      "type": "function"
    },
    {
      "inputs": [
        {
          "internalType": "address",
          "name": "newOwner",
          "type": "address"
        }
      ],
      "name": "transferOwnership",
      "outputs": [],
      "stateMutability": "nonpayable",
      "type": "function"
    },
    {
      "inputs": [
        {
          "internalType": "uint256",
          "name": "_tokenId",
          "type": "uint256"
        }
      ],
      "name": "tokenURI",
      "outputs": [
        {
          "internalType": "string",
          "name": "",
          "type": "string"
        }
      ],
      "stateMutability": "view",
      "type": "function",
      "constant": true
    },
    {
      "inputs": [
        {
          "internalType": "uint256",
          "name": "newFee",
          "type": "uint256"
        }
      ],
      "name": "updateMintFee",
      "outputs": [],
      "stateMutability": "nonpayable",
      "type": "function"
    },
    {
      "inputs": [
        {
          "internalType": "string",
          "name": "_uri",
          "type": "string"
        }
      ],
      "name": "mint",
      "outputs": [],
      "stateMutability": "payable",
      "type": "function",
      "payable": true
    },
    {
      "inputs": [],
      "name": "getAllSeekers",
      "outputs": [
        {
          "components": [
            {
              "internalType": "uint256",
              "name": "id",
              "type": "uint256"
            },
            {
              "internalType": "string",
              "name": "uri",
              "type": "string"
            }
          ],
          "internalType": "struct SeekerToken.Seeker[]",
          "name": "",
          "type": "tuple[]"
        }
      ],
      "stateMutability": "view",
      "type": "function",
      "constant": true
    },
    {
      "inputs": [],
      "name": "getOwnerSeekers",
      "outputs": [
        {
          "components": [
            {
              "internalType": "uint256",
              "name": "id",
              "type": "uint256"
            },
            {
              "internalType": "string",
              "name": "uri",
              "type": "string"
            }
          ],
          "internalType": "struct SeekerToken.Seeker[]",
          "name": "",
          "type": "tuple[]"
        }
      ],
      "stateMutability": "view",
      "type": "function",
      "constant": true
    },
    {
      "inputs": [],
      "name": "withdraw",
      "outputs": [],
      "stateMutability": "payable",
      "type": "function",
      "payable": true
    }
  ],
  "bytecode": "0x60806040526000600755662386f26fc100006008553480156200002157600080fd5b5060405162003e3638038062003e368339818101604052810190620000479190620003c0565b818181600090805190602001906200006192919062000173565b5080600190805190602001906200007a92919062000173565b5050506200009d62000091620000a560201b60201c565b620000ad60201b60201c565b5050620004aa565b600033905090565b6000600660009054906101000a900473ffffffffffffffffffffffffffffffffffffffff16905081600660006101000a81548173ffffffffffffffffffffffffffffffffffffffff021916908373ffffffffffffffffffffffffffffffffffffffff1602179055508173ffffffffffffffffffffffffffffffffffffffff168173ffffffffffffffffffffffffffffffffffffffff167f8be0079c531659141344cd1fd0a4f28419497f9722a3daafe3b4186f6b6457e060405160405180910390a35050565b828054620001819062000474565b90600052602060002090601f016020900481019282620001a55760008555620001f1565b82601f10620001c057805160ff1916838001178555620001f1565b82800160010185558215620001f1579182015b82811115620001f0578251825591602001919060010190620001d3565b5b50905062000200919062000204565b5090565b5b808211156200021f57600081600090555060010162000205565b5090565b6000604051905090565b600080fd5b600080fd5b600080fd5b600080fd5b6000601f19601f8301169050919050565b7f4e487b7100000000000000000000000000000000000000000000000000000000600052604160045260246000fd5b6200028c8262000241565b810181811067ffffffffffffffff82111715620002ae57620002ad62000252565b5b80604052505050565b6000620002c362000223565b9050620002d1828262000281565b919050565b600067ffffffffffffffff821115620002f457620002f362000252565b5b620002ff8262000241565b9050602081019050919050565b60005b838110156200032c5780820151818401526020810190506200030f565b838111156200033c576000848401525b50505050565b6000620003596200035384620002d6565b620002b7565b9050828152602081018484840111156200037857620003776200023c565b5b620003858482856200030c565b509392505050565b600082601f830112620003a557620003a462000237565b5b8151620003b784826020860162000342565b91505092915050565b60008060408385031215620003da57620003d96200022d565b5b600083015167ffffffffffffffff811115620003fb57620003fa62000232565b5b62000409858286016200038d565b925050602083015167ffffffffffffffff8111156200042d576200042c62000232565b5b6200043b858286016200038d565b9150509250929050565b7f4e487b7100000000000000000000000000000000000000000000000000000000600052602260045260246000fd5b600060028204905060018216806200048d57607f821691505b60208210811415620004a457620004a362000445565b5b50919050565b61397c80620004ba6000396000f3fe6080604052600436106101355760003560e01c806384017e52116100ab578063b49c0d021161006f578063b49c0d02146103f3578063b88d4fde1461041e578063c87b56dd14610447578063d85d3d2714610484578063e985e9c5146104a0578063f2fde38b146104dd57610135565b806384017e52146103205780638da5cb5b1461034957806395d89b4114610374578063a22cb4651461039f578063acb4a889146103c857610135565b806332cb6b0c116100fd57806332cb6b0c146102315780633ccfd60b1461025c57806342842e0e146102665780636352211e1461028f57806370a08231146102cc578063715018a61461030957610135565b806301ffc9a71461013a57806306fdde0314610177578063081812fc146101a2578063095ea7b3146101df57806323b872dd14610208575b600080fd5b34801561014657600080fd5b50610161600480360381019061015c9190612244565b610506565b60405161016e919061228c565b60405180910390f35b34801561018357600080fd5b5061018c6105e8565b6040516101999190612340565b60405180910390f35b3480156101ae57600080fd5b506101c960048036038101906101c49190612398565b61067a565b6040516101d69190612406565b60405180910390f35b3480156101eb57600080fd5b506102066004803603810190610201919061244d565b6106ff565b005b34801561021457600080fd5b5061022f600480360381019061022a919061248d565b610817565b005b34801561023d57600080fd5b50610246610877565b60405161025391906124ef565b60405180910390f35b61026461087d565b005b34801561027257600080fd5b5061028d6004803603810190610288919061248d565b61094f565b005b34801561029b57600080fd5b506102b660048036038101906102b19190612398565b61096f565b6040516102c39190612406565b60405180910390f35b3480156102d857600080fd5b506102f360048036038101906102ee919061250a565b610a21565b60405161030091906124ef565b60405180910390f35b34801561031557600080fd5b5061031e610ad9565b005b34801561032c57600080fd5b5061034760048036038101906103429190612398565b610b61565b005b34801561035557600080fd5b5061035e610be7565b60405161036b9190612406565b60405180910390f35b34801561038057600080fd5b50610389610c11565b6040516103969190612340565b60405180910390f35b3480156103ab57600080fd5b506103c660048036038101906103c19190612563565b610ca3565b005b3480156103d457600080fd5b506103dd610cb9565b6040516103ea91906126fb565b60405180910390f35b3480156103ff57600080fd5b50610408610de0565b60405161041591906126fb565b60405180910390f35b34801561042a57600080fd5b5061044560048036038101906104409190612852565b610ec8565b005b34801561045357600080fd5b5061046e60048036038101906104699190612398565b610f2a565b60405161047b9190612340565b60405180910390f35b61049e60048036038101906104999190612976565b610fe7565b005b3480156104ac57600080fd5b506104c760048036038101906104c291906129bf565b6110c1565b6040516104d4919061228c565b60405180910390f35b3480156104e957600080fd5b5061050460048036038101906104ff919061250a565b611155565b005b60007f80ac58cd000000000000000000000000000000000000000000000000000000007bffffffffffffffffffffffffffffffffffffffffffffffffffffffff1916827bffffffffffffffffffffffffffffffffffffffffffffffffffffffff191614806105d157507f5b5e139f000000000000000000000000000000000000000000000000000000007bffffffffffffffffffffffffffffffffffffffffffffffffffffffff1916827bffffffffffffffffffffffffffffffffffffffffffffffffffffffff1916145b806105e157506105e08261124d565b5b9050919050565b6060600080546105f790612a2e565b80601f016020809104026020016040519081016040528092919081815260200182805461062390612a2e565b80156106705780601f1061064557610100808354040283529160200191610670565b820191906000526020600020905b81548152906001019060200180831161065357829003601f168201915b5050505050905090565b6000610685826112b7565b6106c4576040517f08c379a00000000000000000000000000000000000000000000000000000000081526004016106bb90612ad2565b60405180910390fd5b6004600083815260200190815260200160002060009054906101000a900473ffffffffffffffffffffffffffffffffffffffff169050919050565b600061070a8261096f565b90508073ffffffffffffffffffffffffffffffffffffffff168373ffffffffffffffffffffffffffffffffffffffff16141561077b576040517f08c379a000000000000000000000000000000000000000000000000000000000815260040161077290612b64565b60405180910390fd5b8073ffffffffffffffffffffffffffffffffffffffff1661079a611323565b73ffffffffffffffffffffffffffffffffffffffff1614806107c957506107c8816107c3611323565b6110c1565b5b610808576040517f08c379a00000000000000000000000000000000000000000000000000000000081526004016107ff90612bf6565b60405180910390fd5b610812838361132b565b505050565b610828610822611323565b826113e4565b610867576040517f08c379a000000000000000000000000000000000000000000000000000000000815260040161085e90612c88565b60405180910390fd5b6108728383836114c2565b505050565b61271081565b610885611323565b73ffffffffffffffffffffffffffffffffffffffff166108a3610be7565b73ffffffffffffffffffffffffffffffffffffffff16146108f9576040517f08c379a00000000000000000000000000000000000000000000000000000000081526004016108f090612cf4565b60405180910390fd5b6000610903610be7565b90508073ffffffffffffffffffffffffffffffffffffffff166108fc479081150290604051600060405180830381858888f1935050505015801561094b573d6000803e3d6000fd5b5050565b61096a83838360405180602001604052806000815250610ec8565b505050565b6000806002600084815260200190815260200160002060009054906101000a900473ffffffffffffffffffffffffffffffffffffffff169050600073ffffffffffffffffffffffffffffffffffffffff168173ffffffffffffffffffffffffffffffffffffffff161415610a18576040517f08c379a0000000000000000000000000000000000000000000000000000000008152600401610a0f90612d86565b60405180910390fd5b80915050919050565b60008073ffffffffffffffffffffffffffffffffffffffff168273ffffffffffffffffffffffffffffffffffffffff161415610a92576040517f08c379a0000000000000000000000000000000000000000000000000000000008152600401610a8990612e18565b60405180910390fd5b600360008373ffffffffffffffffffffffffffffffffffffffff1673ffffffffffffffffffffffffffffffffffffffff168152602001908152602001600020549050919050565b610ae1611323565b73ffffffffffffffffffffffffffffffffffffffff16610aff610be7565b73ffffffffffffffffffffffffffffffffffffffff1614610b55576040517f08c379a0000000000000000000000000000000000000000000000000000000008152600401610b4c90612cf4565b60405180910390fd5b610b5f600061171e565b565b610b69611323565b73ffffffffffffffffffffffffffffffffffffffff16610b87610be7565b73ffffffffffffffffffffffffffffffffffffffff1614610bdd576040517f08c379a0000000000000000000000000000000000000000000000000000000008152600401610bd490612cf4565b60405180910390fd5b8060088190555050565b6000600660009054906101000a900473ffffffffffffffffffffffffffffffffffffffff16905090565b606060018054610c2090612a2e565b80601f0160208091040260200160405190810160405280929190818152602001828054610c4c90612a2e565b8015610c995780601f10610c6e57610100808354040283529160200191610c99565b820191906000526020600020905b815481529060010190602001808311610c7c57829003601f168201915b5050505050905090565b610cb5610cae611323565b83836117e4565b5050565b6060600060075490506000808267ffffffffffffffff811115610cdf57610cde612727565b5b604051908082528060200260200182016040528015610d1857816020015b610d0561211b565b815260200190600190039081610cfd5790505b50905060005b83811015610dd657610d2f836112b7565b8015610d6e57503373ffffffffffffffffffffffffffffffffffffffff16610d568461096f565b73ffffffffffffffffffffffffffffffffffffffff16145b15610db5576000610d7e84610f2a565b9050604051806040016040528085815260200182815250838581518110610da857610da7612e38565b5b6020026020010181905250505b8280610dc090612e96565b9350508080610dce90612e96565b915050610d1e565b5080935050505090565b6060600060075490506000808267ffffffffffffffff811115610e0657610e05612727565b5b604051908082528060200260200182016040528015610e3f57816020015b610e2c61211b565b815260200190600190039081610e245790505b50905060005b83811015610ebe57610e56836112b7565b15610e9d576000610e6684610f2a565b9050604051806040016040528085815260200182815250838581518110610e9057610e8f612e38565b5b6020026020010181905250505b8280610ea890612e96565b9350508080610eb690612e96565b915050610e45565b5080935050505090565b610ed9610ed3611323565b836113e4565b610f18576040517f08c379a0000000000000000000000000000000000000000000000000000000008152600401610f0f90612c88565b60405180910390fd5b610f2484848484611951565b50505050565b6060610f35826112b7565b610f3e57600080fd5b6000600960008481526020019081526020016000208054610f5e90612a2e565b80601f0160208091040260200160405190810160405280929190818152602001828054610f8a90612a2e565b8015610fd75780601f10610fac57610100808354040283529160200191610fd7565b820191906000526020600020905b815481529060010190602001808311610fba57829003601f168201915b5050505050905080915050919050565b60085434101561102c576040517f08c379a000000000000000000000000000000000000000000000000000000000815260040161102390612f2b565b60405180910390fd5b6127106007541061103c57600080fd5b611048336007546119ad565b611054600754826119cb565b3373ffffffffffffffffffffffffffffffffffffffff167f9b1d6efb528ed1fa8e6aee6ed6b5b50ee8b7472deaad3f4a26f92759a8e368576007548360405161109e929190612f4b565b60405180910390a2600760008154809291906110b990612e96565b919050555050565b6000600560008473ffffffffffffffffffffffffffffffffffffffff1673ffffffffffffffffffffffffffffffffffffffff16815260200190815260200160002060008373ffffffffffffffffffffffffffffffffffffffff1673ffffffffffffffffffffffffffffffffffffffff16815260200190815260200160002060009054906101000a900460ff16905092915050565b61115d611323565b73ffffffffffffffffffffffffffffffffffffffff1661117b610be7565b73ffffffffffffffffffffffffffffffffffffffff16146111d1576040517f08c379a00000000000000000000000000000000000000000000000000000000081526004016111c890612cf4565b60405180910390fd5b600073ffffffffffffffffffffffffffffffffffffffff168173ffffffffffffffffffffffffffffffffffffffff161415611241576040517f08c379a000000000000000000000000000000000000000000000000000000000815260040161123890612fed565b60405180910390fd5b61124a8161171e565b50565b60007f01ffc9a7000000000000000000000000000000000000000000000000000000007bffffffffffffffffffffffffffffffffffffffffffffffffffffffff1916827bffffffffffffffffffffffffffffffffffffffffffffffffffffffff1916149050919050565b60008073ffffffffffffffffffffffffffffffffffffffff166002600084815260200190815260200160002060009054906101000a900473ffffffffffffffffffffffffffffffffffffffff1673ffffffffffffffffffffffffffffffffffffffff1614159050919050565b600033905090565b816004600083815260200190815260200160002060006101000a81548173ffffffffffffffffffffffffffffffffffffffff021916908373ffffffffffffffffffffffffffffffffffffffff160217905550808273ffffffffffffffffffffffffffffffffffffffff1661139e8361096f565b73ffffffffffffffffffffffffffffffffffffffff167f8c5be1e5ebec7d5bd14f71427d1e84f3dd0314c0f7b2291e5b200ac8c7c3b92560405160405180910390a45050565b60006113ef826112b7565b61142e576040517f08c379a00000000000000000000000000000000000000000000000000000000081526004016114259061307f565b60405180910390fd5b60006114398361096f565b90508073ffffffffffffffffffffffffffffffffffffffff168473ffffffffffffffffffffffffffffffffffffffff1614806114a857508373ffffffffffffffffffffffffffffffffffffffff166114908461067a565b73ffffffffffffffffffffffffffffffffffffffff16145b806114b957506114b881856110c1565b5b91505092915050565b8273ffffffffffffffffffffffffffffffffffffffff166114e28261096f565b73ffffffffffffffffffffffffffffffffffffffff1614611538576040517f08c379a000000000000000000000000000000000000000000000000000000000815260040161152f90613111565b60405180910390fd5b600073ffffffffffffffffffffffffffffffffffffffff168273ffffffffffffffffffffffffffffffffffffffff1614156115a8576040517f08c379a000000000000000000000000000000000000000000000000000000000815260040161159f906131a3565b60405180910390fd5b6115b3838383611a47565b6115be60008261132b565b6001600360008573ffffffffffffffffffffffffffffffffffffffff1673ffffffffffffffffffffffffffffffffffffffff168152602001908152602001600020600082825461160e91906131c3565b925050819055506001600360008473ffffffffffffffffffffffffffffffffffffffff1673ffffffffffffffffffffffffffffffffffffffff168152602001908152602001600020600082825461166591906131f7565b92505081905550816002600083815260200190815260200160002060006101000a81548173ffffffffffffffffffffffffffffffffffffffff021916908373ffffffffffffffffffffffffffffffffffffffff160217905550808273ffffffffffffffffffffffffffffffffffffffff168473ffffffffffffffffffffffffffffffffffffffff167fddf252ad1be2c89b69c2b068fc378daa952ba7f163c4a11628f55a4df523b3ef60405160405180910390a4505050565b6000600660009054906101000a900473ffffffffffffffffffffffffffffffffffffffff16905081600660006101000a81548173ffffffffffffffffffffffffffffffffffffffff021916908373ffffffffffffffffffffffffffffffffffffffff1602179055508173ffffffffffffffffffffffffffffffffffffffff168173ffffffffffffffffffffffffffffffffffffffff167f8be0079c531659141344cd1fd0a4f28419497f9722a3daafe3b4186f6b6457e060405160405180910390a35050565b8173ffffffffffffffffffffffffffffffffffffffff168373ffffffffffffffffffffffffffffffffffffffff161415611853576040517f08c379a000000000000000000000000000000000000000000000000000000000815260040161184a90613299565b60405180910390fd5b80600560008573ffffffffffffffffffffffffffffffffffffffff1673ffffffffffffffffffffffffffffffffffffffff16815260200190815260200160002060008473ffffffffffffffffffffffffffffffffffffffff1673ffffffffffffffffffffffffffffffffffffffff16815260200190815260200160002060006101000a81548160ff0219169083151502179055508173ffffffffffffffffffffffffffffffffffffffff168373ffffffffffffffffffffffffffffffffffffffff167f17307eab39ab6107e8899845ad3d59bd9653f200f220920489ca2b5937696c3183604051611944919061228c565b60405180910390a3505050565b61195c8484846114c2565b61196884848484611a4c565b6119a7576040517f08c379a000000000000000000000000000000000000000000000000000000000815260040161199e9061332b565b60405180910390fd5b50505050565b6119c7828260405180602001604052806000815250611bd4565b5050565b6119fd6119d783611c2f565b826040516020016119e9929190613529565b604051602081830303815290604052611c60565b604051602001611a0d91906135d0565b604051602081830303815290604052600960008481526020019081526020016000209080519060200190611a42929190612135565b505050565b505050565b6000611a6d8473ffffffffffffffffffffffffffffffffffffffff16611dd9565b15611bc7578373ffffffffffffffffffffffffffffffffffffffff1663150b7a02611a96611323565b8786866040518563ffffffff1660e01b8152600401611ab89493929190613647565b6020604051808303816000875af1925050508015611af457506040513d601f19601f82011682018060405250810190611af191906136a8565b60015b611b77573d8060008114611b24576040519150601f19603f3d011682016040523d82523d6000602084013e611b29565b606091505b50600081511415611b6f576040517f08c379a0000000000000000000000000000000000000000000000000000000008152600401611b669061332b565b60405180910390fd5b805181602001fd5b63150b7a0260e01b7bffffffffffffffffffffffffffffffffffffffffffffffffffffffff1916817bffffffffffffffffffffffffffffffffffffffffffffffffffffffff191614915050611bcc565b600190505b949350505050565b611bde8383611dec565b611beb6000848484611a4c565b611c2a576040517f08c379a0000000000000000000000000000000000000000000000000000000008152600401611c219061332b565b60405180910390fd5b505050565b6060611c3a82611fba565b604051602001611c4a9190613721565b6040516020818303038152906040529050919050565b6060600082511415611c8357604051806020016040528060008152509050611dd4565b60006040518060600160405280604081526020016139076040913990506000600360028551611cb291906131f7565b611cbc9190613772565b6004611cc891906137a3565b90506000602082611cd991906131f7565b67ffffffffffffffff811115611cf257611cf1612727565b5b6040519080825280601f01601f191660200182016040528015611d245781602001600182028036833780820191505090505b509050818152600183018586518101602084015b81831015611d93576003830192508251603f8160121c168501518253600182019150603f81600c1c168501518253600182019150603f8160061c168501518253600182019150603f8116850151825360018201915050611d38565b600389510660018114611dad5760028114611dbd57611dc8565b613d3d60f01b6002830352611dc8565b603d60f81b60018303525b50505050508093505050505b919050565b600080823b905060008111915050919050565b600073ffffffffffffffffffffffffffffffffffffffff168273ffffffffffffffffffffffffffffffffffffffff161415611e5c576040517f08c379a0000000000000000000000000000000000000000000000000000000008152600401611e5390613849565b60405180910390fd5b611e65816112b7565b15611ea5576040517f08c379a0000000000000000000000000000000000000000000000000000000008152600401611e9c906138b5565b60405180910390fd5b611eb160008383611a47565b6001600360008473ffffffffffffffffffffffffffffffffffffffff1673ffffffffffffffffffffffffffffffffffffffff1681526020019081526020016000206000828254611f0191906131f7565b92505081905550816002600083815260200190815260200160002060006101000a81548173ffffffffffffffffffffffffffffffffffffffff021916908373ffffffffffffffffffffffffffffffffffffffff160217905550808273ffffffffffffffffffffffffffffffffffffffff16600073ffffffffffffffffffffffffffffffffffffffff167fddf252ad1be2c89b69c2b068fc378daa952ba7f163c4a11628f55a4df523b3ef60405160405180910390a45050565b60606000821415612002576040518060400160405280600181526020017f30000000000000000000000000000000000000000000000000000000000000008152509050612116565b600082905060005b6000821461203457808061201d90612e96565b915050600a8261202d9190613772565b915061200a565b60008167ffffffffffffffff8111156120505761204f612727565b5b6040519080825280601f01601f1916602001820160405280156120825781602001600182028036833780820191505090505b5090505b6000851461210f5760018261209b91906131c3565b9150600a856120aa91906138d5565b60306120b691906131f7565b60f81b8183815181106120cc576120cb612e38565b5b60200101907effffffffffffffffffffffffffffffffffffffffffffffffffffffffffffff1916908160001a905350600a856121089190613772565b9450612086565b8093505050505b919050565b604051806040016040528060008152602001606081525090565b82805461214190612a2e565b90600052602060002090601f01602090048101928261216357600085556121aa565b82601f1061217c57805160ff19168380011785556121aa565b828001600101855582156121aa579182015b828111156121a957825182559160200191906001019061218e565b5b5090506121b791906121bb565b5090565b5b808211156121d45760008160009055506001016121bc565b5090565b6000604051905090565b600080fd5b600080fd5b60007fffffffff0000000000000000000000000000000000000000000000000000000082169050919050565b612221816121ec565b811461222c57600080fd5b50565b60008135905061223e81612218565b92915050565b60006020828403121561225a576122596121e2565b5b60006122688482850161222f565b91505092915050565b60008115159050919050565b61228681612271565b82525050565b60006020820190506122a1600083018461227d565b92915050565b600081519050919050565b600082825260208201905092915050565b60005b838110156122e15780820151818401526020810190506122c6565b838111156122f0576000848401525b50505050565b6000601f19601f8301169050919050565b6000612312826122a7565b61231c81856122b2565b935061232c8185602086016122c3565b612335816122f6565b840191505092915050565b6000602082019050818103600083015261235a8184612307565b905092915050565b6000819050919050565b61237581612362565b811461238057600080fd5b50565b6000813590506123928161236c565b92915050565b6000602082840312156123ae576123ad6121e2565b5b60006123bc84828501612383565b91505092915050565b600073ffffffffffffffffffffffffffffffffffffffff82169050919050565b60006123f0826123c5565b9050919050565b612400816123e5565b82525050565b600060208201905061241b60008301846123f7565b92915050565b61242a816123e5565b811461243557600080fd5b50565b60008135905061244781612421565b92915050565b60008060408385031215612464576124636121e2565b5b600061247285828601612438565b925050602061248385828601612383565b9150509250929050565b6000806000606084860312156124a6576124a56121e2565b5b60006124b486828701612438565b93505060206124c586828701612438565b92505060406124d686828701612383565b9150509250925092565b6124e981612362565b82525050565b600060208201905061250460008301846124e0565b92915050565b6000602082840312156125205761251f6121e2565b5b600061252e84828501612438565b91505092915050565b61254081612271565b811461254b57600080fd5b50565b60008135905061255d81612537565b92915050565b6000806040838503121561257a576125796121e2565b5b600061258885828601612438565b92505060206125998582860161254e565b9150509250929050565b600081519050919050565b600082825260208201905092915050565b6000819050602082019050919050565b6125d881612362565b82525050565b600082825260208201905092915050565b60006125fa826122a7565b61260481856125de565b93506126148185602086016122c3565b61261d816122f6565b840191505092915050565b600060408301600083015161264060008601826125cf565b506020830151848203602086015261265882826125ef565b9150508091505092915050565b60006126718383612628565b905092915050565b6000602082019050919050565b6000612691826125a3565b61269b81856125ae565b9350836020820285016126ad856125bf565b8060005b858110156126e957848403895281516126ca8582612665565b94506126d583612679565b925060208a019950506001810190506126b1565b50829750879550505050505092915050565b600060208201905081810360008301526127158184612686565b905092915050565b600080fd5b600080fd5b7f4e487b7100000000000000000000000000000000000000000000000000000000600052604160045260246000fd5b61275f826122f6565b810181811067ffffffffffffffff8211171561277e5761277d612727565b5b80604052505050565b60006127916121d8565b905061279d8282612756565b919050565b600067ffffffffffffffff8211156127bd576127bc612727565b5b6127c6826122f6565b9050602081019050919050565b82818337600083830152505050565b60006127f56127f0846127a2565b612787565b90508281526020810184848401111561281157612810612722565b5b61281c8482856127d3565b509392505050565b600082601f8301126128395761283861271d565b5b81356128498482602086016127e2565b91505092915050565b6000806000806080858703121561286c5761286b6121e2565b5b600061287a87828801612438565b945050602061288b87828801612438565b935050604061289c87828801612383565b925050606085013567ffffffffffffffff8111156128bd576128bc6121e7565b5b6128c987828801612824565b91505092959194509250565b600067ffffffffffffffff8211156128f0576128ef612727565b5b6128f9826122f6565b9050602081019050919050565b6000612919612914846128d5565b612787565b90508281526020810184848401111561293557612934612722565b5b6129408482856127d3565b509392505050565b600082601f83011261295d5761295c61271d565b5b813561296d848260208601612906565b91505092915050565b60006020828403121561298c5761298b6121e2565b5b600082013567ffffffffffffffff8111156129aa576129a96121e7565b5b6129b684828501612948565b91505092915050565b600080604083850312156129d6576129d56121e2565b5b60006129e485828601612438565b92505060206129f585828601612438565b9150509250929050565b7f4e487b7100000000000000000000000000000000000000000000000000000000600052602260045260246000fd5b60006002820490506001821680612a4657607f821691505b60208210811415612a5a57612a596129ff565b5b50919050565b7f4552433732313a20617070726f76656420717565727920666f72206e6f6e657860008201527f697374656e7420746f6b656e0000000000000000000000000000000000000000602082015250565b6000612abc602c836122b2565b9150612ac782612a60565b604082019050919050565b60006020820190508181036000830152612aeb81612aaf565b9050919050565b7f4552433732313a20617070726f76616c20746f2063757272656e74206f776e6560008201527f7200000000000000000000000000000000000000000000000000000000000000602082015250565b6000612b4e6021836122b2565b9150612b5982612af2565b604082019050919050565b60006020820190508181036000830152612b7d81612b41565b9050919050565b7f4552433732313a20617070726f76652063616c6c6572206973206e6f74206f7760008201527f6e6572206e6f7220617070726f76656420666f7220616c6c0000000000000000602082015250565b6000612be06038836122b2565b9150612beb82612b84565b604082019050919050565b60006020820190508181036000830152612c0f81612bd3565b9050919050565b7f4552433732313a207472616e736665722063616c6c6572206973206e6f74206f60008201527f776e6572206e6f7220617070726f766564000000000000000000000000000000602082015250565b6000612c726031836122b2565b9150612c7d82612c16565b604082019050919050565b60006020820190508181036000830152612ca181612c65565b9050919050565b7f4f776e61626c653a2063616c6c6572206973206e6f7420746865206f776e6572600082015250565b6000612cde6020836122b2565b9150612ce982612ca8565b602082019050919050565b60006020820190508181036000830152612d0d81612cd1565b9050919050565b7f4552433732313a206f776e657220717565727920666f72206e6f6e657869737460008201527f656e7420746f6b656e0000000000000000000000000000000000000000000000602082015250565b6000612d706029836122b2565b9150612d7b82612d14565b604082019050919050565b60006020820190508181036000830152612d9f81612d63565b9050919050565b7f4552433732313a2062616c616e636520717565727920666f7220746865207a6560008201527f726f206164647265737300000000000000000000000000000000000000000000602082015250565b6000612e02602a836122b2565b9150612e0d82612da6565b604082019050919050565b60006020820190508181036000830152612e3181612df5565b9050919050565b7f4e487b7100000000000000000000000000000000000000000000000000000000600052603260045260246000fd5b7f4e487b7100000000000000000000000000000000000000000000000000000000600052601160045260246000fd5b6000612ea182612362565b91507fffffffffffffffffffffffffffffffffffffffffffffffffffffffffffffffff821415612ed457612ed3612e67565b5b600182019050919050565b7f496e73756666696369656e742066756e64732e00000000000000000000000000600082015250565b6000612f156013836122b2565b9150612f2082612edf565b602082019050919050565b60006020820190508181036000830152612f4481612f08565b9050919050565b6000604082019050612f6060008301856124e0565b8181036020830152612f728184612307565b90509392505050565b7f4f776e61626c653a206e6577206f776e657220697320746865207a65726f206160008201527f6464726573730000000000000000000000000000000000000000000000000000602082015250565b6000612fd76026836122b2565b9150612fe282612f7b565b604082019050919050565b6000602082019050818103600083015261300681612fca565b9050919050565b7f4552433732313a206f70657261746f7220717565727920666f72206e6f6e657860008201527f697374656e7420746f6b656e0000000000000000000000000000000000000000602082015250565b6000613069602c836122b2565b91506130748261300d565b604082019050919050565b600060208201905081810360008301526130988161305c565b9050919050565b7f4552433732313a207472616e73666572206f6620746f6b656e2074686174206960008201527f73206e6f74206f776e0000000000000000000000000000000000000000000000602082015250565b60006130fb6029836122b2565b91506131068261309f565b604082019050919050565b6000602082019050818103600083015261312a816130ee565b9050919050565b7f4552433732313a207472616e7366657220746f20746865207a65726f2061646460008201527f7265737300000000000000000000000000000000000000000000000000000000602082015250565b600061318d6024836122b2565b915061319882613131565b604082019050919050565b600060208201905081810360008301526131bc81613180565b9050919050565b60006131ce82612362565b91506131d983612362565b9250828210156131ec576131eb612e67565b5b828203905092915050565b600061320282612362565b915061320d83612362565b9250827fffffffffffffffffffffffffffffffffffffffffffffffffffffffffffffffff0382111561324257613241612e67565b5b828201905092915050565b7f4552433732313a20617070726f766520746f2063616c6c657200000000000000600082015250565b60006132836019836122b2565b915061328e8261324d565b602082019050919050565b600060208201905081810360008301526132b281613276565b9050919050565b7f4552433732313a207472616e7366657220746f206e6f6e20455243373231526560008201527f63656976657220696d706c656d656e7465720000000000000000000000000000602082015250565b60006133156032836122b2565b9150613320826132b9565b604082019050919050565b6000602082019050818103600083015261334481613308565b9050919050565b600081905092915050565b7f7b226e616d65223a220000000000000000000000000000000000000000000000600082015250565b600061338c60098361334b565b915061339782613356565b600982019050919050565b60006133ad826122a7565b6133b7818561334b565b93506133c78185602086016122c3565b80840191505092915050565b7f222c20226465736372697074696f6e223a220000000000000000000000000000600082015250565b600061340960128361334b565b9150613414826133d3565b601282019050919050565b7f5768657468657220626c61636b2c2077686974652c206f7220616e7920636f6c60008201527f6f7220696e206265747765656e2c204920616d206c696d69746c6573732e0000602082015250565b600061347b603e8361334b565b91506134868261341f565b603e82019050919050565b7f222c2022696d616765223a202200000000000000000000000000000000000000600082015250565b60006134c7600d8361334b565b91506134d282613491565b600d82019050919050565b7f227d000000000000000000000000000000000000000000000000000000000000600082015250565b600061351360028361334b565b915061351e826134dd565b600282019050919050565b60006135348261337f565b915061354082856133a2565b915061354b826133fc565b91506135568261346e565b9150613561826134ba565b915061356d82846133a2565b915061357882613506565b91508190509392505050565b7f646174613a6170706c69636174696f6e2f6a736f6e3b6261736536342c000000600082015250565b60006135ba601d8361334b565b91506135c582613584565b601d82019050919050565b60006135db826135ad565b91506135e782846133a2565b915081905092915050565b600081519050919050565b600082825260208201905092915050565b6000613619826135f2565b61362381856135fd565b93506136338185602086016122c3565b61363c816122f6565b840191505092915050565b600060808201905061365c60008301876123f7565b61366960208301866123f7565b61367660408301856124e0565b8181036060830152613688818461360e565b905095945050505050565b6000815190506136a281612218565b92915050565b6000602082840312156136be576136bd6121e2565b5b60006136cc84828501613693565b91505092915050565b7f5365656b65722023000000000000000000000000000000000000000000000000600082015250565b600061370b60088361334b565b9150613716826136d5565b600882019050919050565b600061372c826136fe565b915061373882846133a2565b915081905092915050565b7f4e487b7100000000000000000000000000000000000000000000000000000000600052601260045260246000fd5b600061377d82612362565b915061378883612362565b92508261379857613797613743565b5b828204905092915050565b60006137ae82612362565b91506137b983612362565b9250817fffffffffffffffffffffffffffffffffffffffffffffffffffffffffffffffff04831182151516156137f2576137f1612e67565b5b828202905092915050565b7f4552433732313a206d696e7420746f20746865207a65726f2061646472657373600082015250565b60006138336020836122b2565b915061383e826137fd565b602082019050919050565b6000602082019050818103600083015261386281613826565b9050919050565b7f4552433732313a20746f6b656e20616c7265616479206d696e74656400000000600082015250565b600061389f601c836122b2565b91506138aa82613869565b602082019050919050565b600060208201905081810360008301526138ce81613892565b9050919050565b60006138e082612362565b91506138eb83612362565b9250826138fb576138fa613743565b5b82820690509291505056fe4142434445464748494a4b4c4d4e4f505152535455565758595a6162636465666768696a6b6c6d6e6f707172737475767778797a303132333435363738392b2fa2646970667358221220c9ac9ad97eb2a834a80081a062ecd0a6a522fc20570a7a52532d8da19ae8cb0764736f6c634300080b0033",
  "immutableReferences": {},
  "source": "// SPDX-License-Identifier: MIT\r\n\r\npragma solidity ^0.8.0;\r\n\r\nimport \"@openzeppelin/contracts/token/ERC721/ERC721.sol\";\r\nimport \"@openzeppelin/contracts/access/Ownable.sol\";\r\nimport \"@openzeppelin/contracts/utils/Strings.sol\";\r\nimport \"./Base64.sol\";\r\n\r\ncontract SeekerToken is ERC721, Ownable {\r\n    uint256 COUNTER = 0;\r\n    uint256 public constant MAX_SUPPLY = 10000;\r\n    uint256 mintFee = 0.01 ether;\r\n\r\n    struct Seeker {\r\n        uint256 id;\r\n        string uri;\r\n    }\r\n\r\n    mapping(uint256 => string) tokenURIs;\r\n\r\n    function getNextSeekerName(uint256 _tokenID)\r\n        internal\r\n        pure\r\n        returns (string memory)\r\n    {\r\n        return string(abi.encodePacked(\"Seeker #\", Strings.toString(_tokenID)));\r\n    }\r\n\r\n    function _setTokenURI(uint256 _tokenId, string memory _dataURI) internal {\r\n        tokenURIs[_tokenId] = string(\r\n            abi.encodePacked(\r\n                \"data:application/json;base64,\",\r\n                Base64.encode(\r\n                    bytes(\r\n                        abi.encodePacked(\r\n                            '{\"name\":\"',\r\n                            getNextSeekerName(_tokenId),\r\n                            '\", \"description\":\"',\r\n                            \"Whether black, white, or any color in between, I am limitless.\",\r\n                            '\", \"image\": \"',\r\n                            _dataURI,\r\n                            '\"}'\r\n                        )\r\n                    )\r\n                )\r\n            )\r\n        );\r\n    }\r\n\r\n    function tokenURI(uint256 _tokenId)\r\n        public\r\n        view\r\n        virtual\r\n        override\r\n        returns (string memory)\r\n    {\r\n        require(_exists(_tokenId));\r\n        string memory _tokenURI = tokenURIs[_tokenId];\r\n        return _tokenURI;\r\n    }\r\n\r\n    event NewSeeker(address indexed owner, uint256 id, string uri);\r\n\r\n    constructor(string memory _name, string memory _symbol)\r\n        ERC721(_name, _symbol)\r\n    {}\r\n\r\n    // Helpers\r\n    function _createRandomNum(uint256 _mod) internal view returns (uint256) {\r\n        uint256 randomNum = uint256(\r\n            keccak256(abi.encodePacked(block.timestamp, msg.sender))\r\n        );\r\n        return randomNum % _mod;\r\n    }\r\n\r\n    function updateMintFee(uint256 newFee) external onlyOwner {\r\n        mintFee = newFee;\r\n    }\r\n\r\n    // Creation\r\n    function _createSeeker(string memory _uri) internal {}\r\n\r\n    function mint(string memory _uri) public payable {\r\n        require(msg.value >= mintFee, \"Insufficient funds.\");\r\n        require(COUNTER < MAX_SUPPLY);\r\n        _safeMint(msg.sender, COUNTER);\r\n        _setTokenURI(COUNTER, _uri);\r\n        emit NewSeeker(msg.sender, COUNTER, _uri);\r\n        COUNTER++;\r\n    }\r\n\r\n    // Getters\r\n    function getAllSeekers() public view returns (Seeker[] memory) {\r\n        uint256 latestId = COUNTER;\r\n        uint256 counter = 0;\r\n\r\n        Seeker[] memory res = new Seeker[](latestId);\r\n        for (uint256 i = 0; i < latestId; i++) {\r\n            if (_exists(counter)) {\r\n                string memory uri = tokenURI(counter);\r\n                res[counter] = Seeker(counter, uri);\r\n            }\r\n            counter++;\r\n        }\r\n        return res;\r\n    }\r\n\r\n    function getOwnerSeekers() public view returns (Seeker[] memory) {\r\n        uint256 latestId = COUNTER;\r\n        uint256 counter = 0;\r\n\r\n        Seeker[] memory res = new Seeker[](latestId);\r\n        for (uint256 i = 0; i < latestId; i++) {\r\n            if (_exists(counter) && ownerOf(counter) == msg.sender) {\r\n                string memory uri = tokenURI(counter);\r\n                res[counter] = Seeker(counter, uri);\r\n            }\r\n            counter++;\r\n        }\r\n        return res;\r\n    }\r\n\r\n    function withdraw() external payable onlyOwner {\r\n        address _owner = owner();\r\n        payable(_owner).transfer(address(this).balance);\r\n    }\r\n}\r\n",
  "sourcePath": "C:\\Users\\dsita\\Desktop\\i-am-dapp-back\\contracts\\SeekerToken.sol",
  "compiler": {
    "name": "solc",
    "version": "0.8.11+commit.d7f03943.Emscripten.clang"
  },
  "schemaVersion": "3.4.4",
  "updatedAt": "2022-02-03T23:23:21.311Z",
  "networkType": "ethereum",
  "devdoc": {
    "kind": "dev",
    "methods": {
      "approve(address,uint256)": {
        "details": "See {IERC721-approve}."
      },
      "balanceOf(address)": {
        "details": "See {IERC721-balanceOf}."
      },
      "getApproved(uint256)": {
        "details": "See {IERC721-getApproved}."
      },
      "isApprovedForAll(address,address)": {
        "details": "See {IERC721-isApprovedForAll}."
      },
      "name()": {
        "details": "See {IERC721Metadata-name}."
      },
      "owner()": {
        "details": "Returns the address of the current owner."
      },
      "ownerOf(uint256)": {
        "details": "See {IERC721-ownerOf}."
      },
      "renounceOwnership()": {
        "details": "Leaves the contract without owner. It will not be possible to call `onlyOwner` functions anymore. Can only be called by the current owner. NOTE: Renouncing ownership will leave the contract without an owner, thereby removing any functionality that is only available to the owner."
      },
      "safeTransferFrom(address,address,uint256)": {
        "details": "See {IERC721-safeTransferFrom}."
      },
      "safeTransferFrom(address,address,uint256,bytes)": {
        "details": "See {IERC721-safeTransferFrom}."
      },
      "setApprovalForAll(address,bool)": {
        "details": "See {IERC721-setApprovalForAll}."
      },
      "supportsInterface(bytes4)": {
        "details": "See {IERC165-supportsInterface}."
      },
      "symbol()": {
        "details": "See {IERC721Metadata-symbol}."
      },
      "transferFrom(address,address,uint256)": {
        "details": "See {IERC721-transferFrom}."
      },
      "transferOwnership(address)": {
        "details": "Transfers ownership of the contract to a new account (`newOwner`). Can only be called by the current owner."
      }
    },
    "version": 1
  },
  "userdoc": {
    "kind": "user",
    "methods": {},
    "version": 1
  }
}